:100000000C94510B0C94890B0C94890B0C941B349D
:100010000C94890B0C94890B0C94890B0C94890B10
:100020000C94890B0C94890B0C9479300C94CD3181
:100030000C94981F0C94890B0C94890B0C94890BCD
:100040000C94890B0C94890B0C94890B0C94890BE0
:100050000C94890B0C9455300C94890B0C94890BDF
:100060000C94890B0C94890B0C94890B0C94890BC0
:100070000C94890B0C94890B0C94890B0C94890BB0
:100080000C94890B0C94890B0C94890B0C94890BA0
:100090000C94890B0C94890B0C94890B0C94890B90
:1000A0000C94890B0C94890B0C94890B6F6C656410
:1000B0005F6F6E20636D64206661696C65640A0021
:1000C00000AF6F6C65645F6F666620636D64206669
:1000D00061696C65640A0000AE07087F0807003E8E
:1000E0005B4F5B3E003E6B4F6B3E001C3E7C3E1CFC
:1000F00000183C7E3C18001C577D571C001C5E7F7E
:100100005E1C0000183C180000FFE7C3E7FF00007A
:100110001824180000FFE7DBE7FF0030483A060E1E
:1001200000262979292600407F05050700407F0524
:10013000253F005A3CE73C5A007F3E1C1C08000843
:100140001C1C3E7F0014227F2214005F5F005F5F53
:100150000006097F017F00006689956A0060606083
:1001600060600094A2FFA2940008047E04080010BE
:10017000207E20100008082A1C0800081C2A0808F5
:10018000001E10101010000C1E0C1E0C0030383E0B
:10019000383000060E3E0E06000000000000000091
:1001A000005F000000000700070000147F147F14A8
:1001B00000242A7F2A12002313086462003649565D
:1001C000205000000807030000001C22410000002E
:1001D00041221C00002A1C7F1C2A0008083E080837
:1001E0000000807030000008080808080000006067
:1001F0006000002010080402003E5149453E000006
:10020000427F4000007249494946002141494D332F
:10021000001814127F10002745454539003C4A4913
:100220004931004121110907003649494936004644
:100230004949291E0000001400000000403400005D
:100240000000081422410014141414140000412268
:100250001408000201590906003E415D594E007C18
:100260001211127C007F49494936003E414141222A
:10027000007F4141413E007F49494941007F0909D2
:100280000901003E41415173007F0808087F0000CA
:10029000417F4100002040413F01007F081422417E
:1002A000007F40404040007F021C027F007F040826
:1002B000107F003E4141413E007F09090906003E92
:1002C0004151215E007F09192946002649494932DA
:1002D0000003017F0103003F4040403F001F2040DA
:1002E000201F003F4038403F0063140814630003A0
:1002F00004780403006159494D4300007F414141A6
:1003000000020408102000004141417F0004020166
:100310000204004040404040000003070800002065
:1003200054547840007F28444438003844444428DA
:1003300000384444287F0038545454180000087E84
:1003400009020018A4A49C78007F08040478000027
:10035000447D4000002040403D00007F10284400C4
:100360000000417F4000007C04780478007C080491
:10037000047800384444443800FC18242418001839
:10038000242418FC007C0804040800485454542415
:100390000004043F4424003C4040207C001C2040DA
:1003A000201C003C4030403C004428102844004CB5
:1003B0009090907C004464544C4400000836410006
:1003C0000000007700000000413608000002010232
:1003D0000402003C2623263C0000000000000040F0
:1003E0004040F0F8F8FF38FFF8F83FF8F8FF38FF22
:1003F000F8F8F040404000000000000080C0C0C09D
:10040000800000C0C08000000080C0C000C0C000EC
:100410000080C0C00000000000C0C0C0C0C000C05C
:10042000C00000000000000000000000000000000C
:1004300000000000000000000000000000000000BC
:1004400000000000000000000000000000000000AC
:100450000000000000000000C0F0F8FC3E1E060195
:100460000000007F4141417F007F4141417F00000A
:1004700080C0E07E5B4F5BFEC00000C000DCD7DECA
:10048000DEDED7DC00C0000000000000000000003D
:100490000000000000000000000000000000004913
:1004A0004949FFFFFFFFE0DFBFBF00BFBFDFE0FF45
:1004B000FFFFFF49494900000000001F3F6060E066
:1004C000BF1F007F7F071E381E077F7F007F7F0EC4
:1004D0001F3B716000000000007F7F0C0C0C007E51
:1004E0007E007F7E0303007F7E03037E7E03037F07
:1004F0007E000F3E703C063C703E0F00327B494947
:100500003F7E007F7E0303001E3F69696F26000067
:100510000000000000000000030F1F3F3C787060E7
:100520000000007F4141417F007F4141417F003019
:100530007B7F7830202030787F3B0003000F7F0FD7
:100540000F0F7F0F000300000000000000000000FC
:10055000000000000000000000000000000000019A
:100560000101070F0F7F0F7F0F0F7E0F0F7F0F7F90
:100570000F0F070101010000000000000000000053
:100580000101000000000000000000000000000069
:10059000000000000000000000000000000000005B
:1005A000000000000000000000000000000000004B
:1005B000000000000000000000000000000000003B
:1005C000000000000000000000000000000000002B
:1005D000000000000000000000000000000000001B
:1005E000000000000000000000000000000000000B
:1005F00000000000000000000000000000000000FB
:1006000000000000000000000000000000000000EA
:100610000000000000000000000631FF0974A10185
:100620000975150026FF00952075088102C0050197
:100630000906A101050719E029E71500250195081C
:10064000750181029501750881010507190029FFCF
:10065000150026FF00950675088100050819012977
:100660000515002501950575019102950175039108
:1006700001C009023B00020100A0FA0904000001C8
:100680000301010009211101000122440007058135
:100690000308000109040100010300000009211101
:1006A000010001221500070582032000011201004C
:1006B00002000000081D8D9D9D0001010200011631
:1006C000034B007900720069006100200072006530
:1006D000007600320000001803730070006C00699F
:1006E0000074006B0062002E0063006F006D00005C
:1006F00000040309045B435D005B445D005B535DE4
:10070000005B575D005B525D0001004B4354524E4D
:100710005328004B43454E540029004B4345534357
:10072000002A004B43425350432B004B4354414259
:10073000002C004B43535043002D004B434D494E7A
:10074000532E004B4345514C002F004B434C42521B
:100750004330004B435242524331004B4342534CCF
:100760005332004B434E55485333004B4353434C95
:100770004E34004B4351554F5435004B434752566E
:100780000036004B43434F4D4D37004B43444F54CD
:100790000038004B43534C534839004B43434150BE
:1007A0005346004B435053435248004B435041552E
:1007B0005349004B43494E53004A004B43484F4D69
:1007C000454B004B43504755504C004B4344454C20
:1007D000004D004B43454E44004E004B43504744B0
:1007E0004E4F004B435247485450004B434C4546F4
:1007F0005451004B43444F574E52004B4355500009
:100800000064004B434E554253000F4B4348595030
:100810005200074B434D454800167C514B4745530A
:1008200043037C4545434C5200007C514B424F4FA3
:1008300054027C4442544F47474D4F445F00514B54
:100840005F5155414E54554D2B00514B5F4D414723
:1008500049432B00514B5F555345525F00514B5F4D
:100860004B425F004D435F005444004D5428004DFF
:1008700045485F542800485950525F5428005F543F
:100880002800504446005454005447004446004D4C
:100890004F00544F004C4D28004C5428004B435FF0
:1008A00046004B435F46004B435F4B505F004B435A
:1008B0005F004B435F0043544C0053465400414C8F
:1008C0005400475549004B435F0000000000000002
:1008D000000000000000008080C0E0F07078383C2C
:1008E0001C1E0E0E0E070707070707070707070757
:1008F00007070707070E0E0E1E1C3C387870F0E045
:10090000C080800000000000000000000000000027
:1009100000000000000000000000000000000000D7
:1009200000000000000000000000000000000000C7
:1009300000000000000000000000000000000000B7
:1009400000000000000000000000000000000000A7
:1009500000C0E0F07C3E1F0F07030180C0E0F0788C
:10096000383C1C1E0E0E070787E77F1FFFFF1F7F07
:10097000E78707070E0E1E1C3C3878F0E0C08001A8
:1009800003070F1F3E7CF0E0C000000000000000E5
:100990000000000000000000000000000000000057
:1009A0000000000000000000000000000000000047
:1009B0000000000000000000000000000000000037
:1009C0000000000000000000000000000000F0FC3B
:1009D000FF1F07010000C0F0FCFEFFF7F3B1B030CD
:1009E00030303030303078FE87010000FFFF0000EB
:1009F0000187FE7830303030303030B0B1F3F7FF5F
:100A0000FEFCF0C0000001071FFFFCF0000000002A
:100A100000000000000000000000000000000000D6
:100A200000000000000000000000000000000000C6
:100A300000000000000000000000000000000000B6
:100A400000000000000000000000000000FFFFFFA9
:100A50000000000000FEFFFF0101071E78E1818316
:100A60008386868C8C9898B1B7FEF8E0FFFFE0F89B
:100A7000FEB7B198988C8C8686838381E1781E07B7
:100A80000101FFFFFE0000000000FFFFFF0000006B
:100A900000FFFF0000C0C030300000F0F000000098
:100AA000000000F0F00000F0F0C0C030303030C086
:100AB000C000003030F3F3000000000000303030A0
:100AC000303030C0C00000000000000000FFFFFF19
:100AD00000000000007FFFFF8080E0781E8781C15A
:100AE000C16161313119198DED7F1F07FFFF071FAC
:100AF0007FED8D191931316161C1C181871E78E0A7
:100B00008080FFFF7F0000000000FFFFFF0000006B
:100B1000003F3F03030C0C30300000000033333340
:100B20003333330F0F00003F3F0000000000000090
:100B300000000030303F3F303000000C0C333333C6
:100B40003333333F3F0000000000000000000F3F40
:100B5000FFF8E0800000030F3F7FFFEFCF8D0D0C0B
:100B60000C0C0C0C0C0C1E7FE1800000FFFF000041
:100B700080E17F1E0C0C0C0C0C0C0C0D8DCFEFFFCC
:100B80007F3F0F03000080E0F8FF3F0F00000000F0
:100B90000000000000000000000000000000000055
:100BA0000000000000000000000000000000000045
:100BB0000000000000000000000000000000000035
:100BC0000000000000000000000000000000000025
:100BD0000003070F3E7CF8F0E0C0800103070F1E02
:100BE0001C3C38787070E0E0E1E7FEF8FFFFF8FEAB
:100BF000E7E1E0E0707078383C1C1E0F07030180CD
:100C0000C0E0F0F87C3E0F07030000000000000089
:100C100000000000000000000000000000000000D4
:100C200000000000000000000000000000000000C4
:100C300000000000000000000000000000000000B4
:100C400000000000000000000000000000000000A4
:100C500000000000000000010103070F0E1E1C3CF5
:100C60003878707070E0E0E0E0E0E0E0E0E0E0E0E4
:100C7000E0E0E0E0E070707078383C1C1E0E0F077A
:100C8000030101000000000000000000000000005F
:100C90000000000000000000000000000000000054
:100CA0000000000000000000000000000000000044
:100CB0000000000000000000000000000000000034
:100CC0000000000000000000000020202020202064
:100CD00020005343524C434B200020202020202052
:100CE00020004341504C434B200020202020202056
:100CF00020004E554D4C434B2000556E646566698F
:100D00006E65640A0041646A7573740A0046756E04
:100D10006374696F6E0A0053796D0A004E61760A3A
:100D200000436F6C656D616B2D44480A0044766F1B
:100D300072616B0A005157455254590A004C61794F
:100D400065723A2000726576320A0A004B79726940
:100D5000612000808182838485868788898A8B8C44
:100D60008D8E8F9091929394A0A1A2A3A4A5A6A7E3
:100D7000A8A9AAABACADAEAFB0B1B2B3B4C0C1C25A
:100D8000C3C4C5C6C7C8C9CACBCCCDCECFD0D1D2BB
:100D9000D3D4006F6C65645F72656E6465723930C0
:100DA0002064617461206661696C65640A006F6C1F
:100DB00065645F72656E646572206461746120664B
:100DC00061696C65640A006F6C65645F72656E646E
:100DD0006572206F666673657420636F6D6D616EFA
:100DE00064206661696C65640A000001010101010B
:100DF00001010101020202020202020202030303D4
:100E000003030303030404040404040405050505A3
:100E10000506060606060707070707080808080963
:100E20000909090A0A0A0B0B0B0C0C0C0D0D0D0E0F
:100E30000E0E0F0F0F1010111111121213131414A4
:100E4000151516161717181819191A1A1B1B1C1D19
:100E50001D1E1E1F20202122222324242526262772
:100E60002829292A2B2C2D2D2E2F303132323334A4
:100E700035363738393A3B3C3D3E3F4041424344AA
:100E800045464748494A4C4D4E4F5051535455568C
:100E900058595A5B5D5E5F616264656668696B6C38
:100EA0006D6F7072737577787A7B7D7E80828385B3
:100EB00087888A8C8E8F91939596989A9C9EA0A2F3
:100EC000A3A5A7A9ABADAFB1B3B5B7BABCBEC0C2FD
:100ED000C4C6C9CBCDCFD1D4D6D8DBDDDFE2E4E7C1
:100EE000E9EBEEF0F3F5F8FAFDFF7267626C696703
:100EF00068742073657420687376205B4E4F454597
:100F000050524F4D5D3A2025752C25752C25750ABC
:100F1000007267626C696768742073657420687317
:100F200076205B454550524F4D5D3A2025752C2566
:100F3000752C25750A007267626C69676874206D8C
:100F40006F6465205B4E4F454550524F4D5D3A20D2
:100F500025750A007267626C69676874206D6F643A
:100F600065205B454550524F4D5D3A2025750A007E
:100F7000646973706C61795F736574757032206633
:100F800061696C65640A0000DA1281FFD9F1DB2027
:100F9000A4A62EAF646973706C61795F666C69702A
:100FA000706564206661696C65640A0000A0C0D346
:100FB000006F6C65645F696E697420636D64206E98
:100FC0006F726D616C20726F746174696F6E2066F0
:100FD00061696C65640A0000A1C8D3006F6C656428
:100FE0005F696E697420636D6420736574203120BD
:100FF0006661696C65640A0000AED580A83F408DCB
:101000001420007267626C696768745F636F6E6654
:1010100069672E7370656564203D2025640A00723F
:1010200067626C696768745F636F6E6669672E7666
:10103000616C203D2025640A007267626C696768F4
:10104000745F636F6E6669672E736174203D20253F
:10105000640A007267626C696768745F636F6E66CA
:1010600069672E687565203D2025640A00726768EF
:101070006C696768745F636F6E6669672E6D6F6415
:1010800065203D2025640A007267626C6967687498
:101090005F636F6E6669672E76656C6F63696B65FB
:1010A00079203D2025640A007267626C6967687464
:1010B0005F636F6E6669672E656E61626C65203D69
:1010C0002025640A007267626C696768745F636FE9
:1010D0006E66696720454550524F4D3A0A00726767
:1010E000626C696768745F696E6974207267626CAC
:1010F000696768745F636F6E6669672E6D6F64659C
:10110000203D20302E205772697465206465666129
:10111000756C742076616C75657320746F2045451D
:1011200050524F4D2E0A007267626C696768745F97
:10113000696E6974207374617274210A0072676247
:101140006C696768742064697361626C65205B4ECA
:101150004F454550524F4D5D3A207267626C69674A
:1011600068745F636F6E6669672E656E61626C6539
:10117000203D2025750A0054617267657420636FF5
:101180006E6E65637465640D0A0054617267657400
:1011900020646973636F6E6E65637465642C20747C
:1011A00068726F74746C696E6720636F6E6E6563CE
:1011B00074696F6E20617474656D7074730D0A00CC
:1011C0000A0025303862003A200025303258000AE3
:1011D000722F632030313233343536370A006C6574
:1011E000645F7461736B3A20253032580A0046619F
:1011F000696C656420746F2065786563757465201B
:1012000025730A00000000000500130009001A0001
:1012100014002800000000000A00174416221521BF
:1012200004242D00000000001900074206001B00E6
:101230001D00E3002B462C4529004F000000500004
:1012400000000000000000000D000F0018001C004E
:1012500033002D02000000001000114308320C3151
:1012600012243400000000000E000B42360037004C
:101270003800010028002A224C4152000000510091
:101280000000000000000000460042004100400055
:10129000450001000000000047003F003E003D0007
:1012A000440039000000000048003C003B003A00C8
:1012B000430049000100010001000100000001009D
:1012C000000000000000000001000100010001001A
:1012D0000100007C000000000100AE00AC00AB008B
:1012E0000100027C000000000100A800AA00A90083
:1012F00001000100010001000100010000000100E7
:1013000000000000000000000100010001000100D9
:10131000010001000000000001000100161401009E
:101320001414010000000000010001000100010090
:1013300001000100010001000100010000000100A6
:101340000000000000000000010001001C1401006A
:101350000100010000000000010001002214010052
:101360001314010000000000010001000100010051
:101370000100010001000100010001000000010066
:1013800000000000000000002002260025002400CC
:10139000220201000000000025022300220021009B
:1013A0002E000100000000002E0220001F001E0081
:1013B000210201002B002C00270001000000010089
:1013C0000000000000000000010001000100010019
:1013D00033020100000000000100010001000100D3
:1013E00001000100000000000100010001000100F7
:1013F00001000100010001000100010000000100E6
:1014000000000000000000000100010001000100D8
:1014100001000100000000000100010001000100C6
:1014200001000100000000000100010001000100B6
:1014300001000100010001000100010000000100A5
:10144000000000000000000031021F022F023002E5
:1014500023020100000000002402340226022702B9
:101460001E02010000000000350235002F00300090
:101470003100010028002A004C000100000001009A
:1014800000000000000000000501130109011A011D
:1014900014010100000000002C0017016A226921DC
:1014A00068240100000000001901070106011B016A
:1014B0001D01010001000100010001000000010008
:1014C000000000000000000001004A0052004D0032
:1014D00001000100000000000100500051004F0019
:1014E0000100010000000000010001004B004E005F
:1014F00001000100010001000100010000000100E5
:1015000000000000000000000503130309031A0394
:1015100014030100000000000A031703160315035B
:1015200004030100000000001903070306031B0366
:101530001D03010001000100010001000000010085
:101540000000000000000000010001000100010097
:101550000100010000000000010001000100010085
:101560000100010000000000010001000100010075
:101570000100010001000100010001000000010064
:10158000000000000A002530325820006B657962A7
:101590006F6172645F7265706F72743A20253032C9
:1015A00058207C20004B4C3A2025732C207072650B
:1015B000737365643A2025752C2074696D653A2033
:1015C0002535752C20696E743A2025752C20636FA3
:1015D000756E743A2025750A007267626C696768D7
:1015E000742064697361626C65205B454550524F9D
:1015F0004D5D3A207267626C696768745F636F6EF5
:101600006669672E656E61626C65203D2025750AEE
:10161000007267626C6967687420656E61626C65F0
:10162000205B454550524F4D5D3A207267626C69B0
:101630006768745F636F6E6669672E656E61626C62
:1016400065203D2025750A007267626C69676874C1
:1016500020746F67676C65205B454550524F4D5D48
:101660003A207267626C696768745F636F6E66695F
:10167000672E656E61626C65203D2025750A004409
:10168000454255473A2064697361626C65642E0A6D
:101690000044454255473A20656E61626C65642E90
:1016A0000A0011241FBECFEFDAE0DEBFCDBF04B6C3
:1016B00003FE18C08091E6079091E707A091E80724
:1016C000B091E9078730904BA740B04B59F4109286
:1016D000E6071092E7071092E8071092E907E0E0AA
:1016E000F8E3099511E0A0E0B1E0ECEEFCE602C001
:1016F00005900D92AE3EB107D9F727E0AEEEB1E00E
:1017000001C01D92A63EB207E1F70E943C2A0C944C
:101710002F360C940000FF93EF93E091EE01F091CF
:10172000EF01309709F00995EF91FF910895FC01C1
:101730008591803011F0EFDFFBCF0895FF27E0E2C5
:1017400030E247FF0CC0419597FF09C0EDE260957C
:10175000709580959095611D711D811D911D27FFCC
:1017600002C0219530E350E2AA27660F771F881F39
:10177000991FAA1FA41710F0A41B63955A95A9F7E7
:10178000AA3008F0A95FA05DAF93F39561157105CC
:101790008105910541F7ED3211F4EF93F395F217BE
:1017A00018F43F93F395FBCF8F91B5DFFA95E1F7EE
:1017B0000895E991F9918591803021F0853219F0F1
:1017C000AADFF9CF089520E0E89455915532C1F38E
:1017D000503311F4689455915A3348F4505390F3B0
:1017E000220F022E220F220F200D250FF4CF0EF410
:1017F000219589919991533619F3533729F153352E
:1018000059F1BC0188279927E8945C3621F4899125
:10181000999168945591543639F446EF7EF077FFEC
:101820000DC08FEF9FEF0AC055374AE039F05835A9
:1018300040E121F0523642E009F00895FF93EF9322
:101840007DDFEF91FF91B7CFFF93EF93FC01819183
:101850008030B9F360DFFBCFFF93EF9368DFF1CF08
:10186000DF93CF93CDB7DEB72596A3DFCF91DF917E
:1018700008959C01FB019A9581159F4120F5832FC6
:101880008170B32FB270AA27732F74706627532FFD
:101890005870442734FF0DC08295807FAB2B09F030
:1018A0008062672B09F08064452B09F080680995F8
:1018B0000895AB2B09F08260672B09F08460452BFB
:1018C000B1F38860F4CF80E0F2CF982F969596958B
:1018D00022E0911102C020E0982F892F8695820F77
:1018E00008958295982F990F990F9C7C86958695DF
:1018F0008373982B892F880F8A7A96959575892BF3
:1019000008959093A1078093A00708959093A3074B
:101910008093A207089521E030E002C0220F331F18
:101920008A95E2F78091A2079091A307822B932BCF
:10193000EDCF21E030E002C0220F331F8A95E2F79D
:10194000209530958091A2079091A307822393233D
:10195000DDCF282F292B283068F528E0929FF00151
:101960001124E80FF11D877041E001C0440F8A95F2
:10197000EAF783E0F695E7958A95E1F7EE0FFF1F0A
:10198000EE0FFF1FE25BF84F80E090E070E05191B6
:10199000DF019B01082E02C0369527950A94E2F7D5
:1019A000217021952527242325272E930196843005
:1019B000910569F70895292F282B283060F528E034
:1019C000929FF0011124E80FF11D982F977083E08A
:1019D000F695E7958A95E1F7EE0FFF1FEE0FFF1FD3
:1019E000E25BF84F40E050E080E0219130E0092ECA
:1019F00002C0369527950A94E2F721703327042E0A
:101A000001C0220F0A94EAF7822B4F5F5F4F4430E8
:101A1000510559F7089580E0089580914D0790E0B1
:101A200020E0022E001C0008281709060CF008957B
:101A30002F5FF7CF8091A6079091A507981301C05B
:101A400008958F5F8770FACF962F972B9830B0F458
:101A50008730B8F498E0899FF0011124E70FF11D59
:101A600083E0EE0FFF1F8A95E1F7E60FF11DEE0F01
:101A7000FF1FEC5FFD4E85919591089580E090E009
:101A8000089581E0FCCF803E9105D9F1C8F48133FF
:101A9000910509F482C048F48932910509F472C0B5
:101AA0008A32910509F480C0089589339105E9F0DF
:101AB00082389105D1F08533910509F45EC008950F
:101AC000843E9105D9F148F4823E910539F1833E77
:101AD000910549F181EE90E00895863E9105C9F1A6
:101AE000873E910509F43EC0089520919D0723701B
:101AF000211164C020919E0723FF14C089E290E069
:101B0000089520919D0720FD45C030919E0730FF2C
:101B100009C024FD24C083EE90E0089520919D0724
:101B200022FDF7CF089520919D0722FD44C03091FA
:101B30009E0730FD43C024FFF5CF11C020919E07C2
:101B400021FFF0CF80919D0784FD09C087EE90E0D2
:101B5000089520919D0723FFE5CF24FFF7CF80E074
:101B600090E0089520919D0723FD2BC030919E07A2
:101B700031FFE1CF84EE90E0089520919D0725FF8D
:101B8000D1CFBCCF20919D0725FD1EC020919E077F
:101B900023FFC8CF89E390E0089520919D0726FF99
:101BA000C1CF8AE290E0089520919D0726FFBACF29
:101BB00081E390E0089582EE90E0089580EE90E059
:101BC000089586EE90E0089585E390E00895909161
:101BD0009D0792FF10C041E0282F2471243009F0A6
:101BE00040E031E0282F2871283009F030E0431719
:101BF00011F02CE0822793FF10C041E0282F2471C0
:101C0000243109F040E031E0282F2871283109F013
:101C100030E0431711F02CE0822730919E0730FF0F
:101C200010C051E0282F2171213009F050E041E02F
:101C3000282F2871283009F040E0541711F029E0CE
:101C4000822731FF10C041E0282F2171213109F096
:101C500040E031E0282F2871283109F030E04317A7
:101C600011F029E0822794FD877E08951F93CF937A
:101C7000DF9309DFEC01811522E5920708F044C0EB
:101C8000811540E5940708F0B5C0883E9105E0F461
:101C9000803E910560F4853A910570F4049738F41C
:101CA00081E0219709F080E0C82F50E0D52FCE01C8
:101CB000DF91CF911F9108958D5C9109D065439775
:101CC000B0F3C0E0D0E0F3CFC11580E4D80798F4BA
:101CD000C11590E2D90708F0A3C0CE019A958115ED
:101CE0009F4178F78D2F73DF182FCE019927CBDE18
:101CF000EC01D12BDCCFCE019927C5DECC27DF70DC
:101D0000C82BD92BD06AD3CF803842E59407C8F5C9
:101D1000803652E5950708F058C0C03482E5D807F0
:101D2000D0F4C03292E5D90708F048C08C2F8695D0
:101D3000869520E2829FC0011124C37021E030E02B
:101D4000A90102C0440F551FCA95E2F7EA01C82B4A
:101D5000D92BDD68ACCF8C2F86958695877050E2A5
:101D6000859FC0011124C37021E030E0A90102C0A9
:101D7000440F551FCA95E2F7EA01C82BD92BDC683E
:101D800096CF803C52E5950768F4C03A82E5D807C3
:101D900008F497CF8C2F8F711ADFC82FD0E0DC2F7B
:101DA000CC2785CF805C9245809708F08ACFDC2FC6
:101DB000CC27CC27DF71C06FD06A79CFCF71D0E04C
:101DC000DC2FCC27C16FD06A72CF8695869587703D
:101DD00020E2829FC0011124C37021E030E0A901FC
:101DE00002C0440F551FCA95E2F7EA01C82BD92B50
:101DF000DA685DCF8F71EBDE93E0CC0FDD1F9A9533
:101E0000E1F7CC27DF70282F30E084FF05C050E1D8
:101E1000859F900111243327C22BD32BD06947CF44
:101E20008D2F8F71D4DE182FCE0199272CDEEC0177
:101E3000D12BD0623CCFA0E0B0E0E1E2FFE00C9417
:101E400047358C01E090A207F090A3078091A0078E
:101E50009091A107E82AF92ACFE0D0E0CC24C394DE
:101E6000D12CC6010C2E02C0880F991F0A94E2F7EC
:101E70008E219F21892B49F4219798F7B12C8B2D26
:101E8000CDB7DEB7E9E00C946335BC2EB8018C2FDA
:101E9000DBDDECDE019781F3F2CFCF93DF93D82F18
:101EA000C92FC9DF6D2F7C2FCFDDE0DEDF91CF9111
:101EB0000895FC018481811599F080819181EDDF85
:101EC000282F92959F70963099F060F4925F9F70E2
:101ED000923030F4203FB1F038F481E0283E38F001
:101EE00080E008959A5FF3CF81E0243FC9F7089519
:101EF00091E0213F09F090E081E0283E08F080E089
:101F0000892B089581E00895F894E82FE295EF7009
:101F1000F0E041A18F7021E030E0B90102C0660F0E
:101F2000771F8A95E2F7CB01962F9095942391A382
:101F300092A1892B82A37894089581E08093F6067C
:101F40000895CF938091940780FF03C0F7D5CF9178
:101F50000895C0910D0180910E01C817B8F78091C6
:101F60000B019C2F981B892F20E040E060E090E05F
:101F700065D0CF5FF0CF9091DC06292F30E07091D3
:101F8000DD06A9014F5F5F4F437055277417150693
:101F900089F02652394F60FB87F9F90184839F5FEE
:101FA00093709093DC068091DA068F5F8093DA0657
:101FB00081E0089580E0089590E06115E9F0805F88
:101FC0009E4FFC0180818F3FB1F0E82FE295EF70CA
:101FD000F0E041A18F7021E030E0B90102C0660F4E
:101FE000771F8A95E2F7CB01962F9095942391A3C2
:101FF00092A1892B82A308958F5E9E4FE2CF90E03D
:102000006115A9F0805F9E4FFC0120812F3F91F068
:10201000E22FE295EF70E05EF0E0808190E02F70BB
:1020200002C0959587952A95E2F7817008958F5E95
:102030009E4FEACF80E00895539A0895FC01EE0F79
:10204000FF1FE80FF91FE65DFD4F61834083228388
:102050000895FC01680F791F8FEF41E39191892763
:1020600028E030E0982F990F87FF09C0892F842737
:1020700021503040B9F7E617F70781F70895892F07
:10208000F7CFFF920F931F93CF93DF93382F492FF2
:10209000F62E1092290209E212E026E0C62F660F02
:1020A000DD0B832F942FBE010E942A35A32FB42F5E
:1020B000362F472F8A30A8F4805D922F2150F801E7
:1020C00082938F01AC17BD0770F02111EACF822FE8
:1020D000220F990B8D5D9D4FCDB7DEB7E5E00C94D7
:1020E0006735895CEACFF0E1FF12F1CF22307CF353
:1020F000EEEFE90F0E2E000CFF0BED5DFD4F88E7B4
:1021000080832DEF290FE22F022E000CFF0BED5DD7
:10211000FD4F80E38083DBCFCF93DF93BC01E09161
:102120008E07AE2F0E2E000CBB0B80E0282F082E42
:10213000000C330BAD01420F531F4F31510530F4EA
:10214000260F371FE901988191110CC0E80FE09329
:102150008E070E2E000CFF0BE259F84F1082DF9114
:10216000CF9108954259584FEA0198838F5FDECF8F
:10217000AC0180918E07682F082E000C770B90E041
:10218000E92F092E000CFF0B9B012E0F3F1F2F3153
:10219000310558F0E82FE90FE0938E070E2E000C62
:1021A000FF0BE259F84F10820895E40FF51FE491F8
:1021B000E11581F32259384FD901EC939F5FE0CFAD
:1021C000E0918E07EF3170F4AE2F0E2E000CBB0B9A
:1021D000A259B84F8C93EF5FE0938E07F0E0E2597D
:1021E000F84F108208954DDF97CFCF93DF93D62F0E
:1021F000C72FBEDF88E2E4DF8D2F9C2F8DDF89E2C1
:10220000DFDFDF91CF910895CF93DF93D62FC72FD4
:10221000AFDF6AE08D2F9C2FE6DFDF91CF9108952D
:102220000F931F93CF93DF93EC0129E037E080E019
:1022300090E0F90145915591C417D50759F50196DC
:10224000880F991FFC01E75FF84F45915591FC01FC
:10225000E55FF84F25913591835F984FFC0185919B
:10226000959150931C0240931B024FE540931D0231
:1022700030931F0220931E0290932102809320022C
:10228000109222028BE192E047DFDF91CF911F9104
:102290000F9108950496285F3F4F8839910509F002
:1022A000C8CFC11521E0D20708F05DC0C336D10503
:1022B000E0F4CE01C935D10508F04BC0C832D105D4
:1022C00058F4CE31D10508F03AC004974A9780F10E
:1022D00060E1CE0188DFD9CFCA970C97C8F7BE015D
:1022E0006953710982EA98E032C0C437D10548F4D5
:1022F000C836D10568F3BE016B5571098DE998E0C8
:1023000026C0CE01805E9109089710F7C05E86EC6A
:1023100098E02EDF82E5C43008F48CE451DFC3700E
:10232000E4E0CE9FC00111248A54974F21DFADCF46
:1023300082EB98E01DDF8C2F835C42DFA6CF4D97A8
:102340006AE070E00E942A35BC018EEA98E05CDF0A
:102350009CCF885591096AE070E00E942A35BC0143
:1023600087EA98E0F4CFC03EF2E5DF0708F064C0EA
:10237000C03C22E5D20708F0FCC0C03282E5D80795
:1023800008F039C0C11592E5D90708F0E4C0C115BD
:10239000E0E5DE07B8F4C115F0E4DF0708F0B6C0E9
:1023A0001D2F1F70C11520E2D20708F48AC0111139
:1023B000E9C01D2F1F718BE698E0DADE60E1812F06
:1023C00090E0ACC085E998E0D3DE6AE0CE0125E07C
:1023D000969587952A95E1F78F70992704DF8CE20F
:1023E000EFDE1C2F1F7011119CC0CF7160E18C2F8C
:1023F00090E0F9DE85C0C03682E5D80770F4CE01E2
:102400008F7199276AE0C034D24508F0ADC039DE3B
:10241000BC018FE898E0E9DE38CFCE0180569245C6
:10242000809708F055CF6AE0CE018F71992729DE99
:10243000BC0189E898E0EFCFC032F7E7DF0730F55D
:10244000C11527E7D20708F0CAC0C11588E5D8072B
:10245000A0F4C11597E5D90708F0B9C0CE01805E98
:102460009245809708F034CF6AE0CE018F719927AA
:1024700008DEBC0182E898E0CECFBE0170578AE446
:1024800098E06332710508F462CF22CFBE01C032FA
:10249000EEE7DE0768F4C115FEE7DF0708F0A4C029
:1024A0007C578EE398E06C37710508F450CF10CF5D
:1024B00060547E4784E598E06032710508F447CFA8
:1024C00007CF111509F404CF212F30E0C90101977E
:1024D00081239323892B09F0FBCE812FF6D924E0A9
:1024E000829F800111240A54174FD4FF0BC082E54C
:1024F00067DEC8013DDE88E263DECE01992790DE0B
:1025000089E21BCFF80184915BDEF5CF89E998E081
:102510002FDE8D2F99276AE08F70992764DE8CE279
:10252000EBCF212F30E0C901019781239323892B21
:1025300009F05BCF89E398E01BDE82E5C4FF8CE401
:102540003FDE812FC2D9F4E08F9FC00111248A544D
:10255000974F0EDED5CF6AE0CE018F71992791DDBE
:10256000BC0182E998E057CF8CDDBC018CE898E093
:1025700052CF6AE0CE018F71992783DDBC0186E8D6
:1025800098E049CF212F30E0C9010197812393239F
:10259000892B89F482E5D4FF8CE412DE812F95D952
:1025A000E4E08E9FC00111248A54974FE1DD8EE74D
:1025B00098E0DEDDA2CF1D2F1F711F3019F486E7D2
:1025C00098E0F7CF8FE698E0173099F3F4CE6AE001
:1025D0008C2F90E056DDBC0188E698E01CCFBE0150
:1025E000775784E698E0B3CE7E578DE598E0AFCE7E
:1025F00080912B07811569F0E0913307F091340742
:10260000309739F00190F081E02D309711F0099565
:10261000089580E008959C01FC0132968FEF90E0D0
:102620004191461751F08F3F19F4411101C0892F94
:102630009F5F9630A9F78F3F09F40895280F311D49
:1026400087FD3A95F901628308959C01FC01329659
:10265000285F3F4F8191861302C0DF011E92E2176F
:10266000F307C1F708958091080108952FB7F894F2
:1026700060911702709118028091190290911A02CC
:102680002FBF08950F931F9380912B07811521F081
:10269000EDDF1F910F910895E9DF00912D07109153
:1026A0002E0720912F0730913007600F711F821F76
:1026B000931FEFCF089508950895FC019B01809129
:1026C0000B0290910C028617970740F0672B29F4B4
:1026D0008091E8008E778093E800C90140E0009780
:1026E00041F4411106C08091E80082FF2FC080E0D4
:1026F00008952091A8022115A9F12530A9F1209172
:10270000E80023FD2DC02091E80022FDECCF2091B0
:10271000E80020FFE4CF3091F3002091F200009711
:1027200019F02830310558F041E02830310509F022
:1027300040E02091E8002E772093E800D0CF41912F
:102740004093F10001972F5F3F4FE9CF8091A8029E
:10275000811541F0853041F08091E80083FFC3CFBF
:1027600081E0089582E0089583E008958091050254
:1027700087FF13C08091E80082FF06C08091E800C7
:102780008B778093E80008958091A8028111F2CFA1
:1027900008958091A8028115D9F38091E80080FF07
:1027A000F8CF8091E8008E77ECCF2091E400309153
:1027B000E50095E6A9012091EC00822F817020FFB1
:1027C00006C08091E80080FF06C080E00895209157
:1027D000E80022FD1AC08091A802811589F0853099
:1027E00089F08091EB0085FD0FC02091E4003091CD
:1027F000E50042175307F9F29A95E1F684E008954F
:1028000082E0089583E0089581E00895E8EDF0E026
:1028100080818E7F80831092E2001092DA00109205
:10282000E100A0EEB0E08C9181608C9380818F7785
:10283000808319BCA7EDB0E08C918E7F8C93808152
:102840008F7E8083109204020895FC018091E3073B
:10285000813059F48481813041F48091E0078330E4
:1028600030F0845092E5833018F081E008959CE4C4
:102870008181833048F0845022E58330B0F781E0D5
:102880002913F4CF80E008952CE4F9CF982F90938A
:10289000E900891771F07091EC002091ED005091E2
:1028A000F00021FD09C09F5F973089F78093E90010
:1028B0000895762F242F50E03091EB003E7F309327
:1028C000EB003091ED003D7F3093ED003091EB0057
:1028D00031603093EB007093EC002093ED00509347
:1028E000F0002091EE0027FDDECF0895A0E0B0E0DB
:1028F000ECE7F4E10C944835C8EDD0E088818F7E98
:102900008883E7EDF0E080818160808384E082BF8E
:1029100081E08093040288818E7F888302EE10E03C
:10292000F80110821092DA0081EEC82ED12CF60147
:10293000108288818F7788838881806888838881E6
:102940008F7D888319BC1092A80210920302109206
:1029500002021092010290EEE92EF12CF701808123
:102960008B7F808388818160888342E060E080E0A3
:102970008DDFF60180818E7F8083F8018081816008
:102980008083808188608083F70180818E7F80834F
:10299000888180618883CDB7DEB7E8E00C94643528
:1029A000E091A6079091A50727E0E91302C080E017
:1029B0000895AE2FB0E02E9FF0011124E955F84F95
:1029C0003181361306C03081381303C0358134138A
:1029D00004C0FD013196E770E8CF81E008951F93B0
:1029E000CF93DF93182FD92F611589F0411579F016
:1029F00022DAC82F682F812F9D2F0E94A90C612FEA
:102A00007D2F8C2F21D8DF91CF911F9108950E94A7
:102A1000DB0CC82FF4CFFC01462F658180819181AA
:102A2000DECF9C01223184E2380709F150F42631CF
:102A300082E2380791F024303442E1F48AEF90E0EA
:102A400008952B3082E4380741F050F4283082E3B7
:102A5000380719F02730324469F48FEA90E008957E
:102A6000213183E43807C9F327313444F5CF8CE2B0
:102A700091E0089588EC90E008959FB7F894109243
:102A80000E029FBF9091A802943009F047C0209198
:102A9000E9009091EC002F70979599279795922BCC
:102AA00022E02093E9002091EB0020FF34C0209128
:102AB000EE0027FF30C020910D02211521F020915A
:102AC000E80025FF28C010920D0226E03091E800B2
:102AD00035FF14C08093F1008091E80085FD27C088
:102AE0008091E80080FFFCCF8091E8008E77809392
:102AF000E8009F709093E90080E008953091A8026B
:102B0000343049F43091EB0035FD05C02A9541F48D
:102B100081E080930D029F709093E9008FEF0895FC
:102B2000EFE9FFE03197F1F700C00000CFCF8FB79A
:102B3000F89421E020930E028FBFDBCF3BB1377FAB
:102B40002BB128604FB7F8948AE292E0FC0101961D
:102B5000508168E02BB9000000C057FF3BB9550F0A
:102B6000000000C000C000C03BB900C06A9591F7EA
:102B700052E08636950751F74FBF8FE594E00197F5
:102B8000F1F700C0000008950F931F93CF93DF93D8
:102B9000EC018091A802843041F581E08093E90046
:102BA0008FEF9091E80095FD06C095ED9A95F1F7AD
:102BB00000008A95B1F78091E80085FF16C0F5DD29
:102BC00081110EC008E010E08091E80085FD12C080
:102BD0008091E8008E778093E800E7DD8115A1F30E
:102BE0008091E8008E778093E800DF91CF911F916C
:102BF0000F91089589918093F1000150104021F7C1
:102C0000EFCFCF93DF93D82FC92FBEDF88E0ED2F12
:102C1000FC2FAFE0B2E001900D928A95E1F7DF91D1
:102C2000CF910895A0E0B0E0E8E1F6E10C944335DF
:102C3000E82E992E862E772E042FF52E690180918D
:102C400008079AE0A92EB12C8A3018F0AA24A39480
:102C5000B12CC1E0D0E0682D772D8E2D992DF60195
:102C60000995182F811126C02196AC16BD0694F047
:102C7000CC9FC001CD9F900D900D112420E030E03D
:102C800045E34A95F1F700002F5F3F4F28173907BA
:102C9000B9F7E1CF80919C0780FF0CC0FF920F93A2
:102CA0008EEE91E19F938F930E94300C0F900F90C6
:102CB0000F900F90812FCDB7DEB7EDE00C945F350C
:102CC0000F931F93CF93DF9380919F079091A40759
:102CD000892B8093F00148E050E065E377E080EFD6
:102CE00091E00E94D935892B09F450C088E0E0EFCB
:102CF000F1E0A5E3B7E001900D928A95E1F7E0914C
:102D00003307F0913407309709F440C00280F38113
:102D1000E02D3097D9F180EF91E0099580919C07E3
:102D200082FF34C080FF0EC08091F0011F928F930C
:102D30008CE895E19F938F930E94300C0F900F9039
:102D40000F900F90C0EFD1E006E815E180919C074D
:102D500080FF0BC08A811F928F931F930F930E9455
:102D6000300C0F900F900F900F90219681E0C63F8E
:102D7000D80761F780919C0780FF08C084E895E13F
:102D80009F938F930E94300C0F900F90DF91CF9103
:102D90001F910F91089510929F07E2EFF1E086E0F6
:102DA000DF011D928A95E9F71092A40789CFF3DF1E
:102DB0002FEF84E39CE0215080409040E1F700C079
:102DC000000088E19CE00FB6F894A895809360001D
:102DD0000FBE90936000FFCFCF93DF93D82FC92F02
:102DE00020914D07283010F0D6DF20E0E22FF0E0F0
:102DF000EE0FFF1FE35CF84FD083C1832F5F20935A
:102E00004D07DF91CF910895AAE2B0E0EAE0F7E143
:102E10000C944D3585E092E0FC0101962091F10083
:102E2000208322E08D309207B9F780910602893025
:102E300009F457C0C8F4823009F4B1C0833009F4F2
:102E400081C0813081F18091E80083FFE5C08091ED
:102E50000502909106029A3008F0DEC0E92FF0E0FA
:102E6000EF5CF94C0C9494358A3009F488C08B30AF
:102E700051F780910502813231F7809109029091DA
:102E80000A02892B01F78091E800877F8093E80090
:102E90006DDC81E090910702911101C080E0809388
:102EA000090179DFD0CF80910502813A61F68091E6
:102EB000E800877F8093E8008091090290910A02E0
:102EC000892B59F060E080E090E070E0F6DB8091C3
:102ED000E8008B778093E800B6CF68E08FE092E05F
:102EE000F4CF80910502813209F0ADCF80910902C3
:102EF00090910A02892B09F0A6CF8091E800877F84
:102F00008093E8008091E80082FF17C09091F30061
:102F10008091F200029731F48091F100813011F03C
:102F2000863021F48091F100809308018091E800BF
:102F30008B778093E8001ADC86CF8091A8028111FC
:102F4000E1CF81CF80910502813A09F07CCF809159
:102F5000090290910A02892B09F075CF8091E8004F
:102F6000877F8093E8008091E80080FFFCCF80910C
:102F700009018093F1008091E8008E77DACF80918B
:102F80000502813209F05FCF8091E800877F80934E
:102F9000E800ECDB809108028093070154CF809118
:102FA0000502813A09F04FCF8091E800877F809336
:102FB000E8008091E80080FFFCCF80910701D9CF25
:102FC000803889F0823841F5809109028F7087300E
:102FD00018F58093E9008091EB0085FB882780F944
:102FE0001092E90006C080910202880F90910102C0
:102FF000892B9091E800977F9093E8008093F100EF
:103000001092F1008091E8008E7723C0811116C0E4
:1030100080910702813009F18091E80083FF0AC0A6
:103020008091E800877F8093E8008091EB008062C8
:103030008093EB00AA96E3E00C946935823061F747
:1030400080910702811581F01092E9008091E800DB
:10305000877F8093E8008ADBDFCF81E0933009F03F
:1030600080E080930202F0CF809109028F702FEFF1
:10307000280F263088F68093E9002091EB0020FF8E
:10308000E3CF933031F48091EB0080628093EB00CA
:10309000DBCF9091EB0090619093EB0021E030E06A
:1030A000A90102C0440F551F8A95E2F74093EA0038
:1030B0001092EA008091EB008860E8CF8111ACCFDC
:1030C000109107021F778091E3008078812B809315
:1030D000E3008091E800877F8093E80047DB8091E0
:1030E000E80080FFFCCF8091E30080688093E300DC
:1030F00083E0111101C082E08093A8028DCF805837
:10310000823008F089CF20910702309108022C3DCF
:1031100053E0350791F583E08A838AE289834FB7CC
:10312000F894DE01139620E03EE051E2E32FF0E058
:1031300050935700849120FF03C082958F703F5FAA
:103140008F708A30C0F0895C90E08D939D932F5FE3
:10315000243161F74FBF8091E800877F8093E800BA
:103160006AE270E0CE010196A8DA8091E8008B77E0
:103170008093E80051CF805DE7CF832F992783307C
:10318000910529F160F48130910509F475C0029729
:1031900009F042CF8BE390E0E2E7F6E02CC020910B
:1031A000090230910A028132910509F459C08297CF
:1031B00009F032CF2115310509F468C021303105FD
:1031C00009F02ACF85E190E0E9E1F6E014C0C901F9
:1031D00099272130A9F182309105D1F1892B09F08D
:1031E0001BCFE1EFF6E0E4918E2F90E0E1EFF6E007
:1031F000009709F411CF2091E800277F2093E80081
:1032000020910B0230910C028217930708F49C0165
:1032100040E02115310509F03EC041113CC08091CC
:10322000E80082FDA2CF8091A802811509F49DCF0C
:10323000853009F49ACF8091E80083FFF0CF95CFD5
:10324000E7EDF6E0E4918E2F90E0E7EDF6E0D0CFE9
:10325000EFEBF6E0E4918E2F90E0EFEBF6E0C8CFD5
:103260002115310571F02130310509F0D5CE89E005
:1032700090E0EDE9F6E0BFCF82E190E0EDEAF6E024
:10328000BACF89E090E0E4E8F6E0B5CF84E490E0DE
:10329000EEE2F6E0B0CF8091A802811509F465CF87
:1032A000853009F462CF8091E80083FD5ECF809184
:1032B000E80082FDB4CF8091E80080FFAACF909112
:1032C000F3008091F2002115310519F08830910545
:1032D00050F041E0089709F040E08091E8008E77D7
:1032E0008093E80096CF44914093F10031962150AD
:1032F00031090196E8CF803809F08ECE8091E80040
:10330000877F8093E800809103028093F1007ACE5A
:10331000811182CE10910702123008F07DCE80918B
:10332000E800877F8093E800109303021FDA1115ED
:1033300099F084E08093A80242E061EC81E0A6DA93
:1033400042E261EC82E0A2DA8091A802843051F47A
:1033500082E080930A0160CE8091E30087FDE9CF8F
:1033600081E0E8CF81E0F5CFCF93C82F811599F0A8
:103370008CEF8C0F813A88F4E2EFF1E088EF91E076
:103380002191C217D9F08E179F07D1F76C2F80EFCC
:1033900091E041D995DCCF91089580E28C0F88307F
:1033A000D0F7C77021E030E001C0220FCA95EAF7DC
:1033B00080919F07822B80939F07ECCF6C2F80EF2B
:1033C00091E043D97DDCE2CF682F811541F08CEF8D
:1033D000860F813A28F480EF91E037D971CC0895B7
:1033E00080E2860F8830D8F7677081E090E001C0F6
:1033F000880F6A95EAF7809590919F0789238093BB
:103400009F07ECCF1F93CF93DF93182FEB01ACDF17
:10341000209731F4812FD8DFDF91CF911F9108954C
:103420008FE99FE00197F1F700C000002197F0CFEE
:1034300080E09091DD062091DC06291731F1E92F1B
:10344000F0E0E252F94F808187FB222720F98F7745
:103450009F5F93709093DD069091DB069F5F909342
:10346000DB06811549F0813071F460E070E08EE494
:10347000211108C08BE406C060E070E089EA2111E8
:1034800001C08AEABFDF81E0D4CF0895811531F011
:1034900090919F07892B80939F0712CC08958115E7
:1034A00039F0809590919F07892380939F0708CCDE
:1034B0000895811531F09091A407892B8093A4077A
:1034C000FFCB0895811539F080959091A407892349
:1034D0008093A407F5CB0895A0E0B0E0E2E7FAE11D
:1034E0000C944835FA0169017801C82F880FDD0B6B
:1034F0003097B9F0DE0193E0AA0FBB1F9A95E1F770
:10350000A75DBE4F11968D919C911297875F984F42
:103510002C91422F50E0E217F10508F4AF010E9410
:10352000E635CE010E94BC34182F8115D9F0E11484
:10353000F104C1F083E0CC0FDD1F8A95E1F7FE01B5
:10354000E75DFE4F8381482F50E0E816F10408F450
:10355000A701C75DDE4F6C817D81675F784FC60133
:103560000E94E635812FCDB7DEB7E8E00C946435D4
:10357000A1E0B0E0EEEBFAE10C943E35762E4A0184
:103580005901680101E010E09E012F5F3F4F40E0CC
:1035900050E060E070E0A0DF182F8115A9F1F40180
:1035A000208031804280538061D86980621973091C
:1035B00084099509643671058105910530F4B701D8
:1035C000C6010E9429108615F9F08701950140E097
:1035D00050E060E070E0872D7FDF082FB701C60163
:1035E0000E94291010E086110AC0102F117000FFF0
:1035F00006C03CD8F4016083718382839383812F5A
:103600002196E2E10C945A35A701B601C5010E944A
:10361000E635F5CFA4E0B0E0E0E1FBE10C944835FD
:103620006B0184E0E82EF12C0AE017E09E012F5F89
:103630003F4F44E057E061E080E09ADF811561F0A0
:1036400049815A816B817C81409300075093010727
:1036500060930207709303074091000750910107A0
:103660006091020770910307F601408351836283E2
:1036700073832496E8E00C9464354F925F926F92C6
:103680007F92AF92BF92CF92DF92EF92FF920F9311
:103690001F93CF93DF93F82EEB01A42ED22EE32EAF
:1036A000B02EC12E488059806A807B800E943613DC
:1036B00064197509860997096436710581059105B4
:1036C00010F4A11491F000E010E020E030E04B2D68
:1036D0005C2D6D2D7E2D8F2DFFDE811539F00E9422
:1036E0003613688379838A839B8381E0DF91CF914E
:1036F0001F910F91FF90EF90DF90CF90BF90AF9010
:103700007F906F905F904F9008950F931F93CF938A
:10371000DF93D82FC92F44E050E06EE077E00E949D
:10372000D93541E0892B09F440E004E010E02D2F69
:103730003C2F6CEF76E082E0A0DFDF91CF911F910C
:103740000F910895ABE0B0E0E8EAFBE10C944C3552
:1037500028E0E4E9F7E0CE010196DC0101900D924A
:103760002A95E1F7309191072091920750919307A4
:1037700039872A875B8741E09C01511101C040E0F5
:103780000BE010E06EEE76E087E077DF81111092BB
:1037900093072B96E4E00C946835A1E0B0E0E3EDEC
:1037A000FBE10C944C358091E906898320912A072E
:1037B00090E041E02817190609F440E001E010E02C
:1037C0009E012F5F3F4F6AEE76E088E056DF21963C
:1037D000E4E00C946835A8E0B0E0E1EFFBE10C9484
:1037E0004A3588E0E82EF12C03E117E09E012F5FB7
:1037F0003F4F48EF56E064E083E0BADE182F8115B2
:10380000B9F1909112078091F706981789F1F12C80
:103810009091160780911507891721F1E92FF0E0A3
:10382000E35FF84F828587FB662760F99F5F93709F
:1038300090931607909114079F5F909314078F77CA
:103840000E94BB0FF82E8111E3CF00E010E020E0D2
:1038500030E040E050E060E070E085E03DDE1F2DAC
:10386000182302C0F110F1CF809112078093F70660
:10387000812F2896E6E00C946635A4E0B0E0E3E4FE
:10388000FCE10C944835C090F206D090F306E0902D
:10389000F406F090F5060E9436136C197D098E0926
:1038A0009F0911E0643671058105910518F10E94A8
:1038B0004213DC01CB010296A11DB11D89839A83BD
:1038C000AB83BC8300E010E020E030E044E050E057
:1038D000BE016F5F7F4F86E0FFDD182F811551F02D
:1038E0000E9436136093F2067093F3068093F406F9
:1038F0009093F506812F2496E8E00C9464350F939D
:10390000CF93DF93C4E9D7E0488159816A817B81F5
:1039100088E090E00E941336288139814A815B81DA
:103920006C817D818E819F8100E20E94B535622F7E
:1039300083E290E00E940136DF91CF910F910895CC
:10394000E4E9F7E085E0808311828FEF828383834F
:103950001482E1E9F7E082818360828384E997E061
:10396000CECF80919807833018F48F5F80939807AB
:1039700084E997E0C4CF80919807811519F08150B0
:103980008093980784E997E0BACFA0E0B0E0EBEC31
:10399000FCE10C944335182FD62FA42E722EB09034
:1039A0009407B0FE5EC080919507811308C0809196
:1039B0009607861304C080919707841729F0809199
:1039C0009307826080939307EB2DE695E695F0E0F0
:1039D000EA53FE4F8081809391078B2D8C7F84303A
:1039E000A9F4EA2DF0E0E651F24FD1113FC0E49185
:1039F000CE2F0E2F9E2EB0FE09C0F0900D018091AB
:103A00000E01F81608F4A3C00E94A10F10939507A9
:103A1000D0939607A0929707711409F4A5C084E982
:103A200097E06DDF80919C0780FF1BC08091970716
:103A30001F928F93809196071F928F938091950785
:103A40001F928F9381E19FE09F938F930E94300C90
:103A50004DB75EB7485F5F4F0FB6F8945EBF0FBEBD
:103A60004DBFCDB7DEB7EDE00C945F35C12ED12C44
:103A70008D2E912CE491CE2F26E0129F70011124FF
:103A80002FEF30E0C701B9010E942A35CC0CDD1CB4
:103A900045E5469FC001479F900D1124C81AD90AD9
:103AA0008C2D880F8C0DA901481959094A01E89DF0
:103AB000A001E99D500D1124052FD89FD00111249C
:103AC000AB2FBB276901CA1ADB0AD601EA9F600146
:103AD000EB9FD00C1124D901A81BB109CD01D89FAF
:103AE000D001D99FB00D1124AB2FBB27C9018A1B70
:103AF0009B0BDC01EA9FC001EB9F900D1124992ED6
:103B000063307105D1F0ACEFEA16A3E0FA0658F481
:103B100061307105B1F06230710509F06CCFC52FCD
:103B2000092F9E2E68CF6430710571F066307105E3
:103B300009F461CF952E0D2D5ECF9D2CC52F0E2F34
:103B40005ACF9E2ECD2D57CFC92F952EF8CF8091CD
:103B50000B01BF2DB81B8B2F202F492D6C2F90E010
:103B60000E941E10F3944BCF80919C0780FF79CF69
:103B70001F92AF921F92DF931F921F938AEE9EE0D7
:103B80009F938F930E94300C8DB79EB708960FB607
:103B9000F8949EBF0FBE8DBF64CF8091940780FFC5
:103BA0002AC083708460809394078091930781601A
:103BB00080939307611501F184E997E0A0DE80917D
:103BC0009C0780FF10C080919407869586951F9270
:103BD0008F9384E59FE09F938F930E94300C0F900A
:103BE0000F900F900F9020E04091970760919607FB
:103BF00080919507CACE089580919C0780FFF3CFEE
:103C00001F9281E08F9386E39FE0E5CF8091940738
:103C1000869586958A9509F481E061E0BECFE4E956
:103C2000F7E0818121E043816281885FAECEE4E9E3
:103C3000F7E0818121E0438162818850A6CEE4E9EA
:103C4000F7E0628121E1620F08F46FEF21E0438128
:103C500081819BCEE4E9F7E0628121E1621B08F4F7
:103C600060E021E04381818190CEE4E9F7E0438187
:103C700021E1420F08F44FEF21E06281818185CE7E
:103C8000E4E9F7E0438121E1421B08F440E021E050
:103C9000628181817ACEAB0124E630E0BC0188E705
:103CA0000E94EB329C0181E0232B09F080E0089513
:103CB0008091AE068115B1F08091E906811591F0F1
:103CC00062E070E087ED90E0E6DF811109C082ECF0
:103CD00090E09F938F930E94300C0F900F90089567
:103CE0001092E90608958091AE06811539F10E947F
:103CF0003613DC01CB01805A9541AF4FBF4F809303
:103D0000AF069093B006A093B106B093B20680912F
:103D1000E906811113C062E070E080EC90E0BBDF47
:103D2000811109C08CEA90E09F938F930E94300C20
:103D30000F900F90089581E08093E90608958F9287
:103D40009F92AF92BF92CF92DF92EF92FF920F932A
:103D5000CF93DF9388E090E00E94F7354B015C0140
:103D6000C4E9D7E068839982AA82BB821C821D8243
:103D70001E821F8283E290E00E94EF35282F30E000
:103D800040E050E060E070E080E090E000E20E94FF
:103D90009A35282939294A295B29288339834A8376
:103DA0005B836C837D838E839F83DF91CF910F91A3
:103DB000FF90EF90DF90CF90BF90AF909F908F904B
:103DC0000895CF93DF93682F8091AB029091AC025E
:103DD0006A30B1F42091B3068D5A9240622F70E0A0
:103DE0000E942A35281B822F66E00E947535C82F55
:103DF000C15018F4DF91CF91089580E2E2DFF8CF4F
:103E00006D30D9F49C012D5A32404091B306642F95
:103E100070E0C9010E942A35481BC901840F911D19
:103E2000811524E0920710F080E090E083559D4FCB
:103E30009093AC028093AB02DDCF26E0FC01AAEFA9
:103E4000B1E001900D922A95E1F7603E08F458C068
:103E500026E0FC0111922A95E9F7C091AB02D091BE
:103E6000AC0246E050E0BE018AEF91E00E94D935F5
:103E70009E012D5A3240892B41F1C90146E09695A9
:103E800087954A95E1F741E050E0BA0102C0660F1C
:103E9000771F8A95E2F7CB016091A9027091AA027F
:103EA000862B972BB9016B5F7F4FE6E07695679580
:103EB000EA95E1F702C0440F551F6A95E2F7842B9B
:103EC000952B9093AA028093A9022A5F3F4F4091BD
:103ED000B306642F70E0C9010E942A35481B4630A2
:103EE00010F4240F311D211574E0370710F020E085
:103EF00030E023553D4F3093AC022093AB027ACF94
:103F0000F6E06F9FB001112467527F4F46E050E00A
:103F10000E94D035A2CFCF93DF93EC01FE018491B4
:103F2000811103C0DF91CF9108954BDF2196F6CF29
:103F30001F921FB61F9211248F939F93AF93BF932D
:103F40008091170290911802A0911902B0911A0263
:103F50004196A11DB11D8093170290931802A09362
:103F60001902B0931A02BF91AF919F918F911F9048
:103F70001FBE1F9018952FB7F8948091170290914B
:103F80001802A0911902B0911A022FBF0895CF9381
:103F9000DF93EC01F0DF8C1B9D0BDF91CF91089537
:103FA0002F923F925F926F927F928F929F92AF92E9
:103FB000BF92CF92DF92EF92FF920F931F93CF9316
:103FC000DF938091AE06811509F4A6C1C091A602C7
:103FD000D091A702D0DF8C1B9D0BC29708F46AC05A
:103FE000CADF9093A7028093A6028DEA92E0909395
:103FF000AC028093AB0280912B07811509F499C024
:1040000083E59DE088DF8CE49DE085DF85E49DE02D
:1040100082DF8DE39DE07FDF8091A2079091A3076F
:104020002091A0073091A107822B932BE92FFF2726
:10403000309719F5FC0180E09F01C4E03695279583
:10404000CA95E1F72115310511F08C5FF9019F0147
:1040500036952795369527952115310511F08E5FF8
:10406000F901F695E795E80F8AEF9CE0E73048F410
:10407000F0E0E55CF94C0C94943588E0DDCF85E305
:104080009DE049DF0E94F812C82F82EF9CE0C0FD3E
:1040900002C08AEE9CE03FDF82EE9CE0C1FD02C0E0
:1040A0008AED9CE038DF82ED9CE0C2FD02C08AEC24
:1040B0009CE031DF8091A9029091AA02892B09F43A
:1040C00013C18091AE06811509F40EC18091AD0631
:1040D00081110AC108DE2091A9023091AA0221159E
:1040E000310509F401C110E041E050E0812F90E07A
:1040F0001A01012E02C0220C331C0A94E2F7B1010E
:1041000062237323672B09F040C01F5FEFCF8DE25E
:104110009DE0B7CF81E29DE0B4CF8CE19DE0B1CFCF
:1041200087E19DE0AECF8DE09DE0ABCF85E09DE0E7
:10413000A8CF2091A9023091AA02ADEAB2E080E0B6
:1041400090E061E070E0FC01E653F74FE4914D919F
:10415000E41789F0ED01EA93AC01E6E05695479546
:10416000EA95E1F7EB0102C0CC0FDD1F4A95E2F7BB
:10417000AE012C2B352B01968115D4E09D0719F744
:104180003093AA022093A90295CF2091B40620FF74
:1041900088C0912F990F990F990F37E0390F80E060
:1041A00027E090930201809305013093030120934F
:1041B000060124E630E047E050E060E071E088E787
:1041C0000E94A232892B09F0B9C0E0E41E9FA00131
:1041D00011248091B40680FF6DC0E6E6F2E080E431
:1041E000DF011D928A95E9F7AEEBB1E006EB11E035
:1041F00086ECC82E81E0D82E97E0592E7724739450
:104200008D91E80129918E01240F352F311D235501
:104210003D4FE82FF0E0EA59FD4F80E090E0652C3B
:10422000681A872C082E01C0880C0A94EAF77901D5
:10423000A12CE701B9907E01B820662D6A1967703C
:1042400070E0DB2D062E01C0DD0F0A94EAF79D2EEB
:104250007195619571096770772701C0B6946A9569
:10426000EAF79B286081962A9082A39468E0A612C0
:10427000E0CF019631968830910589F6CA16DB06A3
:1042800009F0BECF04E610E020E430E046E652E05C
:1042900060E488E70E943633892BC9F083E99DE00A
:1042A0004FC096958795282F10FB992796F93FE3E5
:1042B000390F77CF43555D4F04E610E020E430E03E
:1042C00060E488E70E943633892B09F040C0E101A1
:1042D000C095D0958091A9029091AA028C239D232C
:1042E0009093AA028093A9028091E9068115A1F01A
:1042F0000E9436130091AF061091B0062091B106CE
:104300003091B206601B710B820B930B6F3F7F4F96
:104310008F4F9F4708F4CCDCDF91CF911F910F9115
:10432000FF90EF90DF90CF90BF90AF909F908F90D5
:104330007F906F905F903F902F90089587EC9DE065
:104340009F938F930E94300C0F900F90CDCF8EEAE9
:104350009DE0F6CFA0E0B0E0E0EBF1E20C9449354F
:10436000162FD72FC42FD22E811599F040938F0787
:1043700002DE9093F9018093F801C77081E001C0DB
:10438000880FCA95EAF782D8CDB7DEB7E7E00C947C
:10439000653590918F07491335C0E090F801F09092
:1043A000F901E9DD9C012E193F097901812F9D2F2B
:1043B0000E941115E816F90628F5D0E2DD0DCD159D
:1043C00091F0C77011E0812F01C0880FCA95EAF7FC
:1043D00066D8D83040F48D2D877001C0110F8A95B2
:1043E000EAF7812F53D860E070E0802F0BD8D830E7
:1043F00058F62D2D277081E001C0880F2A95EAF725
:104400004ED8C2CFC77081E001C0880FCA95EAF7C5
:10441000F7CFA0E0B0E0EFE0F2E20C9445358C017C
:10442000DC0114968C91811509F495C061E0C801F6
:104430000E940B15EC0180919C0780FF2FC0F801B2
:104440008681982E92942FE092228170F82EB2806D
:10445000A380E58010928E073EE6C32E37E0D32E70
:1044600010926E07CE010E9410111F929F921F9210
:10447000FF92AF92BF921F92EF92DF92CF9285EAA6
:1044800095E19F938F930E94300C2DB73EB7245F28
:104490003F4F0FB6F8943EBF0FBE2DBFC83634E273
:1044A000D307C9F0C93641E2D40709F459C0E2E0A4
:1044B000F0E0CA3652E2D50781F0D80115968C910A
:1044C000FE01E851FC47E730F10508F08FC0EE5BD4
:1044D000F94C0C949435E0E0F0E0D80115962C915D
:1044E0001597211509F482C016962C91203108F4F5
:1044F0007DC0EE0FFF1FEE0FFF1FEE51FE4FC2817A
:10450000D381C933D10579F17E01B0EEEB1AF10800
:10451000E8E0EE16F10410F0209789F566E47AE100
:10452000CE010E94390C00E010E08C2F0E94B419DB
:104530000115110539F58C2F0E94E41998E0E91650
:10454000F10420F062E67AE1209711F46FE47AE159
:10455000CE010E94390CCDB7DEB7EBE00C9461358B
:10456000E1E0F0E0BACF89E5E82EFF24FA9400E517
:1045700010E069E57AE1CE010E94390CD6CF00E067
:1045800010E0F7CF8FE99FE00197F1F700C000003E
:1045900001501109CDCF06E221EE41EE6AE17CE740
:1045A000D9DED9CF07E225EE45EE6BE17CE7F8CF07
:1045B00006E221EE40EE68E17CE7F2CF07E225EE6D
:1045C00044EE69E17CE7ECCF06E221EE42EE6CE1DD
:1045D0007CE7E6CF07E225EE46EE6DE17CE7E0CF33
:1045E00008E221E045EE6EE17CE7DACFF801958143
:1045F000911509F4A4C310928F079E0130572332FE
:10460000310508F083C384E090E00E94FC3590936C
:104610009E0780939D07FE01E150F047E232F105CD
:1046200020F4E75BF94C0C94943580919D078160F0
:1046300080939D0760919D0770919E0784E090E0B4
:104640000E941B360E94CB1686CF80919E07886001
:1046500080939E07EFCF80919D078260E9CF809184
:104660009D078460E5CF80919D078860E1CF8091B0
:104670009E078160EDCF80919E078260E9CF809197
:104680009D078061D5CF80919D078062D1CF8091B9
:104690009D078064CDCF0E94CB1680919D078068D6
:1046A000C7CF80919D078C60C3CF80919E078360A8
:1046B000CFCF80919D078E7FBBCF80919E07877F54
:1046C000C7CF80919D078D7FB3CF80919D078B7F52
:1046D000AFCF80919D07877FABCF80919E078E7F64
:1046E000B7CF80919E078D7FB3CF80919D078F7E3E
:1046F0009FCF80919D078F7D9BCF80919D078F7B62
:1047000097CF0E94CB1680919D078F7791CF809194
:104710009D07837F8DCF80919E078C7F99CF80915D
:104720009D07992782FF939590FB82F990FB83F96F
:104730007FCF80919E07982F909590FB80F990FBFA
:1047400081F986CF90919D07892F8F7B96FF80649A
:104750006FCF0E94CB1690919D07892F97FB87F909
:10476000805866CF61E08EE090E00E94013662CF13
:1047700060E0F9CF90919D07892F8F7E94FF806133
:1047800057CF90919D07892F8E7F90FF816050CFEA
:1047900090919E07892F877F93FF886059CF8272FF
:1047A000FE01E052F847EB30F10508F081C0E55911
:1047B000F94C0C94943580919C0780FF10C0809137
:1047C0009407809581701F928F9388E496E19F9360
:1047D0008F930E94300C0F900F900F900F9080914C
:1047E000940780FF21C08E7F8093940784E997E02F
:1047F00086D880919C0780FF0FC0809194078170BC
:104800001F928F9389ED95E19F938F930E94300CB7
:104810000F900F900F900F9080919307816080937D
:1048200093070E94A10F97CE816080939407809197
:104830009C0780FF0DC01F9281E08F9381E196E17C
:104840009F938F930E94300C0F900F900F900F90BA
:104850008091940761E0869586959FD97CCE8115DD
:1048600021F0D4D978CE8115E1F361E081E0F5CF74
:10487000811521F0DCD96FCE8115E1F3D0D96BCE53
:10488000811521F0E7D967CE8115E1F3D8D963CE40
:10489000811521F0F5D95FCE8115E1F3E6D95BCE24
:1048A000811521F068D857CE8115E1F35AD853CE3F
:1048B0009E01205E324520323105A8F4911122C0BC
:1048C000CF7181E090E09C0102C0220F331FCA9596
:1048D000E2F7E901622F83E090E00E940136CE0109
:1048E0000E94810C38CE911569F0C2303CE7D307A5
:1048F00009F471C0B0F5C1155CE7D507E9F1C13025
:10490000DC47C1F1D801ED90FC90911509F479C014
:10491000C7010E941B0FC82F682FC7010E94A90C56
:10492000B7018C2F0E94240D0E94360EC82FF8016B
:104930002581368132953F70892F82958F7088301E
:1049400009F4F3C008F062C0823008F470C0825FDE
:104950008F70823008F4A7C060E0C8010E940B1578
:10496000FACDC330DC4771F66FEF7FEF80E090E067
:104970000E941B360E94D7160E94CB16BFEFE4E3BD
:10498000FCE0B150E040F040E1F700C0000081E001
:104990008093E00080E28093D8001092C9008FE1FC
:1049A0009EE40197F1F700C0000087E090EBDC0186
:1049B0008093E6079093E707A093E807B093E90791
:1049C00088E19CE00FB6F894A895809360000FBE34
:1049D00090936000FFCF90919C07892F8E7F90FF6E
:1049E000816080939C0780FF09C081E996E19F93D5
:1049F0008F930E94300C0F900F90ADCD8FE796E112
:104A0000F6CFC7010E94DB0CC82F8ACF893009F48A
:104A10001DC18A5F8F70823008F09ECFC23F09F0BF
:104A200027C1892F8F71211509F453C11EC1D92FB8
:104A3000DF70903110F0D295D07F2115C9F0D115DB
:104A400069F080E28C0F883010F0C1110BC08091AA
:104A50009F078D2B80939F070E9460168C2F0E94CA
:104A6000B4197ACF8091A4078D2B8093A407F4CF3B
:104A70008C2F0E94E419D11509F46ECFD09580E2F5
:104A80008C0F883010F0C11108C080919F078D23D2
:104A900080939F070E9460165FCF8091A4078D23AB
:104AA0008093A407F7CFD92FDF70907F903211F059
:104AB000D295D07FC13081F4211539F0363008F01D
:104AC0004BCF8D2F0E94461A47CF353008F044CF88
:104AD0008D2F0E944F1A40CF2115B1F0311589F367
:104AE00040E0D80115966C9115978D919C910E948C
:104AF000EF148A32924209F0B1CFF801868180FF2B
:104B0000ADCF8F708683DDCF311511F3C93349F4F2
:104B1000FFEF27EE33E0F15020403040E1F700C0D6
:104B200000008C2F0E94E41917CF892F8370811108
:104B300045C0211130C08C2F829586958770880FD3
:104B4000880F2C2F2F7030E0082E02C0220F331F49
:104B50000A94E2F740E050E0C4FF09C04FE050E0A3
:104B600002C0440F551F8A95E2F7409550959695DF
:104B7000969593709230C1F0933091F06091A007B8
:104B80007091A107913051F0C901842B952B862398
:104B900097230E94810C0E94F812DECE262B372B21
:104BA000C901842B952BF5CFC901842B952B20911E
:104BB000A0073091A10782279327EBCF211599F108
:104BC00090FFE9CF8C2F829586958770880F880F8C
:104BD0002C2F2F7030E0082E02C0220F331F0A94B2
:104BE000E2F740E050E0C4FF09C04FE050E002C0EF
:104BF000440F551F8A95E2F74095509596959695E6
:104C000093709230C9F0933099F06091A20770913F
:104C1000A307913059F0C901842B952B8623972344
:104C20000E94860CB8CF823068F6B5CF262B372B82
:104C3000C901842B952BF4CFC901842B952B20918E
:104C4000A2073091A30782279327EACFD92FDF70DD
:104C5000211539F08D2F0E948B0C8C2F0E94461A43
:104C60009ACF8C2F0E944F1A8D2F0E94990C93CFB0
:104C700060F4C03FC9F0C13F41F1211599F13115F0
:104C800071F18C2F0E94B41986CFC33FB1F7211563
:104C900019F19F7121E030E0A90102C0440F551FB6
:104CA0009A95E2F7CA01BCCF211569F0353008F0BA
:104CB00072CF292F2F7181E090E002C0880F991FD9
:104CC0002A95E2F7BCCF3630F2CF892F8F712115AC
:104CD00061F20E948B0C5FCF80E090E0A1CF892F22
:104CE0008F71F7CF311579F0C93349F45FEF87EE53
:104CF00093E0515080409040E1F700C000008C2FBD
:104D00000E94E41948CF892F8F71AFCF80919F0700
:104D1000C631ACE7DA0709F042CD8A7A91E0811119
:104D200001C090E09093900765E3811101C069E2B2
:104D300080EF91E00E940B130E9460160CCCC631EC
:104D4000BCE7DB0709F0B4CD8091900765E38111E2
:104D500001C069E280EF91E00E942513EDCFA0E051
:104D6000B0E0E5EBF6E20C9449358091E50780313F
:104D700008F048C08091E407811509F443C0C09150
:104D8000A60787E0D82E8091A5078C17D9F1EC2EC5
:104D9000F12CDC9EE0011124FE01E955F84F8481DD
:104DA0008115A9F191818091E007981330C090811D
:104DB0008091DF0798132BC08581811128C0028163
:104DC00013818091E1079091E207081B190B60E0C5
:104DD0008FED97E00E940B150E9411150817190717
:104DE000B0F48091E5078F7080618093E507C3552B
:104DF000D84F88818F70806188838FED97E009DBC1
:104E00000E941A0DCDB7DEB7E7E00C946535E701D7
:104E10002196C770B8CFADE0B0E0E1E1F7E20C94C5
:104E20003F358C0186E0F801DE01189601900D9265
:104E30008A95E1F7D8015C9011964C9011971296E3
:104E4000AD90BC90139714963C90149715966C9067
:104E500061100CC050914D07252F30E0E0E08E2FFF
:104E60000E2E000C990B8217930744F12FEDC22EE2
:104E700027E0D22E8091E307811152C03114D9F07E
:104E8000611409F449C2C8010E94590F811509F43F
:104E900043C287E0F801D60101900D928A95E1F7AF
:104EA0008091E307813031F48091DF079091E00732
:104EB0000E944D0F54DFFF24F39471C0880F991F97
:104EC000835C984FDC0111964C911197441103C0FB
:104ED0008C91581611F0EF5FC2CFEF3F39F2D80135
:104EE00016968C9116978F70806116968C93E517A5
:104EF000A0F4AFEFA50FA0934D07EA1770F4F0E010
:104F0000EE0FFF1FE35CF84FB0E0AA0FBB1FA35CDE
:104F1000B84F8D919C91918380830E940D0DA6CFF7
:104F200060E08FED97E00E940B157C017090E40724
:104F30008091E1079091E2074501881A990A60E0A3
:104F40008FED97E0711409F4C4C10E940B150E9403
:104F500011158816990608F099C1311409F4ABCFE0
:104F60009091E007F80121818091E507803108F0F8
:104F700052C1291319C02091DF079081291314C051
:104F8000611012C08F7080618093E5078FED97E00C
:104F900040DA8091E507D80116968C93F12C8F2D7D
:104FA0002D96E1E10C945B35C70190528115904339
:104FB00008F08AC06110A9C040E0642D852D0E94D0
:104FC000D014811124C040E0642D852D0E94D0149E
:104FD00040E0642D852D0E94D014F82E8111DECF83
:104FE000888599850E944D0F292F22952F70903426
:104FF00008F073C09F70223008F477C0911509F44F
:1050000079C0F8019681903108F074C0C8CF60E093
:10501000C8010E940B15C8010E9425148111D3CF2D
:105020008091E5078F7080618093E5078091DF07AD
:105030009091E0070E94EC168FED97E0EAD9EFED32
:10504000F7E087E0DF011D928A95E9F797E0F92EF6
:105050000091A6078091A507081789F1F09E8001AD
:105060001124F801E955F84F6F018581811589F008
:10507000CF010E94590F811561F0F801E355F84FF7
:1050800080818F7080618083D6018D919C910E9478
:10509000EC16C601BED98091A60790E001968770F4
:1050A00099278093A607F801E955F84F818184116B
:1050B000CFCF80815812CCCF8581811549F20E94D3
:1050C0000D0D0E941A0D6ACF611409F47CCF8091F6
:1050D000E50781608093E50761CF2A5F2F7022305A
:1050E00070F0C80196D9F72C5ACF911519F0811597
:1050F00009F455CF805E883008F451CFF2CF803F5D
:1051000008F44DCF815F8330F7CF8091E507816050
:105110008093E50760E0C8010E940B15C8010E945A
:105120002514811123C08091E5078E7F8093E507C8
:10513000C8010E94590F811131CF8091E5078F700E
:1051400080618093E5078091DF079091E0070E94DE
:10515000EC160E940D0D8FED97E05BD9EFEDF7E0B7
:1051600087E0DF011D928A95E9F718CFBAE2EB16C6
:10517000B2E2FB0609F012CF8FED97E04AD9009119
:10518000A6078091A507081709F43DC0E02EF12C71
:10519000E7E00E9FC00111249C012955384F690199
:1051A000C9010E94590F811571F187E0F601AFED39
:1051B000B7E001900D928A95E1F7C70101968770DB
:1051C0009927082F8093A6070E941A0D87E0F82ED2
:1051D0008091A507081709F474CFF09E800111246F
:1051E0000955184FC8010E94590F81116ACFC80193
:1051F00010D98091A60790E0019687709927082F13
:105200008093A607E5CF87E0EFEDF7E0DF011D9281
:105210008A95E9F7DBCF291313C02091DF0790812E
:1052200029130EC061100CC08683C801F2D887E034
:10523000F801AFEDB7E001900D928A95E1F73BCE12
:10524000C8010E94590F811509F466C0611409F460
:1052500063C08091E507803280F02091DF073091B4
:10526000E0073A832983BC82AB829091E3079D8358
:105270001E828F83CE010196CCD887E0F801AFED76
:10528000B7E001900D928A95E1F714CE8091E50781
:10529000803130F48FED97E0BCD887E0D60162CF43
:1052A000311409F408CE2091E007F8019181291307
:1052B000C7CF2091DF0790812913C2CF6110C0CFE3
:1052C0008683C801A6D887E0D6011D928A95E9F7A2
:1052D000F2CD0E940B150E94111588169906E8F66A
:1052E000311409F4E8CD6114B9F09091E007F801A8
:1052F0008181981307C09091DF078081981302C0C5
:1053000087E097CFC8010E94590F8111B6CF8091D5
:10531000E50781608093E507C8017BD8CCCDABE180
:10532000B0E0E5E9F9E20C944C354E8B5F8B688F69
:10533000798F8A8F192F9B8F91111092A4071D8A44
:1053400086E0FE017696DE011F9601900D928A9509
:10535000E1F70A8D011561F00B8B1C8B61E0CE012A
:105360000F960E940B1561E0CE010F960E940B155F
:105370000B8B1C8B87E0FE013F96DE011896019097
:105380000D928A95E1F7CE01089645DD811128C07E
:105390009C852091A5073091A60787E0FE013896ED
:1053A000DE01119601900D928A95E1F79115C1F0F9
:1053B000822F90E001968770992738171906D9F047
:1053C00097E0929FD0011124A955B84FFE01319664
:1053D00001900D929A95E1F78093A5070E941A0D0E
:1053E00017E08091A6079091A507891312C06B96CC
:1053F000E4E00C9468350E94CB161092A507109239
:10540000A60787E0EFEDF7E0DF011D928A95E9F747
:10541000E7CF189FC00111248955984FFCDC8115F6
:1054200031F38091A60790E00196877099278093C9
:10543000A607D7CFA6E0B0E0E0E2FAE20C944C3544
:105440000E94BB1F8C018091310790913207801719
:10545000910771F019821A820E94BB1FBC01498119
:105460005A8180E090E05BDF1093320700933107B0
:105470002696E4E00C946835CDB7DEB76B970FB68F
:10548000F894DEBF0FBECDBF85B7806885BF85B7F6
:10549000806885BF84B7877F84BF0FB6F894A895CE
:1054A00080916000886180936000109260000FBE60
:1054B00080E890E00FB6F8948093610090936100CB
:1054C0000FBE81E080930A018DE395E19093EF0197
:1054D0008093EE010E9406140E9476148091E200EF
:1054E00084608093E20078948091A802811599F0FD
:1054F0008091E9001091EC008F7017951127179596
:10550000182B1092E9008091E80083FD0E94041797
:105510001F701093E90082E084BD93E095BD9AEF7F
:1055200097BD80936E0010922D0710922E07109257
:105530002F07109230078091D80080618093D800A7
:105540002AE12A95F1F700C08091D900182F117037
:1055500080FD04C00E9406141092A80210932B072D
:1055600023982B9A6E9A769835E03A95F1F70000D9
:1055700083B16E98769A40EA4A95F1F783FB8827C3
:1055800080F980932C07809312018111B5C28AE0C3
:1055900080930B018AE080930C0180912B0781118D
:1055A0000E94D733EAEDF6E088E0DF011D928A958C
:1055B000E9F78091120191E089278093E4068091B8
:1055C00012019093E70680911201809112018111DE
:1055D00006C085EF8093110184EF8093100160E095
:1055E00080E00E94DC0F61E080E00E94DC0FEFE8C9
:1055F000F1E03197F1F700C0000010E08091E7067C
:10560000181708F47BC28091120181111EC084E931
:1056100080931D0186E680931E0187E980931F0118
:1056200086EC8093200188E0EDEAF1E0DE0111963E
:1056300001900D928A95E1F788E0FE013196A1E292
:10564000B1E001900D928A95E1F78091120191E00D
:105650008927880F880F8093C10694E0981B909348
:10566000BD060DE111E0D8018D918D018F3F11F044
:105670000E94840FB1E001321B07A9F701E211E09B
:10568000F80181918F018F3F11F00E94840FF1E0AA
:1056900009321F07A9F788E0EAECF6E0DF01282FBE
:1056A0001D922A95E9F7E2ECF6E0DF011D928A955A
:1056B000E9F780E090E00E94FC35833E9E4F61F167
:1056C00063EE7EEF80E090E00E941B3660E082E0B7
:1056D00090E00E94013681E090E09093A1078093D2
:1056E000A00761E083E090E00E94013660E074E191
:1056F00084E090E00E941B360E94A01C40E050E035
:10570000BA018FE090E00E94133640E050E0BA0109
:1057100083E190E00E94133682E090E00E94EF3532
:1057200080939C0784E090E00E94FC3590939E0754
:1057300080939D0783E090E00E94EF3590E00E9407
:10574000810C82E08093B40680E88093B306C4D6CF
:105750006BE070E088EF9FE00E944B1E8111E0C17A
:105760008CED9FE09F938F930E94300C0F900F90D1
:105770008091B5068111D4C080919C0780FF08C03C
:1057800087E291E19F938F930E94300C0F900F90CE
:1057900084E997E00E949F1E809193078360809325
:1057A000930780919407843008F009C280919C0788
:1057B00080FF08C08EED90E19F938F930E94300C84
:1057C0000F900F900E94A01C84E997E00E949F1EFA
:1057D00080919407843008F0F2C18091940783701F
:1057E00084608093940780919C0780FF8BC085EC38
:1057F00090E19F938F930E94300C80919C070F90B3
:105800000F9080FF7FC08091940781701F928F93CB
:1058100088EA90E19F938F930E94300C80919C07BF
:105820000F900F900F900F9080FF6CC080919407A5
:10583000869581701F928F9388E890E19F938F9354
:105840000E94300C80919C070F900F900F900F904A
:1058500080FF58C080919407869586951F928F93FC
:105860008DE690E19F938F930E94300C80919C076E
:105870000F900F900F900F9080FF44C0809195077C
:105880001F928F9383E590E19F938F930E94300C3A
:1058900080919C070F900F900F900F9080FF32C067
:1058A000809196071F928F9389E390E19F938F9346
:1058B0000E94300C80919C070F900F900F900F90DA
:1058C00080FF20C0809197071F928F938FE190E116
:1058D0009F938F930E94300C80919C070F900F90A4
:1058E0000F900F9080FF0EC0809198071F928F93AA
:1058F00083E090E19F938F930E94300C0F900F9064
:105900000F900F900E941C108091940780FF05C09B
:1059100060E0869586950E94CD1D81E08093B50656
:1059200080912B07811101C045D783E191E09093CD
:105930003407809333075E013CE0A30EB11C66245C
:105940006394712CAE014F5F5F4F4A017A0188E08A
:10595000D5011D928A95E9F765010DE111E03A2C18
:105960004B2CF80181918F018F3F09F43FC0F894CF
:10597000E82FE295EF70F0E021A18F70A30102C043
:10598000440F551F8A95E2F7CA01922F982B91A3D5
:1059900092A18095892382A3789400C0E1E2F1E08E
:1059A00031E0512C21912F3F79F0A22FA295AF70B9
:1059B000A05EB0E08C9190E02F7002C09595879525
:1059C0002A95E2F780FF01C180E0582A330F51E0A9
:1059D000E932F50739F7F80182918F3F11F00E9403
:1059E000840F80EA8A95F1F7D6015C92BFEFCB1A5B
:1059F000DB0AE1E001321E0709F0B3CF48E050E0D6
:105A0000632D742D82EC96E00E94D9359C01892B80
:105A100049F088E0E32DF42DA2ECB6E001900D9260
:105A20008A95E1F70091C10610E00653194F232B28
:105A300009F4CDC081E08093C0060E94BB1F909303
:105A4000BF068093BE0680912B07811509F4A1C182
:105A500084E0D4011D928A95E9F750900807BAE0D6
:105A60005B1608F0D7C02AE03BE141E751E0B701FF
:105A7000C8010E941216811509F4F2C025E83BE125
:105A80004EE751E0B701C8010E941216811509F4D2
:105A9000E7C02BEE3BE14CE851E0B701C8010E94A2
:105AA0001216811509F4DCC02DE33CE144E951E014
:105AB000B701C8010E941216811509F4D1C022EA6B
:105AC0003BE14FE951E0B701C8010E941216811570
:105AD00009F4C6C02DEC3BE148EA51E0B701C8012A
