:100000000C9427080C945F080C945F080C94EF2B59
:100010000C945F080C945F080C945F080C945F08C4
:100020000C945F080C945F080C94F4180C94B018AE
:100030000C94DB240C945F080C945F080C945F080C
:100040000C945F080C945F080C945F080C945F0894
:100050000C945F080C94CD190C945F080C945F0805
:100060000C945F080C945F080C945F080C945F0874
:100070000C945F080C945F080C945F080C945F0864
:100080000C945F080C945F080C945F080C945F0854
:100090000C945F080C945F080C945F080C945F0844
:1000A0000C945F080C945F080C945F08000000003B
:1000B0000500130009001A001400280000000000C9
:1000C0000A0017441622152104242D000000000008
:1000D0001900074206001B001D00E3002B462C45BB
:1000E00029004F0000005000000000000000000048
:1000F0000D000F0018001C0033002D02000000004E
:100100001000114308320C311224340000000000AA
:100110000E000B423600370038000F0828002A2254
:100120004C4152000000510000000000000000009F
:1001300046004200410040004500007C00000000F5
:1001400047003F003E003D00440039000000000031
:1001500048003C003B003A00430049000100010018
:10016000010001000000010000000000000000008C
:100170000100010001000100010001000000000079
:100180000100AE00AC00AB00010001000000000067
:100190000100A800AA00A90001000100010001005F
:1001A000010001000000010000000000000000004C
:1001B0000100010001000100010001000000000039
:1001C00001000100161401001414010000000000D9
:1001D0000100010001000100010001000100010017
:1001E000010001000000010000000000000000000C
:1001F000010001001C1401000100010000000000CA
:10020000010001002214010013140100000000008D
:1002100001000100010001000100010001000100D6
:1002200001000100000001000000000000000000CB
:100230002002260025002400220201000000000008
:1002400025022300220021002E00010000000000F2
:100250002E0220001F001E00210201002B002C0096
:100260002700010000000100000000000000000065
:100270000100010001000100330201000000000044
:100280000100010001000100010001000000000068
:100290000100010001000100010001000100010056
:1002A000010001000000010000000000000000004B
:1002B0000100010001000100010001000000000038
:1002C0000100010001000100010001000000000028
:1002D0000100010001000100010001000100010016
:1002E000010001000000010000000000000000000B
:1002F00031021F022F023002230201000000000021
:1003000024023402260227021E020100000000001F
:10031000350235002F0030003100010028002A008E
:100320004C0001000000010000000000000000007F
:100330000501130109011A01140101000000000068
:100340002C006B456A22692168240100000000002E
:100350001901070106011B011D0101000100010037
:10036000010001000000010000000000000000008A
:1003700001004A0052004D00010001000000000091
:100380000100500051004F0001000100000000007A
:10039000010001004B004E000100010001000100BE
:1003A000010001000000010000000000000000004A
:1003B0000503130309031A031403010000000000DE
:1003C0000A031703160315030403010000000000CD
:1003D0001903070306031B031D03010001000100AD
:1003E000010001000000010000000000000000000A
:1003F00001000100010001000100010000000000F7
:1004000001000100010001000100010000000000E6
:1004100001000100010001000100010001000100D4
:1004200001000100000001000000000000DA12815C
:10043000FFD9F1DB20A4A62EAF00A0C000A1C80008
:10044000AED580A83FD300408D14200000000000EE
:100450000000000000000000008080C0E0F0707824
:10046000383C1C1E0E0E0E07070707070707070775
:10047000070707070707070E0E0E1E1C3C3878708B
:10048000F0E0C080800000000000000000000000DC
:10049000000000000000000000000000000000005C
:1004A000000000000000000000000000000000004C
:1004B000000000000000000000000000000000003C
:1004C000000000000000000000000000000000002C
:1004D000000000C0E0F07C3E1F0F07030180C0E079
:1004E000F078383C1C1E0E0E070787E77F1FFFFFC2
:1004F0001F7FE78707070E0E1E1C3C3878F0E0C010
:10050000800103070F1F3E7CF0E0C00000000000E8
:1005100000000000000000000000000000000000DB
:1005200000000000000000000000000000000000CB
:1005300000000000000000000000000000000000BB
:1005400000000000000000000000000000000000AB
:10055000F0FCFF1F07010000C0F0FCFEFFF7F3B145
:10056000B03030303030303078FE87010000FFFF8F
:1005700000000187FE7830303030303030B0B1F3D9
:10058000F7FFFEFCF0C0000001071FFFFCF00000B9
:10059000000000000000000000000000000000005B
:1005A000000000000000000000000000000000004B
:1005B000000000000000000000000000000000003B
:1005C000000000000000000000000000000000FF2C
:1005D000FFFF0000000000FEFFFF0101071E78E1A1
:1005E00081838386868C8C9898B1B7FEF8E0FFFFF4
:1005F000E0F8FEB7B198988C8C8686838381E17889
:100600001E070101FFFFFE0000000000FFFFFF00CA
:10061000000000FFFF0000C0C030300000F0F0001C
:100620000000000000F0F00000F0F0C0C0303030FA
:1006300030C0C000003030F3F30000000000003094
:100640003030303030C0C00000000000000000FF3B
:10065000FFFF00000000007FFFFF8080E0781E8722
:1006600081C1C16161313119198DED7F1F07FFFF14
:10067000071F7FED8D191931316161C1C181871E5D
:1006800078E08080FFFF7F0000000000FFFFFF0098
:100690000000003F3F03030C0C303000000000332B
:1006A00033333333330F0F00003F3F0000000000AF
:1006B000000000000030303F3F303000000C0C33B1
:1006C00033333333333F3F000000000000000000AD
:1006D0000F3FFFF8E0800000030F3F7FFFEFCF8D5B
:1006E0000D0C0C0C0C0C0C0C1E7FE1800000FFFFAD
:1006F000000080E17F1E0C0C0C0C0C0C0C0D8DCF3F
:10070000EFFF7F3F0F03000080E0F8FF3F0F000086
:1007100000000000000000000000000000000000D9
:1007200000000000000000000000000000000000C9
:1007300000000000000000000000000000000000B9
:1007400000000000000000000000000000000000A9
:1007500000000003070F3E7CF8F0E0C080010307B3
:100760000F1E1C3C38787070E0E0E1E7FEF8FFFFF8
:10077000F8FEE7E1E0E0707078383C1C1E0F0703DC
:100780000180C0E0F0F87C3E0F070300000000008D
:100790000000000000000000000000000000000059
:1007A0000000000000000000000000000000000049
:1007B0000000000000000000000000000000000039
:1007C0000000000000000000000000000000000029
:1007D000000000000000000000010103070F0E1ED2
:1007E0001C3C3878707070E0E0E0E0E0E0E0E0E0D1
:1007F000E0E0E0E0E0E0E070707078383C1C1E0E55
:100800000F070301010000000000000000000000CD
:1008100000000000000000000000000000000000D8
:1008200000000000000000000000000000000000C8
:1008300000000000000000000000000000000000B8
:100840000000000000000000000000002020202028
:10085000202020005343524C434B200020202020D6
:10086000202020004341504C434B200020202020DA
:10087000202020004E554D4C434B2000556E6465A2
:1008800066696E65640A0041646A7573740A00469D
:10089000756E6374696F6E0A0053796D0A004E615C
:1008A000760A00436F6C656D616B2D44480A004405
:1008B000766F72616B0A005157455254590A004CC9
:1008C000617965723A2000726576320A0A004B79C6
:1008D0007269612000808182838485868788898A05
:1008E0008B8C8D8E8F9091929394A0A1A2A3A4A59E
:1008F000A6A7A8A9AAABACADAEAFB0B1B2B3B4C015
:10090000C1C2C3C4C5C6C7C8C9CACBCCCDCECFD05F
:10091000D1D2D3D400000101010101010101010282
:10092000020202020202020203030303030303039F
:10093000040404040404040505050505060606066A
:1009400006070707070708080808090909090A0A26
:100950000A0B0B0B0C0C0C0D0D0D0E0E0E0F0F0FCA
:100960001010111111121213131414151516161755
:1009700017181819191A1A1B1B1C1D1D1E1E1F20C3
:1009800020212222232424252626272829292A2B10
:100990002C2D2D2E2F303132323334353637383935
:1009A0003A3B3C3D3E3F404142434445464748492F
:1009B0004A4C4D4E4F50515354555658595A5B5D01
:1009C0005E5F616264656668696B6C6D6F7072739F
:1009D0007577787A7B7D7E8082838587888A8C8E06
:1009E0008F91939596989A9C9EA0A2A3A5A7A9AB38
:1009F000ADAFB1B3B5B7BABCBEC0C2C4C6C9CBCD2A
:100A0000CFD1D4D6D8DBDDDFE2E4E7E9EBEEF0F3DB
:100A1000F5F8FAFDFF00AF00AE05010980A10185E0
:100A20000319012AB700150126B700950175108139
:100A300000C0050C0901A101850419012AA00215B5
:100A40000126A002950175108100C005010906A1CB
:100A500001050719E029E7150025019508750181B1
:100A6000029501750881010507190029FF15002667
:100A7000FF009506750881000508190129059505EF
:100A800075019102950175039101C009023B0002B5
:100A90000100A0FA0904000001030101000921116D
:100AA000010001224000070581030800010904013B
:100AB000000103000000092111010001223200079A
:100AC00005820320000112010002000000081D8DB4
:100AD0009D9D00010102000116034B007900720088
:100AE000690061002000720065007600320000009D
:100AF0001803730070006C00690074006B006200E2
:100B00002E0063006F006D00000004030904070855
:100B10007F0807003E5B4F5B3E003E6B4F6B3E0025
:100B20001C3E7C3E1C00183C7E3C18001C577D5728
:100B30001C001C5E7F5E1C0000183C180000FFE7D4
:100B4000C3E7FF00001824180000FFE7DBE7FF0001
:100B500030483A060E00262979292600407F0505EF
:100B60000700407F05253F005A3CE73C5A007F3E86
:100B70001C1C0800081C1C3E7F0014227F2214004D
:100B80005F5F005F5F0006097F017F000066899557
:100B90006A0060606060600094A2FFA29400080494
:100BA0007E04080010207E20100008082A1C08007F
:100BB000081C2A0808001E10101010000C1E0C1E25
:100BC0000C0030383E383000060E3E0E06000000A5
:100BD0000000000000005F000000000700070000A8
:100BE000147F147F1400242A7F2A12002313086420
:100BF0006200364956205000000807030000001C20
:100C0000224100000041221C00002A1C7F1C2A00F7
:100C100008083E0808000080703000000808080836
:100C200008000000606000002010080402003E512F
:100C300049453E0000427F40000072494949460054
:100C40002141494D33001814127F100027454545B6
:100C500039003C4A49493100412111090700364910
:100C600049493600464949291E0000001400000089
:100C70000040340000000008142241001414141431
:100C800014000041221408000201590906003E41E7
:100C90005D594E007C1211127C007F494949360093
:100CA0003E41414122007F4141413E007F49494947
:100CB00041007F09090901003E41415173007F084D
:100CC00008087F0000417F4100002040413F0100B3
:100CD0007F08142241007F40404040007F021C02F8
:100CE0007F007F0408107F003E4141413E007F09A4
:100CF000090906003E4151215E007F09192946007D
:100D000026494949320003017F0103003F4040402A
:100D10003F001F2040201F003F4038403F00631429
:100D2000081463000304780403006159494D43002B
:100D3000007F414141000204081020000041414170
:100D40007F000402010204004040404040000003D4
:100D5000070800002054547840007F28444438009D
:100D6000384444442800384444287F0038545454BC
:100D7000180000087E09020018A4A49C78007F08CF
:100D80000404780000447D4000002040403D000005
:100D90007F102844000000417F4000007C0478045C
:100DA00078007C0804047800384444443800FC1877
:100DB0002424180018242418FC007C0804040800CB
:100DC00048545454240004043F4424003C40402030
:100DD0007C001C2040201C003C4030403C0044284B
:100DE000102844004C9090907C004464544C440083
:100DF000000836410000000077000000004136087E
:100E000000000201020402003C2623263C000000F0
:100E100000000000404040F0F8F8FF38FFF8F83FCD
:100E2000F8F8FF38FFF8F8F04040400000000000FC
:100E30000080C0C0C0800000C0C08000000080C032
:100E4000C000C0C0000080C0C00000000000C0C0E2
:100E5000C0C0C000C0C000000000000000000000D2
:100E60000000000000000000000000000000000082
:100E70000000000000000000000000000000000072
:100E800000000000000000000000000000C0F0F8BA
:100E9000FC3E1E06010000007F4141417F007F4172
:100EA00041417F000080C0E07E5B4F5BFEC00000E0
:100EB000C000DCD7DEDEDED7DC00C00000000000B2
:100EC0000000000000000000000000000000000022
:100ED00000000000494949FFFFFFFFE0DFBFBF00FE
:100EE000BFBFDFE0FFFFFFFF4949490000000000EE
:100EF0001F3F6060E0BF1F007F7F071E381E077F17
:100F00007F007F7F0E1F3B716000000000007F7F2D
:100F10000C0C0C007E7E007F7E0303007F7E0303AB
:100F20007E7E03037F7E000F3E703C063C703E0FCA
:100F300000327B49493F7E007F7E0303001E3F69EC
:100F4000696F2600000000000000000000030F1F72
:100F50003F3C7870600000007F4141417F007F414D
:100F600041417F00307B7F7830202030787F3B000C
:100F700003000F7F0F0F0F7F0F0003000000000022
:100F80000000000000000000000000000000000061
:100F900000000000010101070F0F7F0F7F0F0F7E80
:100FA0000F0F7F0F7F0F0F070101010000000000EE
:100FB000000000000001010000000000000000002F
:100FC0000000000000000000000000000000000021
:100FD0000000000000000000000000000000000011
:100FE0000000000000000000000000000000000001
:100FF00000000000000000000000000000000000F1
:1010000000000000000000000000000000000000E0
:1010100000000000000000000000000000000000D0
:1010200000000000000000000000000000000000C0
:1010300000000000000000000000000000000000B0
:10104000000000000000000000000000000011246B
:101050001FBECFEFDAE0DEBFCDBF04B603FE18C07F
:101060008091790790917A07A0917B07B0917C07D6
:101070008730904BA740B04B59F4109279071092EB
:101080007A0710927B0710927C07E0E0F8E309955D
:1010900011E0A0E0B1E0E0E8FCE502C005900D92AF
:1010A000A63DB107D9F727E0A6EDB1E001C01D923A
:1010B000A937B207E1F70E9402250C94E32D0C94A6
:1010C0000000873022E49207B1F050F4863122E22A
:1010D000920789F08830924371F088EC90E008958F
:1010E000813123E4920739F0873124E4920719F023
:1010F0008B30924491F78FEA90E00895E8EDF0E0AC
:1011000080818E7F80831092E2001092DA0010922C
:10111000E100A0EEB0E08C9181608C9380818F77AC
:10112000808319BCA7EDB0E08C918E7F8C93808179
:101130008F7E80831092570308952091E4003091B0
:10114000E50095E6A9012091EC00822F817020FF37
:1011500006C08091E80080FF06C080E008952091DD
:10116000E80022FD1AC080916403882389F085304D
:1011700089F08091EB0085FD0FC02091E400309153
:10118000E50042175307F9F29150E1F684E0089523
:1011900082E0089583E0089581E0089580916603D8
:1011A00087FF13C08091E80082FF06C08091E800AD
:1011B0008B778093E80004C0809164038111F2CFA3
:1011C0000895809164038823D9F38091E80080FF1B
:1011D000F8CF8091E8008E77ECCF982F9093E900BC
:1011E000242F762F50E0891731F07091EC00209178
:1011F000ED005091F00021FD07C09F5F973071F71F
:101200008093E90081E008953091EB003E7F3093B8
:10121000EB003091ED003D7F3093ED003091EB001D
:1012200031603093EB007093EC002093ED0050930D
:10123000F0002091EE0027FDE0CF80E00895B0E0BF
:10124000A0E0E5E2F9E00C94292DC8EDD0E088811A
:101250008F7E8883E7EDF0E080818160808384E089
:1012600082BF81E08093570388818E7F888302EE5E
:1012700010E0F80110821092DA0081EEC82ED12C15
:10128000F601108288818F778883888180688883BF
:1012900088818F7D888319BC109264031092650346
:1012A000109263031092620390EEE92EF12CF70185
:1012B00080818B7F808388818160888342E060E0C9
:1012C00080E00E94ED08F60180818E7F8083F80126
:1012D000808181608083808188608083F701808144
:1012E0008E7F8083888180618883CDB7DEB7E8E018
:1012F0000C94452DFC0180916C0390916D03861731
:101300009707A0F06115710529F49091E8009E7788
:101310009093E80090E06115710551F4911108C0B7
:101320008091E80082FF34C080E00895BC01F2CFD4
:10133000809164038823C1F18530C1F18091E80078
:1013400083FD30C08091E80082FDEACF8091E80003
:1013500080FFE1CF8091F3002091F200382F6115DA
:10136000710519F02830310558F091E02830310529
:1013700009F090E02091E8002E772093E800CBCF91
:1013800081918093F100615071092F5F3F4FE7CF4A
:1013900080916403882341F0853041F08091E8001A
:1013A00083FFBECF81E0089582E0089583E0089531
:1013B00008958091590308952FB7F89460915303CD
:1013C0007091540380915503909156032FBF089557
:1013D0009C01FC0132969FEF80E04191461751F04D
:1013E0009F3F19F4411101C0982F8F5F8630A9F7F4
:1013F0009F3F09F40895290F311D97FD3A95F90192
:1014000062830895A3E0B0E0E8E0FAE00C942F2DA9
:10141000209150033091510328173907A1F0909380
:10142000510380935003E0914E03F0914F033097A6
:1014300051F024E029839B838A830680F781E02D85
:10144000CE01019609952396E2E00C944B2DA3E082
:10145000B0E0EDE2FAE00C942F2D20914C03309196
:101460004D0328173907A1F090934D0380934C0347
:10147000E0914E03F0914F03309751F023E0298320
:101480009B838A830680F781E02DCE010196099522
:101490002396E2E00C944B2DFC01680F791F8FEF2F
:1014A00091E32191822728E030E087FF09C0880F6F
:1014B000892721503109C9F7E617F70791F70895F1
:1014C000880FF7CFFA01811101C0FB01099508953A
:1014D00080913E03982F9E7F39F480913E03817066
:1014E000826080933E0308958430B8F7089580E0C9
:1014F0000895F894E82FE295EF70F0E031A1282FDD
:101500002F7081E090E001C0880F2A95EAF7982FAC
:101510009095932391A392A1892B82A37894089507
:101520009091980292FF06C0282F28712830F9F474
:10153000877F846093FF06C0282F28712831F1F43B
:10154000877E84612091990220FF06C0382F387170
:101550003830D9F4877F816021FF06C0282F287199
:101560002831D1F4877E816194FD877E0895282FEC
:1015700024712430F9F68B7F8860DCCF282F24710A
:10158000243101F78B7E8861DDCF382F3171313006
:1015900019F78E7F8860E0CF282F2171213121F744
:1015A0008E7E8861E1CF7830C0F46830B0F4873047
:1015B000A0F498E0899FF0011124E70FF11D83E06A
:1015C000EE0FFF1F8A95E1F7E60FF11DEE0FFF1FEB
:1015D000E455FF4F85919491089580E090E008953F
:1015E000CF93DF93EC0182389105B9F108F041C047
:1015F0008133910509F49FC050F58932910509F4B2
:101600008FC08A9709F49EC0C11520E5D20708F063
:10161000BDC0C11530E4D30708F00AC1C03ED105F2
:1016200008F0A5C0CD3CD10508F000C1C83AD105ED
:1016300008F08FC0C53AD10508F0F0C0C130D1051F
:1016400039F1209729F1C430D10510F546C0853312
:10165000910509F460C0C997B9F68091980283702A
:1016600009F044C18091990283FF12C0C9E2D0E021
:101670000FC0833E9105A1F178F4803E910509F1F8
:10168000823E910509F0C0CF8091980282FD21C071
:10169000CE01DF91CF910895863E910561F1873E9D
:1016A000910571F1843E910509F0AECF80919902C8
:1016B00081FFEECF80919802C7EED0E084FD0DC08F
:1016C000E7CF8091980280FD33C09091990290FFFE
:1016D000DFCFC3EED0E084FFDBCFD0E0C0E0D8CFD7
:1016E0008091980282FDFFC09091990290FDFEC00A
:1016F00084FFCECFF2CF8091980283FDDDCFC8CF9B
:101700008091980283FDF5C09091990291FFF0CFEE
:10171000C4EED0E0BDCF8091980285FFB9CFA6CFAF
:101720008091980285FDE8C08091990283FFB0CF37
:10173000C9E3D0E0ADCF8091980286FFA9CFCAE27D
:10174000D0E0A6CF8091980286FFA2CFC1E3D0E07F
:101750009FCFC13CD10508F6C85AD0E0CC0FDD1FA1
:10176000C858DE4F0990D881C02DD46491CFC115DF
:1017700040E2D40708F0AAC0C11581E0D80708F0FC
:1017800087CFC83ED10508F483CFA7CFC03622E566
:10179000D20718F5C03432E5D30708F053C0C03281
:1017A00042E5D40708F047C0C11582E5D80708F420
:1017B0007FC02C2F2695269540E2249F900111246E
:1017C0008C2F8370C1E0D0E002C0CC0FDD1F8A9562
:1017D000E2F7C22BD32BDD685BCFC03A22E5D207FC
:1017E00060F4C03832E5D30708F441C0CF71D0E0CF
:1017F000DC2FCC27C46FD06A4BCFC03C42E5D40766
:1018000008F44AC0C03E82E5D80708F066CFDC2F56
:10181000CC27CC27DF71C06FD06A3ACFC55AD0E051
:10182000CB58DE4FC881D0E0D06432CFD06530CF06
:10183000DF70D06A2DCFCF71D0E0DC2FCC27C16F05
:10184000D06A26CF2C2F26952695277080E2289FD8
:10185000900111248C2F8370C1E0D0E002C0CC0F26
:10186000DD1F8A95E2F7C22BD32BDC6811CF2C2F1A
:1018700026952695277040E2249F900111248C2FF5
:101880008370C1E0D0E002C0CC0FDD1F8A95E2F783
:10189000C22BD32BDA68FCCE8C2F8F710E94900A5A
:1018A000C82FD0E0DC2FCC27CC27DF71D062F0CE60
:1018B0008C2F8F710E94900A35E0D695C7953A9586
:1018C000E1F7CF709C2FEC01D069E2CE8D2F8F71A4
:1018D0000E94900A90E0982F882788279F719C018A
:1018E0002C2BE901E3CFC2EED0E0D2CEC0EED0E0A7
:1018F000CFCEC6EED0E0CCCEC5E3D0E0C9CE0E94BC
:10190000DC090895809146028111109246020895E3
:101910008095909145029823909345020895452B18
:1019200039F0682381E06F3F09F080E0817008950D
:1019300081E0FCCF80913A0290910902981301C096
:1019400008958F5F8770FACFB0E0A0E0EAEAFCE08C
:101950000C94282D7C010091B8021091B90280915D
:10196000B6029091B702082B192BCFE0D0E0CC241F
:10197000C394D12CBC2EC6010C2E02C0880F991F17
:101980000A94E2F780239123892B49F4219790F759
:10199000B12C8B2DCDB7DEB7E9E00C94442DB70107
:1019A0008C2F0E94D30A0E94F00A019779F3F1CF9D
:1019B000CF93DF93EC010E94A40CBE010E94D30AD6
:1019C0000E94F00ADF91CF910895983070F5883029
:1019D00060F528E0929FF0011124E80FF11D6E2FB1
:1019E000677083E0F695E7958A95E1F7EE0FFF1FA4
:1019F000EE0FFF1FED51FE4F50E040E080E02191DF
:101A000030E0062E02C0369527950A94E2F7217041
:101A10003327042E01C0220F0A94EAF7822B4F5F6E
:101A20005F4F4430510559F7089580E0089598308C
:101A300090F5883080F528E0929FF0011124E80F9E
:101A4000F11D2E2F277041E001C0440F2A95EAF7BF
:101A500083E0F695E7958A95E1F7EE0FFF1FEE0F0D
:101A6000FF1FED51FE4F30E020E070E05191DF01AB
:101A70001197CB01022E02C0969587950A94E2F742
:101A8000817081958527842385278C932F5F3F4F15
:101A90002430310559F708959093B9028093B80224
:101AA000089521E030E002C0220F331F8A95E2F74B
:101AB000209530958091B8029091B90282239323AA
:101AC0000E944C0D089590913B028095892380934C
:101AD0003B02282F277091F4282F082E000C330B7F
:101AE0009217130659F09091990292FF07C08595BD
:101AF000859585950E94510D10923B02089521E035
:101B000030E002C0220F331F8A95E2F78091B802BD
:101B10009091B902822B932B0E944C0D08959093C3
:101B2000B7028093B60208950F931F93CF938C0151
:101B3000FC0143815481618180810E948F0CC82FF8
:101B4000811123C0F801808191810E94D80C929567
:101B50009F709630A9F058F4925F9F70923058F4BD
:101B6000803F19F030F4883E30F4C1E004C09A5F41
:101B7000F4CF843FD1F38C2FCF911F910F91089513
:101B8000883E98F3813FB9F7F0CFC0E0F4CFA5E0ED
:101B9000B0E0EDECFDE00C942E2D25E0FC01DE0123
:101BA000119601900D922A95E1F7FC01228189811D
:101BB0009A81222399F0662389F00E94A40C182FA1
:101BC000682F89819A810E94170D69817A81812FFE
:101BD0000E94D30A2596E3E00C944A2D0E94E50C5E
:101BE000182FF3CF9C013A9521153F4150F5FC0188
:101BF000EE27F170BC0166277270AC014427547067
:101C00009C012227387094FF0EC080E1EF2B09F46D
:101C100080E0672B09F08062452B09F08064232B5C
:101C200089F08068089581E0EF2B09F480E0672B4C
:101C300009F08260452B09F08460232B19F088603D
:101C4000089580E00895CF93DF93C0917707D091F6
:101C500078078A30C1F420916E03CE0181579340FA
:101C6000622F70E00E940B2D281B822F66E00E94DD
:101C7000562DC82FC15018F4DF91CF91089580E2FE
:101C80000E94230EF7CF8D30E9F4C157D340209145
:101C90006E03622F70E0CE010E940B2D281B822F55
:101CA0009E01280F311D2115344018F080E0D0E04E
:101CB000C0E0C80FD11DCF58DC4FD0937807C09338
:101CC0007707DACF96E0FE01A1E7B7E001900D9229
:101CD0009A95E1F7803E08F458C086E0FE01119223
:101CE0008A95E9F7C0917707D091780746E050E0F0
:101CF000BE0181E797E00E94852D9E012157334068
:101D0000892B41F1C90146E0969587954A95E1F7FF
:101D100041E050E0BA0102C0660F771F8A95E2F7F2
:101D2000CB0160916F0370917003862B972BB901E3
:101D30006B5F7F4FE6E076956795EA95E1F702C025
:101D4000440F551F6A95E2F7842B952B90937003EF
:101D500080936F032A5F3F4F40916E03642F70E0C2
:101D6000C9010E940B2D481B463010F4240F311D71
:101D7000211574E0370710F030E020E02F583C4F79
:101D8000309378072093770777CFF6E08F9FB001E5
:101D90001124625F744F46E050E0CE010E947C2D1A
:101DA000A1CFCF93DF93EC01FE018491811103C099
:101DB000DF91CF9108950E94230E2196F5CF809157
:101DC000450290914402892B8093D801909146025C
:101DD000992391F0892B8093D80120E08AED91E03E
:101DE000FC013191CF0131112F5FF1E0803E9F075F
:101DF000B9F721110E94820C48E050E06CE372E0D8
:101E000088ED91E00E94852D892BA9F088E0E8ED0E
:101E1000F1E0ACE3B2E001900D928A95E1F7E09138
:101E20004E03F0914F03309731F00280F381E02DA3
:101E300088ED91E00995089510924502EAEDF1E0F0
:101E400086E0DF011D928A95E9F790E080E00E942C
:101E5000270A90E080E00E94020A109244020E9449
:101E6000DF0E0895AAE2B0E0E8E3FFE00C942E2D27
:101E700086E693E02091F100FC012193CF01F3E08D
:101E80008E369F07B9F780916703833009F470C0DD
:101E9000B8F4813009F447C0823009F4B1C08091B0
:101EA000E80083FF7EC280916603909167039A30B9
:101EB00008F077C2E92FF0E0EB51F24D0C94762D4B
:101EC0008A3009F48CC08B3009F46FC0893039F73F
:101ED00080916603813219F780916A0390916B03B8
:101EE0000297E8F68091E800877F8093E800809170
:101EF000E80082FF38C09091F3008091F2000297D1
:101F000031F48091F100813011F0863021F480911C
:101F1000F100809359038091E8008B778093E8006B
:101F20000E94CE08BCCF80916603813A09F0B7CFFA
:101F30008091E800877F8093E80080916A03909108
:101F40006B03892B61F468E08AE593E070E00E94FE
:101F50007A098091E8008B778093E800A0CF60E059
:101F600090E080E0F3CF809164038111C0CF97CFE0
:101F700080916603813A09F092CF80916A03909133
:101F80006B03892B09F08BCF8091E800877F8093CA
:101F9000E8008091E80080FFFCCF80915C01809395
:101FA000F1008091E8008E77B9CF8091660381328D
:101FB00009F075CF80916A0390916B03892B09F02A
:101FC0006ECF8091E800877F8093E8000E94CE0862
:101FD0008091680380935C010E941C0F60CF809108
:101FE0006603813209F05BCF8091E800877F8093A0
:101FF000E8000E94CE0880916903809358034FCF78
:1020000080916603813A09F04ACF8091E800877F8A
:102010008093E8008091E80080FFFCCF8091580316
:10202000BECF803899F0823809F0BBC180916A0335
:102030008F70873008F0B5C18093E9008091EB0084
:1020400085FB882780F91092E90006C08091620321
:1020500090916303911182609091E800977F909333
:10206000E8008093F1001092F1008091E8008E77F3
:1020700094C1882309F482C1823009F092C1809111
:102080006803811185C180916A038F702FEF280F3B
:10209000263008F086C18093E9002091EB0020FFF4
:1020A00077C1933031F48091EB0080628093EB0034
:1020B0006FC19091EB0090619093EB0021E030E0D4
:1020C00001C0220F8A95EAF72093EA001092EA00F5
:1020D0008091EB008860EACF811163C110916803A1
:1020E0001F778091E3008078812B8093E3008091BB
:1020F000E800877F8093E8000E94CE088091E80086
:1021000080FFFCCF8091E30080688093E30082E051
:10211000111183E08093640344C18058823008F039
:1021200040C180916803909169038C3D23E0920740
:10213000A1F583E08A838AE289834FB7F894DE01B0
:10214000139620E03EE051E2E32FF0E05093570079
:10215000E49120FF03C0E295EF703F5FEF708E2F98
:1021600090E0EA30C0F0C7968D939D932F5F2431A5
:1021700059F74FBF8091E800877F8093E8006AE2BB
:1021800070E0CE0101960E947A098091E8008B7779
:102190008093E80006C1C096E7CF40916A03509152
:1021A0006B03292F33272330310509F444C078F518
:1021B0002130310509F46FC08BE390E0EBE8FAE0E1
:1021C0002230310509F0EDC02091E800277F2093EF
:1021D000E80020916C0330916D038217930708F497
:1021E0009C0140E02115310509F064C0411162C035
:1021F0008091E80082FDC9CF80916403882329F291
:10220000853019F28091E80083FFF2CFBECF2132F2
:102210003105A9F12232310509F0C3C0411551053C
:1022200009F443C04130510509F0BBC082E390E09E
:10223000E9E1FAE0C9CF992781309105C1F0009713
:1022400059F0029709F0ADC0E8EDFAE0E4918E2F65
:1022500090E0E8EDFAE007C0EAE0FBE0E4918E2FC1
:1022600090E0EAE0FBE0009709F49BC0ADCFE0EF1F
:10227000FAE0E4918E2F90E0E0EFFAE0F4CF411520
:10228000510571F04130510509F08BC089E090E0B3
:10229000E6EBFAE099CF82E190E0E6ECFAE094CF49
:1022A00089E090E0EDE9FAE08FCF80E490E0EBE4A4
:1022B000FAE08ACF80916403882309F466CF8530E1
:1022C00009F463CF8091E80083FD5FCF8091E8003F
:1022D00082FD8ECF8091E80080FF84CF9091F30043
:1022E0008091F2002115310519F08830910550F0E8
:1022F00041E0089709F040E08091E8008E778093F4
:10230000E80070CF44914093F1003196215031099B
:102310000196E8CF803809F044C08091E800877FBB
:102320008093E800809165038093F1009ECE811137
:1023300038C0109168031230A0F58091E800877FC3
:102340008093E800109365030E94CE08112311F0DA
:1023500084E005C08091E30087FDFACF81E080939F
:10236000640342E061EC81E00E94ED0842E261EC2E
:1023700082E00E94ED088091640313C0809168039D
:10238000813079F481E0933009F080E08093630339
:102390001092E9008091E800877F8093E8000E9416
:1023A000CE088091E80083FF0AC08091E800877F13
:1023B0008093E8008091EB0080628093EB00AA9606
:1023C000E3E00C944A2D882341F0809590914402DB
:1023D0008923809344020E94DF0E0895882339F0F8
:1023E00090914402982B909344020E94DF0E08952E
:1023F000882321F00E94880C0E94DF0E0895882314
:1024000039F090914502982B909345020E94DF0E7F
:102410000895882391F19CEF980F913A80F4EAEDAA
:10242000F1E020EE31E09191891303C0DF011197B3
:102430001C922E173F07B9F70E94DF0E089590E215
:10244000980F983050F4877091E001C0990F8A95E9
:10245000EAF7892F0E94880CEFCF9BE5980F933005
:1024600028F490E080E00E94270A0895885A893174
:1024700020F490E080E00E94020A0895CF93C82FD4
:102480008823B1F08CEF8C0F813A00F5EAEDF1E092
:1024900080EE91E0DF012D91C21761F08A179B0752
:1024A000D1F76C2F88ED91E00E94E8090E94DF0EC1
:1024B000CF9108952191C21303C0DF0111971C929F
:1024C0008E179F07B9F70E94DF0EEBCF80E28C0FCB
:1024D000883068F4C77021E030E001C0220FCA954F
:1024E000EAF780914502822B80934502DFCFEBE52E
:1024F000EC0FE33040F4F0E0EB58FE4F808190E0C9
:102500000E94270AD5CFC85AC93190F6EC2FF0E0C7
:10251000EE0FFF1FE858FE4F808191810E94020A52
:10252000C7CFB0E0A0E0E7E9F2E10C94292D6C01FF
:102530007B0164E670E088E70E94692AEC0197FD60
:1025400012C010E000E0F601E00FF11F849164E694
:1025500070E00E94D52AEC01892B29F40F5F1F4FF0
:102560000E151F0581F70E944B2BCE01CDB7DEB7AC
:10257000E8E00C94452D8091470390914803911118
:1025800003C091E089270895882369F062E070E034
:1025900087E19AE00E949112892B19F080914703FC
:1025A00008951092470380914703EBCFCF93C091DA
:1025B0004703809148038823D1F00E94DC09605AC8
:1025C00075418F4F9F4F60934303709344038093F3
:1025D000450390934603C11108C062E070E085E1B5
:1025E0009AE00E949112892B29F0C09147038C2F09
:1025F000CF91089581E080934703F7CF0F931F9306
:10260000CF93DF938B01EA0190916403943061F5DD
:102610008093E9008FEF9091E800815095FD06C00E
:1026200095ED9A95F1F700008111F5CF8091E800C2
:1026300085FF1AC00E949D08811111C08091E80099
:1026400085FD06C08091E8008E778093E800F2CF88
:10265000F80181918F018093F100219779F78091A2
:10266000E8008E778093E800DF91CF911F910F9162
:10267000089543E050E0BC0182E00E94FE120895FC
:10268000CF93DF93EC0148E050E0BC0181E00E9471
:10269000FE1288E0FE01AAE5B3E001900D928A9552
:1026A000E1F7DF91CF9108956091580180913E0349
:1026B00080FF20C08091570143E0849FC001112416
:1026C0008E5F9C4F539A2BB1277F3BB138605FB729
:1026D000F894FC01649FE00DF11D1124BF016817FF
:1026E0007907D1F45FBF8FE594E00197F1F700C05F
:1026F000000008958091590190915A0123E0829F32
:10270000F0011124EE5FFC4F8917A0F611821082B0
:1027100012828F5F3396F8CFFC014191CF01E8E040
:102720003BB9000000C047FF2BB9440F000000C0B8
:1027300000C000C02BB900C0EA9591F7D0CFB0E03F
:10274000A0E0E5EAF3E10C94272D7C015B016A012E
:102750008091870201E010E08A3010F40AE010E076
:10276000C1E0D0E0B501C701F6010995811104C0AF
:1027700021960C171D072CF4CDB7DEB7EAE00C94B8
:10278000432DCC9F9001CD9F300D300D112490E052
:1027900080E045E34A95F1F7000001968217930720
:1027A000C1F7E0CF80915A02811110C08091D8000A
:1027B00080618093D8008AE18A95F1F700C080910A
:1027C000D90080FF0AC081E080935A0281E0909195
:1027D0005A02913009F080E0089582E080935A0215
:1027E0000E947E0810926403F1CF0E94D2138823C6
:1027F00059F0E0914E03F0914F03309729F001908A
:10280000F081E02D0995089580E008951F93CF93FE
:10281000DF93182FEB010E943E12209739F4812F8D
:102820000E940912DF91CF911F9108958FE99FE0D7
:102830000197F1F700C000002197EFCF81110CC084
:1028400070E0662331F060E089EA0E94061481E0BE
:10285000089560E08AEAF9CF8130C9F770E0662315
:1028600019F060E08EE4F1CF60E08BE4EECF0E94DF
:102870001C0F2FEF84E39CE0215080409040E1F753
:1028800000C0000088E19CE00FB6F894A895809302
:1028900060000FBE90936000FFCFCF92DF92EF9267
:1028A000FF926B017C010E94680AB701A60188E0D3
:1028B00090E00E94C12DFF90EF90DF90CF9008959F
:1028C000B0E0A0E0E6E6F4E10C94252DD82FC62F69
:1028D000142F822E00913E0300FF49C080913F03D8
:1028E0008D1308C080914003861304C0809141037A
:1028F000841729F080910103826080930103E02F07
:10290000E695F0E0EC52FE4F80818093FF02802F2D
:102910008E7F8230D1F4E12FF0E0EB5EF64FC111F3
:102920002BC02491F22FE22F00FF0FC0809159019C
:1029300090915A0133E0839FD0011124AE5FBC4FC8
:10294000891708F48EC00E945413D0933F03C0939C
:10295000400310934103882051F060913E03709131
:102960003F0380914003909141030E944D14CDB7E5
:10297000DEB7ECE00C94412DEC2EF12CE4919E2E70
:10298000CE2ED12C26E0D29FC00111242FEF30E0B3
:10299000B9010E940B2D8D2F90E0880F991FF5E54E
:1029A000F69FA001F79F500D1124841B950BB82EA4
:1029B000BB0CB80EA9014E195F094C9DC0014D9D7D
:1029C000900D5C9D900D1124F92FCB9DA001112439
:1029D000452F5527D901A41BB50BAC9DA001AD9D7A
:1029E000500DBC9D500D1124D901AB19B1095D01E9
:1029F000AE9CD001AF9CB00DBE9CB00D1124AB2F8E
:102A0000BB272A1B3B0B2C9DD0012D9DB00D3C9D5F
:102A1000B00D11242B2F62307105A1F050F4611517
:102A2000710509F481CF6130710581F0292FF52FEF
:102A30007BCF6430710569F080F06630710509F470
:102A400073CFF4CF2E2FE92FFB2F6ECF2E2FE52F34
:102A50006BCF292FFE2FEB2F67CFE92FF92D252FD5
:102A600063CF1196EC9311972C931296FC931297C7
:102A70008F5F139665CFEEE3F3E0438121E1421BC4
:102A800008F440E021E0628181810E946014089591
:102A9000EEE3F3E0438121E1420F08F44FEF21E040
:102AA000628181810E9460140895EEE3F3E0628107
:102AB00021E1621B08F460E021E0438181810E94F2
:102AC00060140895EEE3F3E0628121E1620F08F4FF
:102AD0006FEF21E0438181810E9460140895EEE34D
:102AE000F3E0818121E04381628188500E9460147B
:102AF0000895EEE3F3E0818121E043816281885F04
:102B00000E946014089580914203882319F0815037
:102B10008093420360913E0370913F038091400394
:102B2000909141030E944D14089580914203833097
:102B300018F48F5F8093420360913E0370913F03CE
:102B400080914003909141030E944D14089580911B
:102B50003E0380FF1EC08170826080933E0380919F
:102B60000103816080930103662351F060913E036D
:102B700070913F0380914003909141030E944D1456
:102B800020E0409141036091400380913F030E9407
:102B90006014089580913E038695815009F481E088
:102BA00061E00E94A715089561E081E00E94A715E9
:102BB0000895EEE3F3E083E0808311828FEF828358
:102BC00083831482AFEFB2E012968C9112978360E8
:102BD00012968C9360817181828193810E944D1441
:102BE0000895A4E0B0E0E7EFF5E10C942D2D4091BD
:102BF0007B0250917C0260917D0270917E022FB722
:102C0000F8948091530390915403A0915503B0918F
:102C100056032FBF841B950BA60BB70B11E0843610
:102C20009105A105B10590F10E94D213882399F175
:102C30000E94DC096E5F7F4F8F4F9F4F69837A83BD
:102C40008B839C83809122019091230189599D4F10
:102C50004091210150E04530510510F044E050E032
:102C6000BE016F5F7F4F0E94922D84E090E00E9432
:102C7000952C182F882351F00E94DC0960937B0269
:102C800070937C0280937D0290937E02812F249624
:102C9000E4E00C94492D0E94DC0900918802109117
:102CA000890220918A0230918B02600F711F821F6E
:102CB000931FC0CF4F925F926F927F928F929F929D
:102CC000AF92BF92EF92FF920F931F93CF93DF9338
:102CD0007B01FB0140805180628073809FB7F89434
:102CE0008090530390905403A0905503B0905603E6
:102CF0009FBF84189508A608B708F4E68F169104BC
:102D0000A104B10418F4C1E0442329F1C82F880FAD
:102D1000DD0BFE0183E0EE0FFF1F8A95E1F7EF5F09
:102D2000FE4F8181928189599D4F408150E0041767
:102D3000150708F4A801B9010E94922DCE010E9446
:102D4000952CC82F882339F00E94DC09F701608395
:102D50007183828393838C2FDF91CF911F910F9189
:102D6000FF90EF90BF90AF909F908F907F906F906B
:102D70005F904F900895A1E0B0E0E1ECF6E10C9493
:102D80002D2D80914703898320917A0290E041E0C4
:102D90002817190609F440E001E010E09E012F5FBA
:102DA0003F4F63E872E086E00E945A162196E4E005
:102DB0000C94492DA8E0B0E0E0EEF6E10C942D2D46
:102DC00085E0EEE3F3E0DE01119601900D928A9525
:102DD000E1F78091FF0290910003A09101038E839F
:102DE0009F83A88741E08885811101C040E008E009
:102DF00010E09E012F5F3F4F6FE772E085E00E9479
:102E00005A168111109201032896E4E00C94492D82
:102E10004F925F927F928F929F92AF92BF92CF928A
:102E2000DF92EF92FF920F931F93CF93DF930F9256
:102E3000CDB7DEB7C62E4A015901482E880F550876
:102E4000C2010E94952C782E882309F480C0C2010B
:102E500033E0880F991F3A95E1F7FC01EF5FFE4FD1
:102E6000438150E04115510511F041E050E08F5F82
:102E70009E4FFC016481758169597D4FCE01019699
:102E80000E94922DF40140815181628173812FB79C
:102E9000F8948091530390915403A0915503B091FD
:102EA00056032FBF841B950BA60BB70B84369105D9
:102EB000A105B10540F4B701C8010E944C0A9981EF
:102EC000891709F444C00C2C000CDD08C6010E94CF
:102ED000952C782E811113C0712C872D0F90DF91C6
:102EE000CF911F910F91FF90EF90DF90CF90BF9007
:102EF000AF909F908F907F905F904F900895C60104
:102F000023E0880F991F2A95E1F7FC01EF5FFE4F40
:102F1000438150E0E416F50608F4A7018F5F9E4F49
:102F2000FC016481758169597D4FC5010E94922D14
:102F3000B701C8010E944C0A99818913CDCF0E9424
:102F4000DC09F4016083718382839383C6CFA70178
:102F5000B801C5010E94922DC0CFA1E0B0E0E3EB23
:102F6000F7E10C94282DEE24E394F12C0DE612E009
:102F70009E012F5F3F4F43E652E063E082E00E94F4
:102F80000817C82E882339F100E080E01DC0D090DA
:102F90008D02D00E2D2D30E0A90142555D4F7A01F2
:102FA000E1E0F0E0EC0FFD1FE00FF11D1081FA01F0
:102FB0009081191BB12E1B149CF0912F17FD90E0EE
:102FC000191B111118C00F5F90918C020917F8F2AC
:102FD00081110E947F0C8C2D2196E9E00C94442DE8
:102FE000BA94F70180818F5F808360E08D2D0E940D
:102FF0001E148C2DE0CF1F5FF701808181508083EC
:1030000061E08D2D0E941E148C2DDBCFA4E0B0E07A
:10301000ECE0F8E10C94292D6B0184E0E82EF12C12
:1030200008E612E09E012F5F3F4F4FE552E061E05E
:1030300080E00E940817882361F049815A816B81E2
:103040007C8140935B0250935C0260935D027093BD
:103050005E0240915B0250915C0260915D02709152
:103060005E02F60140835183628373832496E8E015
:103070000C94452D9091990292FB222720F9281754
:1030800079F080FB92F99093990260919802709187
:10309000990284E090E00E94CD2D82E00E94630DB1
:1030A000089567EE7EEF90E080E00E94CD2D60E015
:1030B00082E090E00E94AF2D60E083E090E00E940B
:1030C000AF2D1092B7021092B60260E074E184E076
:1030D00090E00E94CD2D60E086E090E00E94AF2D50
:1030E0006FEF87E090E00E94AF2D40E050E0BA0122
:1030F00088E090E00E94C12D60E08DE090E00E94A9
:10310000AF2D40E050E0BA0188E190E00E94C12D6F
:1031100060E087E190E00E94AF2D40E050E0BA010E
:103120008CE190E00E94C12D70E060E080E290E0D0
:103130000E94CD2D40E050E0BA0188E190E00E946D
:10314000C12D40E050E0BA018FE090E00E94C12D17
:1031500040E050E0BA0183E190E00E94C12D089563
:103160001F920F920FB60F9211242F933F934F93FC
:103170005F936F937F938F939F93AF93BF93CF93FF
:10318000DF93EF93FF93D091E900DF708091EC0023
:10319000C82FC17080FDC0E81092E9008091F00056
:1031A000877F8093F00078940E94320F1092E9009C
:1031B0008091F00088608093F000CD2BCF70C09399
:1031C000E900FF91EF91DF91CF91BF91AF919F9176
:1031D0008F917F916F915F914F913F912F910F90C0
:1031E0000FBE0F901F9018951F920F920FB60F925F
:1031F00011242F933F934F935F936F937F938F93FC
:103200009F93AF93BF93EF93FF938091E10082FF71
:1032100009C08091E20082FF05C08091E1008B7FB0
:103220008093E1008091DA0080FF24C08091D80073
:1032300080FF20C08091DA008E7F8093DA00809139
:10324000D90080FF9DC080E189BD82E189BD09B4BC
:1032500000FEFDCF81E080936403809157038111CC
:1032600009C00E947E080E941F098091E2008460CC
:103270008093E2008091E10080FF17C08091E2001E
:1032800080FF13C08091E2008E7F8093E2008091E6
:10329000E20080618093E2008091D8008062809398
:1032A000D80019BC85E0809364038091E10084FF1D
:1032B0002BC08091E20084FF27C080E189BD82E1BC
:1032C00089BD89B5982F917080FFFBCF8091D80080
:1032D0008F7D8093D8008091E1008F7E8093E10004
:1032E0008091E2008F7E8093E2008091E200816015
:1032F0008093E20080916503882309F447C084E04D
:1033000080936403809164038091E10083FF27C070
:103310008091E20083FF23C08091E100877F80934A
:10332000E10082E080936403109265038091E100E4
:103330008E7F8093E1008091E2008E7F8093E20097
:103340008091E20080618093E20042E060E080E0F2
:103350000E94ED088091F00088608093F000FF915A
:10336000EF91BF91AF919F918F917F916F915F91FD
:103370004F913F912F910F900FBE0F901F90189576
:1033800019BC109264031092570374CF8091E3002C
:1033900087FD93E090936403B5CF78941F921FB696
:1033A0001F9211248F939F93AF93BF9380915303E8
:1033B00090915403A0915503B09156030196A11D1D
:1033C000B11D8093530390935403A0935503B0937E
:1033D0005603BF91AF919F918F911F901FBE1F9079
:1033E00018959C014FB7F894809153039091540322
:1033F000A0915503B09156034FBF821B930B0895C4
:103400002FB7F8948091530390915403A0915503E2
:10341000B09156032FBF0895B0E0A0E0E2E1FAE1D9
:103420000C94292D6B01C42FD22FFC01828188239B
:10343000A9F040934B030E94001A90934A03809393
:103440004903C77081E001C0880FCA95EAF70E945E
:10345000FF11CDB7DEB7E8E00C94452D10914B037A
:10346000141339C08091490390914A030E94F119C5
:103470007C01C6010E946108E816F90660F5C0E209
:10348000CD0F1D17C1F080E2810F883048F417700E
:1034900081E0012E01C0880F0A94EAF70E94F8111A
:1034A000C83048F481E09D2F977001C0880F9A952D
:1034B000EAF70E94FF1170E060E0802F0E9406147E
:1034C000C83038F6D77081E001C0880FDA95EAF786
:1034D0000E94F811BECFC77081E001C0880FCA9565
:1034E000EAF7F6CFB0E0A0E0E8E7FAE10C94272D88
:1034F0007C01DC0113964D915C91149711966C91AF
:1035000011978C910E948F0CC82E81116DC061E0C3
:10351000C7010E94C70DEC0190910001943009F49D
:1035200033C5BE01705241E06115B0E37B0708F07E
:1035300040E04170F70151815E3F20F481E020813D
:103540002E3F08F080E08170913009F052C0442392
:1035500009F41AC5D70115969C911597907F09F02B
:1035600013C512969C91992309F40EC5882309F47A
:103570000BC510920001D093E101C093E00186E0F9
:10358000F701ACE4B2E001900D928A95E1F7F70102
:103590008381948188519C4F90935402809353026D
:1035A0006115704288F48D2F8F7171F0833020F097
:1035B0009FEE980F923040F4D4FF02C08295807F36
:1035C000809352020E94FF1180913B02877061F04C
:1035D000D70112968C91882339F08091990282FF4D
:1035E00003C082E00E94630DCDB7DEB7EAE00C9421
:1035F000432D2091E0013091E101C217D307F1F48E
:10360000D7011296EC91E111BCC4933069F4109289
:103610004E0284E0809300018CE492E00E94721AD2
:1036200081E080930001D0CF61157042C8F780918E
:1036300052020E94F81110925202F2CF9111A4C4CA
:10364000F7019281992309F49FC48823A9F04423A8
:1036500029F0D70115968C91807F71F02430B4E267
:103660003B0741F000F52531F1E23F0719F0263123
:10367000324211F4533020F11092520284E08093D0
:1036800000018CE492E00E94721A83E080930001B2
:10369000C091000184E080930001C7010E94721A6A
:1036A000C093000191CF2C3091E3390739F02830D5
:1036B000A2E33A0719F022313442F1F65450DACF3E
:1036C000809152020E94F811109252028091510290
:1036D0008E70816180935102C4E0C09300018CE43C
:1036E00092E00E94721A10924E02C09300018CE484
:1036F00092E00E94721A82E0C9CF90E080E0D70188
:1037000012962C911297222309F454C415962C91E9
:10371000207F09F44FC4880F991F880F991FFC015F
:10372000EB59FE4FC281D381D12CC12CC933D105B5
:1037300019F420E5C22ED12C5E01B0EEAB1AB1080F
:10374000CE010E94F20D182FE8E0AE16B10410F081
:103750002097D9F40E94FF118C2F0E943E12C114B1
:10376000D104B1F48C2F0E940912812FA8E0AA166F
:10377000B10410F0CD2BB1F40E94F81125CF81E0F7
:1037800090E0BDCF82E090E0BACF0E94EE11E4CF8E
:103790008FE99FE00197F1F700C0000091E0C91A9E
:1037A000D108DDCF0E94E3110FCF06E221EE41EEFA
:1037B0006AE17CE7C7010E940C1A06CF07E225EEFA
:1037C00045EE6BE17CE7F6CF06E221EE40EE68E1E4
:1037D0007CE7F0CF07E225EE44EE69E17CE7EACF33
:1037E00006E221EE42EE6CE17CE7E4CF07E225EE53
:1037F00046EE6DE17CE7DECF08E221E045EE6EE1CA
:103800007CE7D8CFF7018281882309F4F4C31092B2
:103810004B03CE019057839708F0D7C384E090E024
:103820000E94A92D9093990280939802FE01E15085
:10383000F047E232F10520F4E151F24D0C94762D7F
:103840008091980281608093980295C0809199023E
:103850008860809399028FC0809198028260F3CF34
:10386000809198028460EFCF809198028860EBCFBE
:10387000809199028160EDCF809199028260E9CFB9
:10388000809198028061DFCF809198028062DBCFC7
:10389000809198028064D7CF0E941C0F809198027B
:1038A0008068D1CF809198028C60CDCF80919902B1
:1038B0008360CFCF809198028E7FC5CF809199028F
:1038C000877FC7CF809198028D7FBDCF809198026E
:1038D0008B7FB9CF80919802877FB5CF8091990275
:1038E0008E7FB7CF809199028D7FB3CF8091980260
:1038F0008F7EA9CF809198028F7DA5CF809198026D
:103900008F7BA1CF0E941C0F809198028F779BCF55
:1039100080919802837F97CF809199028C7F99CF75
:103920008091980282FB992790F921E0922790FBE1
:1039300082F990FB83F987CF80919902982F909517
:1039400091708E7F892B90FB81F983CF90919802A3
:10395000892F8F7B96FF806476CF0E941C0F9091F9
:103960009802892F97FB87F980586DCF61E08EE030
:1039700090E00E94AF2D609198027091990284E0CE
:1039800090E00E94CD2D0E941C0F1ECE60E0EFCF74
:1039900090919802892F8F7E94FF806154CF9091EF
:1039A0009802892F8E7F90FF81604DCF9091990270
:1039B000892F877F93FF88604CCF85E325C3809153
:1039C0003E0380FF15C08E7F80933E0360913E03CF
:1039D00070913F0380914003909141030E944D14E8
:1039E000809101038160809301030E945413ECCD08
:1039F000816080933E0361E086950E94A715E4CD27
:103A00004AEC55E164ED75E10E94620ADDCD44EDBA
:103A100055E16AEC75E1F8CF4FE655E169E775E1EC
:103A2000F3CF49E755E16FE675E1EECF45E555E1A6
:103A300062E675E1E9CF42E655E165E575E1E4CF7F
:103A40004BE355E168E475E1DFCF48E455E16BE312
:103A500075E1DACF43E855E165E975E1D5CF45E990
:103A600055E163E875E1D0CF61E081E0C6CF0E9407
:103A70001C0FFFEF24E33CE0F15020403040E1F721
:103A800000C0000081E08093E00080E28093D800D5
:103A90001092C9008FE19EE40197F1F700C0000089
:103AA00087E090EBDC018093790790937A07A093ED
:103AB0007B07B0937C0788E19CE00FB6F894A8954B
:103AC000809360000FBE90936000FFCF6FEF7FEF99
:103AD00090E080E00E94CD2D0E94371480919902E1
:103AE00082FB882780F991E089270E943A18F70124
:103AF0008281C081D181882309F446C0CE010E9411
:103B0000A40C182F682FCE010E94170DBE01812F23
:103B10000E94D30A0E94F00AD82FC92FA82ED701DD
:103B200012961C9112971596DC90D2949FE0D922A0
:103B300080913B028770C1F01123A9F08C2F807F08
:103B4000803421F080E28D0F883070F080919902EE
:103B500082FF0AC082E00E94630D80913B02877061
:103B6000CC24C3948111C12CBC2EB2948FE0B82216
:103B7000BBE0BB1508F469C0EB2DF0E0EF5EF14D42
:103B80000C94762D80E0B1CFCE010E94E50C182F69
:103B9000BDCF0C2F0F70C07F11F00295007F112355
:103BA000B9F0002369F080E28D0F883010F0A11089
:103BB00009C080914502082B009345020E94DF0E48
:103BC0008D2F41C080914402082B00934402F6CF10
:103BD0008D2F0E9409120023C1F1D05ED83010F061
:103BE000A11004C0802F0E94880C06C0009580910F
:103BF00044020823009344020E94DF0E26C00C2FCB
:103C00000F70C07FC03211F00295007FAA2059F0DA
:103C1000E1E0AE1609F469C0112309F473C0DD2098
:103C200009F469C0CDCF2091990222FD37C011233C
:103C300079F1002339F080914502082B0093450269
:103C40000E94DF0E80E00E943E12AB2DA850BB0BFD
:103C5000149710F40E94F513CC20A9F080913B0238
:103C600080FD11C0F70112828595859585950E948A
:103C70007F0DC7010E94721A80913B028595859540
:103C800085950E94510D60E0C7010E94C70DACCC24
:103C900080E00E9409120023C1F2A4CF112399F001
:103CA00090914602892F802BD11003C00E94FF11F2
:103CB000CCCFF1E0DF12FACF22FFC7CF891729F26C
:103CC00080934602C2CFD11006C00E94820C802F82
:103CD0000E94F811BACF21E0D21609F4B6CF802F96
:103CE0000E94F8110E94820CB0CF112331F035E010
:103CF0003D1508F4AACF802FD9CF84E08D1508F4A4
:103D0000A4CFE5CFDD2019F399E3A91209C0AFEFE5
:103D1000B7EEE3E0A150B040E040E1F700C00000A2
:103D20008D2F0E94091291CF8C2F869586958370D6
:103D300069F0813009F089CF8D2F9C2F937011117C
:103D400002C080E090E00E94020A7FCF8D2F9C2F5E
:103D50009370111102C080E090E00E94270A75CF95
:103D60008C2F837009F03FC011116FCF4D2F4295FA
:103D700046954770440F440F2D2F2F7030E0042ECE
:103D800002C0220F331F0A94E2F790E080E0D4FFD4
:103D900009C08FE090E002C0880F991F4A95E2F7B2
:103DA00080959095C695C695C370C23099F078F409
:103DB0004091B6025091B702C13039F0822B932B5B
:103DC000842395230E948F0D40CF242B352B822BEB
:103DD000932BF8CF822B932B2091B6023091B70210
:103DE00082279327EFCF8695112311F08C2F8170B6
:103DF000882309F42ACF4D2F429546954770440FEA
:103E0000440F2D2F2F7030E0042E02C0220F331FDD
:103E10000A94E2F790E080E0D4FF09C08FE090E0E0
:103E200002C0880F991F4A95E2F780959095C69534
:103E3000C695C370C23099F078F44091B8025091A1
:103E4000B902C13039F0822B932B842395230E9431
:103E50004C0DFBCE242B352B822B932BF8CF822BB2
:103E6000932B2091B8023091B90282279327EFCF8C
:103E7000CF70112329F08C2F0E947F0D8D2F16CF2C
:103E80008D2F0E94F8118C2F0E94510DDECE8D2FA8
:103E9000F2EFAF1699F1FA1570F020EFA216D1F0FB
:103EA00031EFA31691F0112309F45BC0D11088CE35
:103EB0008C2F8F7127C093EFA91639F1A4EFAA12A6
:103EC000F2CF8091990282FD2EC08C2F8F71112329
:103ED000D9F218C0112369F0B4E0BD1508F4B5CECD
:103EE000CF7181E090E002C0880F991FCA95E2F778
:103EF000B8CFE5E0ED1508F4A8CEF2CF8C2F8F7186
:103F00001111C2CF0E947F0DA0CE90E080E011235E
:103F100009F49DCFCF7181E090E002C0880F991F16
:103F2000CA95E2F794CF112389F0CF718C2F0E94AC
:103F30007F0D8091990282FF07C0F8E0CF9FC001FA
:103F40001124836080933B028C2FDCCF81E00E94A0
:103F5000630D21E02D1508F078CE82E00E94630DFC
:103F600074CEDD2059F0893309F0DACE3FEF87EEC9
:103F700093E0315080409040E1F7D0CE8C2F8F718C
:103F800083CF992309F461CBC836E4E2DE0709F454
:103F9000B4CBC936F1E2DF0709F4F1CBCA3622E22D
:103FA000D20709F4EFCB83E090E0CB3635E4D307BA
:103FB00009F4A5CBFE01E851FC47E730F10508F014
:103FC00021CCE35EF14D0C94762DC631FCE7DF0782
:103FD00049F5809145028A7A91E009F490E0909346
:103FE000E20169E2811165E388ED91E00E94E80950
:103FF0000E94DF0EE9CAC6312CE7D20799F58091FD
:10400000E2018111DACC89E2EAEDF1E020EE31E063
:104010009191891303C0DF0111971C922E173F075E
:10402000B9F7E6CFC3303CE7D30709F44FCD50F4DE
:10403000C1159CE7D90709F41ACDC130DC4709F452
:104040004BCD55CDCB35BCE7DB0709F49BCDCC354B
:10405000ECE7DE0709F442CDCA35DC4709F047CD6D
:1040600081E043CD809145028272FE01E052F84723
:10407000E531F10508F03BCDEC5DF14D0C94762D6A
:10408000B0E0A0E0E6E4F0E20C94282D8091080274
:10409000807F09F050C080910502882309F44BC04D
:1040A000C0913A0286E0B82E809109028C1709F47B
:1040B00042C0F0900302E0900402C0900602D0904B
:1040C0000702A6016E2D8F2D0E948F0CD0E081116A
:1040D00037C0BC9E8001BD9E100D1124F801E65F23
:1040E000FD4F81818E112CC080818F1129C082816A
:1040F000811126C0E380F480EC18FD0860E083E0C5
:1041000092E00E94C70D0E946108E816F906C0F40B
:10411000809108028F70806180930802F801E15F4E
:10412000FD4F80818F708061808383E092E00E94E8
:10413000721A0E949A0CCDB7DEB7E9E00C94442DB8
:104140002196C770B1CFA1E1B0E0E9EAF0E20C94AA
:104150001F2D8C0185E0F801DE011D9601900D9266
:104160008A95E1F7D8014C9011963C9011971296E0
:104170006C9012971396ED90FC9060E083E092E0D3
:104180000E94C70D4C0183E0C82E82E0D82EA0907B
:104190000602B0900702A50160910402809103021B
:1041A0000E948F0C582E811165C170900502F70195
:1041B000EA19FB095F0160E0772009F428C1C60114
:1041C0000E94C70D0E94610820900802A816B90637
:1041D00008F0DCC04091060250910702D090030223
:1041E000C0900402822D807F6C2D09F08AC08D2D35
:1041F0000E948F0C762C81111DC0D80111968C91D4
:1042000011978C1117C08C918D1114C0611012C0C0
:10421000822D8F7080618093080283E092E00E947B
:10422000721A80910802F8018583872D6196E2E178
:104230000C943B2DA701632D842D0E948F0C8111BE
:1042400024C081E08625F82FF170FF2E80FF3FC04B
:1042500080913A022091090236E0821318C04D86FF
:104260003E868D859E850E94D80C292F22952F7021
:10427000223008F1243030F59F7009F1D8011596ED
:104280009C91907FE1F4752CD0CF80E0DCCF90E062
:10429000389FF001399FF00D1124E65FFD4F4181F9
:1042A000341206C04081441203C0428164120FC020
:1042B00001968770D2CF9F7011F0882321F3805E22
:1042C000883008F3C8010E94721A5F2CDCCF61109D
:1042D00002C0712CAACF80910802816080930802ED
:1042E000BAE28B16B2E29B06A1F783E092E00E944D
:1042F000721A86E0E3E0F2E0DF011D928A95E9F7A9
:10430000E8CF8D2D0E948F0C811116C0F80181819C
:104310008C1112C080818D110FC061100DC02582DB
:10432000C8010E94721A86E0F801A3E0B2E0019091
:104330000D928A95E1F779CFC8010E94940D8823E8
:1043400009F16620F9F080910802803270F0209126
:1043500003023091040238872F831986FB86EA8690
:104360008C87CE0107960E94721A86E0F801A3E0BE
:10437000B2E001900D928A95E1F70E9440207724E7
:10438000739453CFC8010E94721AF9CF822D807F97
:1043900009F4ABCFB0900302A09004024091060252
:1043A000509107026A2D8B2D0E948F0C811116C02F
:1043B000D80111968C9111978A1110C08C918B1194
:1043C0000DC061100BC015962C92C8010E94721A84
:1043D00086E0F60111928A95E9F727CFC8010E947D
:1043E000940D882379F2662069F280910802803268
:1043F00008F4BBCF20910302309104023A83298351
:104400001B82FD82EC828E83CE010196ACCF83E0CD
:1044100092E00E94C70D0E946108A816B906C0F676
:10442000762C662009F4AECFF0900302E0900402EF
:1044300040910602509107026E2D8F2D0E948F0C25
:1044400081110AC0D80111968C9111978E1104C068
:104450008C918F1509F467CFC8010E94940D8111CA
:1044600084CF80910802816080930802C8010E9475
:10447000721ADBCE662009F485CFC8010E94940D24
:10448000782E882309F47ECF86E0F801A3E0B2E01D
:1044900001900D928A95E1F78091030290910402B8
:1044A0000E94D80C0E944020C0CEA7E1B0E0EBE50E
:1044B000F2E20C942E2D4B8B5C8B6D8B7E8B8F8B55
:1044C0006111109244021A8A198A85E0FE017396DE
:1044D000DE011D9601900D928A95E1F786E0FE01BE
:1044E0003D96DE01179601900D928A95E1F7CE0177
:1044F00007960E94A320811111C086E0FE01379625
:10450000DE01119601900D928A95E1F74A855B854F
:1045100068858F810E948F0C882359F016E0809166
:104520003A0290910902891331C06796E3E00C9436
:104530004A2D2091090230E0C90101968770992720
:1045400040913A024817190699F096E0929FD001DF
:10455000939FB00D1124A65FBD4FFE0131960190CF
:104560000D929A95E1F7809309020E949A0CD6CF9A
:104570000E941C0F1092090210923A0286E0E3E0BA
:10458000F2E0DF011D928A95E9F7C8CF819FC00153
:104590001124865F9D4F0E94A320882331F28091D1
:1045A0003A0290E001968770992780933A02B7CF3C
:1045B000A0E1B0E0EEEDF2E20C94242D8E01075F55
:1045C0001F4F88E0D8011D928A95E9F781E4C82E33
:1045D00081E0D82EF12CE12CAA24A394B12C21E463
:1045E000822E21E0922EF60181916F018F3F09F416
:1045F00042C0F894E82FE295EF70F0E021A18F70AF
:10460000A50102C0440F551F8A95E2F7CA01922FF7
:10461000982B91A392A18095892382A3789400C0BE
:10462000E9E3F1E0712C31E021912F3F09F46BC0F7
:10463000A22FA295AF70B0E090968C9190E02F7071
:1046400002C0959587952A95E2F780FD5CC0832F7F
:10465000782A330F8E169F0639F7F601319780813D
:104660008F3F11F00E94790A50EA5A95F1F7F8014C
:10467000EE0DFF1D70828FEFE81AF80AA4E0EA162B
:10468000F10409F0B0CF48E050E0B8018EE892E0C4
:104690000E94852D009741F028E0F801AEE8B2E0D5
:1046A00001900D922A95E1F700919702892B69F10B
:1046B00081E0809349020E94001A909348028093FF
:1046C000470280914702909148020E94F119059794
:1046D00000F110E003561D4F44E050E06EE872E038
:1046E000C8010E94852DF12C892B51F084E0EEE861
:1046F000F2E0D80101900D928A95E1F7FF24F3943E
:104700001092490207C080E0A3CF80914902811135
:10471000D8CFF12C0E94D213E82EE0919702882383
:1047200009F4AFC019821A821B821C820E2F10E07E
:1047300003561D4F809187028A3008F06CC046E016
:1047400058E1BE016F5F7F4FC8010E949F1388230D
:1047500009F486C04DEA57E1BE016F5F7F4FC80183
:104760000E949F13882309F47BC041EF55E1BE01ED
:104770006F5F7F4FC8010E949F13882309F470C0A8
:104780004AED56E1BE016F5F7F4FC8010E949F1343
:10479000882309F465C04BEB56E1BE016F5F7F4F84
:1047A000C8010E949F13882309F45AC010928702FF
:1047B0008091960290E044E050E0BE016F5F7F4F31
:1047C00083569D4F0E94852D21E020935902892B0D
:1047D000C9F5E12C80910001811117C00E94001AD7
:1047E0002091530230915402821B930B8F3F9F47BD
:1047F00060F41092520284E0809300018CE492E015
:104800000E94721A83E0809300018E2D8F2960969A
:10481000EDE00C94402D80914A0290914B020E9451
:10482000F119843F914008F08ACF80915902882382
:1048300081F284E0FE013196DF011D928A95E9F74D
:1048400010925902E0919602F0E0E356FD4F898103
:104850009A81AB81BC8180839183A283B383BACFD9
:10486000809187028F3F31F08F5F809387028A307B
:1048700008F49ECF0E94001A90934B0280934A0244
:10488000D4CFF0E0E356FD4F84E0A8E6B2E001901B
:104890000D928A95E1F764E070E088E692E00E946C
:1048A0004C0A809367024091B30250E06091B202DB
:1048B00070E062557D4FCE0101960E94922D898154
:1048C00080936D0261E070E0CE0101960E944C0A77
:1048D00080936C0280906E0290906F02A0907002A4
:1048E000B09071028091550290915602A0915702AA
:1048F000B091580288169906AA06BB06D1F080929C
:10490000550290925602A0925702B09258020E940D
:10491000D21381110EC00E94DC09861A970AA80AD8
:10492000B90A8092880290928902A0928A02B0927B
:104930008B0288E0E2E7F2E0DE01119601900D9231
:104940008A95E1F780917202869500917302D0906A
:104950007402C090750210917902109279021123AD
:10496000A9F010FF0BC0298190913E0320FF15C0D4
:10497000916090933E0360E00E94A71511FF06C06E
:1049800020E04C2D6D2D802F0E94601480917A02C2
:10499000882371F00E94D61238CF9E7F90933E03F9
:1049A000809101038160809301030E945413E6CF3C
:1049B0000E94BB122ACF1F921FB61F9211248F9301
:1049C0009F93AF93BF9380915203811113C0809145
:1049D000530390915403A0915503B091560341960F
:1049E000A11DB11D8093530390935403A0935503CD
:1049F000B0935603BF91AF919F918F911F901FBEAF
:104A00001F901895CDB7DEB72F970FB6F894DEBF7D
:104A10000FBECDBF85B7806885BF85B7806885BF6D
:104A200084B7877F84BF0FB6F894A8958091600003
:104A3000886180936000109260000FBE80E890E073
:104A40000FB6F89480936100909361000FBE87E7E2
:104A50009AE09093D7018093D6010E947E080E942D
:104A60001F098091E20084608093E2007894809135
:104A700064038823A1F01091E9001F709091EC006D
:104A8000892F817090FD80E8182B1092E9008091A9
:104A9000E80083FD0E94320F1F701093E90082E04E
:104AA00084BD93E095BD9AEF97BD80936E00109200
:104AB00088021092890210928A0210928B02239827
:104AC0002B9A6E9A769825E02A95F1F7000083B12B
:104AD00083FB882780F96E98769A30EA3A95F1F749
:104AE0008093450180914501882309F461C01092AB
:104AF00057018AE0809358010E94D21381110E94CD
:104B0000A92B9091450181E098279093B202482FFC
:104B1000491B40938D02909145018093B30290917F
:104B2000450180938C0280914501811106C085EF7B
:104B300080934F0184EF80934E0120914F01E22F2B
:104B4000E295EF70F0E061A12F7081E090E0AC01A0
:104B500001C0440F2A95EAF7342F3095362331A34C
:104B600022A1242B22A320914E01E22FE295EF7087
:104B7000F0E031A12F7001C0880F2A95EAF7982F35
:104B80009095932391A392A1892B82A38FE891E022
:104B90000197F1F700C000001091B30264EB72E0DE
:104BA0004FE451E08EE4E82E81E0F82EFB012CC0AA
:104BB0008AE0809357019ECFDA012D91AD01822FBB
:104BC00082958F7090E0DC0190968C9190E02F7030
:104BD00002C0959587952A95E2F78170D7019D913E
:104BE0007D01292F22952F7030E0D90190962C91CC
:104BF00030E09F7002C0359527959A95E2F790E0D6
:104C000020FD92E0892B81938E2F861B8117A0F2C5
:104C100080914501811120C084E98093410186E69D
:104C20008093420187E98093430186EC809344019D
:104C300088E0EDE5F1E0DE01119601900D928A9594
:104C4000E1F7FE013196A9E3B1E0CE010996219189
:104C50002D938E179F07D9F78091450194E081111C
:104C600090E09093970284E0891B8093960201E480
:104C700011E0F80181918F018F3F11F00E94790AB4
:104C8000F1E005341F07A9F709E311E0D8018D9180
:104C90008D018F3F11F00E94790AB1E001341B07AA
:104CA000A9F788E0EDE9F2E0DF01282F1D922A95AF
:104CB000E9F7EEE8F2E0DF011D928A95E9F790E06E
:104CC00080E00E94A92D873E9E4F11F00E9451184E
:104CD00082E090E00E949B2D8093A50284E090E00A
:104CE0000E94A92D909399028093980283E090E00E
:104CF0000E949B2D90E00E948F0D82E08093FA022B
:104D000080E880936E030E94632A6DE070E08FE379
:104D100094E00E949112892BE9F58091FA0263E0F8
:104D200070E081FDE9C08CE394E00E949112892B30
:104D300089F56DE070E08CE294E00E949112892B7D
:104D400049F50E94DC09605A75418F4F9F4F60936F
:104D50004303709344038093450390934603E1E734
:104D6000F3E080E094E0DF019C011D92215030408F
:104D7000E1F7F0937807E09377078FEF9FEF909339
:104D8000700380936F0381E080934803809347030F
:104D90001092FB0280919A02811139C090E080E06C
:104DA0000E94A92D873E9E4F21F00E9451180E941B
:104DB000D91588E090E00E94A32D60933E03709384
:104DC0003F038093400390934103809101038360EC
:104DD000809301036E7F71F40E94D91588E090E002
:104DE0000E94A32D60933E0370933F038093400382
:104DF000909341030E94680A80913E0380FF04C0A3
:104E000060E086950E94A71581E080939A020E9437
:104E1000D213811102C00E94AC2B86E491E09093E2
:104E20004F0380934E0360E4B62E44244394512CE8
:104E30008091640300E112E1853009F49CC00E9476
:104E4000D82236EAE32E32E0F32E4DE9842E42E0FA
:104E5000942E5CEAC52E51E0D52EB6019401F701DF
:104E60009191D9018D919D01DB014D91BD0184236B
:104E7000B2E0EE3AFB0709F488C0981789F30E9464
:104E8000D213282E00E0F40111914F01D6018D912B
:104E90006D011823F70131907F01311629F1312678
:104EA000A12C77247394872D8321B1F02220A1F0C7
:104EB000A9860A8791E0872D812309F490E09B87DA
:104EC0000E94001A8160782F9D878C8749855A85BA
:104ED0006B858D850E945522A394770CF8E0AF1264
:104EE000E2CFF701319710830F5F083061F60E941F
:104EF000DC09CC24C3946AC089E394E016CF809186
:104F00006403843029F10E94BB121092520388E19D
:104F100090E00FB6F894A895809360000FBEB09211
:104F2000600083B7817F846083BF83B7816083BF64
:104F30007894889583B78E7F83BF0FB6F894A89531
:104F400080916000886180936000109260000FBEC5
:104F500080916303882379F00E94D822EDE9F2E082
:104F6000ACEAB1E081919D91892309F096C292E06B
:104F7000E53AF907B9F780916403853009F4BFCFAA
:104F80000E941C0F0E94F5135ACF981378CF0E94ED
:104F9000001A8C0180919B0290919C0208171907BE
:104FA000A1F08FEF89838A831B820E94001A81609F
:104FB000782F9D838C8349815A816B818D810E94DA
:104FC000552210939C0200939B02C12C0E94D21385
:104FD000E12CD12C8091B302E81608F468C0D110FE
:104FE0000E947F0C80914803882309F41FC180919F
:104FF000FC029091FD020E94F119C29708F4F6C0DC
:105000000E94001A9093FD028093FC0281E793E0D6
:1050100090937807809377070E94D213882309F42E
:1050200028C185ED98E00E94D10E8EEC98E00E9498
:10503000D10E87EC98E00E94D10E8FEB98E00E9491
:10504000D10E8091B8029091B9022091B6023091B0
:10505000B702822B932B292F3327E0E0211531054E
:1050600011F0C901E8E09C0104E0369527950A9506
:10507000E1F72115310511F0EC5FC9019C0136956E
:105080002795369527952115310511F0EE5FC90159
:1050900096958795892B09F0EF5F8CE798E0E730CC
:1050A00008F087C0F0E0E75CF14D0C94762D0E2DF2
:1050B00010E0F801E15BFE4F8081E82FE295EF7090
:1050C000F0E0E0A1F0E08F7002C0F595E7958A95D9
:1050D000E2F7E170D801A25BBE4F2C91A22FA295FE
:1050E000AF70B0E090968C9190E02F7002C09595D3
:1050F00087952A95E2F780FD52C080E08E2BD8017B
:10510000AC54BD4FEC919E2F9370891709F445C0A4
:10511000EE0FEE0FE82BEC93F090B202FE0CEF7066
:10512000F0E0EC54FE4F00551D4F8081D8019C915A
:10513000890F8C93A12C843084F0EF2DF0E0E255A0
:10514000FD4F80818F5F80830E94D213A82E882319
:1051500041F160E08F2D0E941E14F80180818D3F87
:1051600084F4EF2DF0E0E255FD4F80818150808383
:105170000E94D213A82E8823B9F061E08F2D0E94DF
:105180001E14D8018C91082E000C990B64E070E07D
:105190000E94622DF8018083DA28E3941BCF82E01D
:1051A000ADCFAA24A394D9CFAA24A394EACF87EBA6
:1051B00098E00E94D10E0E94F513182F8CE698E01B
:1051C00010FF02C084E798E00E94D10E8CE598E0C1
:1051D00011FF02C084E698E00E94D10E8CE498E0B2
:1051E00012FF02C084E598E00E94D10E80916F0307
:1051F00090917003892B09F078C080914703882330
:10520000A9F00E94DC09009143031091440320910E
:10521000450330914603601B710B820B930B6F3F6C
:105220007F4F8F4F9F4710F40E94BB12C11001C0E7
:10523000D1100E94D6120E94F5139091FE02891798
:1052400009F4F6CD8093FE020E94DC09F1CD8FEACD
:1052500098E0AFCF83EA98E0ACCF8EE998E0A9CF91
:1052600089E998E0A6CF8FE898E0A3CF87E898E097
:10527000A0CF8091770790917807815793409C0148
:105280003C5F21303440A0F020E034E0281B390B93
:1052900040916F0350917003ECE4F4E0280F391F44
:1052A0008217930740F05093700340936F039ECF93
:1052B00020E034E0EDCF6491DC01AF58BC4F7C912D
:1052C000671781F06C93BC01A6E076956795AA9567
:1052D000E1F7D20102C0AA0FBB1F6A95E2F7BD0138
:1052E0004A2B572B01963196DBCF809148038823B8
:1052F00009F483CF8091FB0281117FCF0E94D612E7
:1053000020916F03309170032115310509F475CF99
:1053100080E0082F10E07201082E02C0EE0CFF1C86
:105320000A94E2F7A70142235323452B11F48F5F20
:10533000F0CF9091FA0290FF98C0880F880F880FE5
:105340008093520110925501895F8093530187E049
:105350008093560124E630E047E050E060E571E0DC
:1053600088E70E94032B892B09F047CFA80126E08C
:10537000440F551F2A95E1F78091FA0280FF86C0FD
:10538000EAEBF2E02B2D11922A95E9F78CEC91E0F3
:105390009F878E8704EC11E0AE85BF852D91BF8776
:1053A000AE87F80121908F01240E352E311CC101EA
:1053B0008F589C4F1C01E22FF0E0E654FD4F30E087
:1053C00020E097E0992E921AA42C022E01C0AA0C7C
:1053D0000A94EAF7310190E0D3018D913D018A21D1
:1053E000692D691B6770862E062E000C770BB82F6F
:1053F00001C0BB0F8A94EAF78B2E719561957109F4
:105400006770772701C086956A95EAF7882A8081B8
:10541000882A80829F5F9830F9F62F5F3F4F319640
:105420002830310571F6E4EDF1E02E853F85E21775
:10543000F30709F0B1CF04E610E020E430E04AEBD6
:1054400052E060E488E70E94242B892B09F0D5CE36
:10545000E094F09480916F0390917003E822F92218
:10546000F0927003E0926F03C8CE8295880F880F88
:1054700080748093520198013695279520935501A9
:10548000815C809353011092560164CF4F585C4F5A
:1054900004E610E020E430E0D4CF09BD19BD09B422
:1054A00000FEFDCF8091D8008F7D8093D800809141
:1054B000E00082608093E0008091E00081FDFCCFFD
:1054C0000E941C0F58CD1092B9008CE08093B80058
:1054D0000895B0E0A0E0EFE6FAE20C94262DB82E95
:1054E000EB010E94001A6C01EE24E394F12CC4310C
:1054F000D10560F025E0E22EF12CCF3FDC0731F042
:10550000CE0164E170E00E940B2D7B0184EAA82E9D
:1055100094E8992E1092BC00A092BC000E94001A40
:105520008C018091BC0087FF0DC08091B900887FFD
:105530008830F9F08091B900887F8031D1F00FEF89
:105540001FEF08C0C8010E94F119E816F90648F7D4
:105550000EEF1FEFCF3FDC07E9F2C6010E94F11901
:10556000C817D907B8F6C801CDB7DEB7EBE00C9481
:10557000422DB092BB009092BC000E94001A8C0198
:105580008091BC0087FF0AC08091B900887F883174
:1055900011F08034A1F610E000E0E5CFC8010E94D0
:1055A000F119E816F90660F7D3CF0F931F93CF9345
:1055B000DF93EB018093BB0084E88093BC000E94E2
:1055C000001A8C018091BC0087FF11C02091B900A6
:1055D000287F81E090E0283211F490E080E09195FE
:1055E00081959109DF91CF911F910F910895CF3F40
:1055F000DC0741F3C8010E94F119C817D90710F759
:105600008EEF9FEFEFCFB0E0A0E0E9E0FBE20C947B
:10561000292D6B018A017901B9010E94692AE601ED
:105620000C0D1D1DC017D10711F097FF08C024E90C
:105630002093BC00CDB7DEB7E8E00C94452DB70150
:1056400089910E94D52AEECFB0E0A0E0EAE2FBE229
:105650000C94292DC62F6A017901B8010E94692A8C
:1056600097FD0CC0B8018C2F0E94D52AE601EC0CE6
:10567000FD1CCE15DF0511F097FF08C024E920932B
:10568000BC00CDB7DEB7E8E00C94452DB801899198
:105690000E94D52AEECF84E98093BC0008958EE164
:1056A0004A9B02C08150E1F74A9BFECF08955A9869
:1056B00080E28A95F1F75A9A0895FC013BE03A9509
:1056C000F1F798E020E080E031E040E14A95F1F721
:1056D000880F4A9B02C08160232742E04A95F1F778
:1056E000000040E14A95F1F7915079F790E19A95E1
:1056F000F1F799B132E03A95F1F7000040E14A95AF
:10570000F1F792FB992790F992272081920F9083CD
:105710000895A1E0B0E0EFE8FBE20C942B2D198294
:105720008C017C01E60EF11C0E151F0541F481E091
:105730009981911180E02196E6E00C94472D0E941A
:105740004F2BCE0101960E945D2BF80181938F01B2
:10575000EBCF529A5A9A089552985A9AEA9AE9E6E1
:10576000F0E080818F7C808308956150770B91E019
:1057700001C0990F6A95EAF720E031E0911108C065
:10578000222391F05A9A80E28A95F1F75A98089567
:10579000492F482339F05A9A232740E24A95F1F7D6
:1057A0009695ECCF5A98F9CF5A98EDCFFF920F9378
:1057B0001F93CF93DF93EC018C01060F111DC017CF
:1057C000D10729F4CDB7DEB7E5E00C94482DF99068
:1057D0000E94572B68E08F2D0E94B52BF0CF1F92AF
:1057E0000F920FB60F9211240F931F932F933F9395
:1057F0004F935F936F937F938F939F93AF93BF93D9
:10580000EF93FF93CF93DF930F92CDB7DEB719825B
:105810000E944F2BCE0101960E945D2B082F06950A
:1058200006950695282F22952570902F9570290FA3
:10583000922F937026952695920F982797708981BD
:10584000982B09F05CC0083008F059C080E18A95B7
:10585000F1F75A9A529A82E08A95F1F700C05A9865
:1058600088E0089F80011124D801AF5FBE4F1696D3
:10587000ED91FC9117973097A9F06091AA01709172
:10588000AB0114962D913C911597260F371F119659
:105890008D919C911297680F791F13964C911397D5
:1058A0008C910995F801EF5FFE4F6381662351F0FB
:1058B0002091AA013091AB0184819581820F931FC1
:1058C0000E94D62B0E94572B80E18A95F1F75A98B7
:1058D00052985A9A80E18A95F1F7F801EF5FFE4FEE
:1058E0006081662351F02091AA013091AB01818142
:1058F0009281820F931F0E94892B0E944F2B0F9041
:10590000DF91CF91FF91EF91BF91AF919F918F91D7
:105910007F916F915F914F913F912F911F910F91C7
:105920000F900FBE0F901F9018950F931F93CF935A
:10593000DF93EC0108970CF04CC0F894529A5A98F7
:1059400085E08A95F1F700009C2F969595708C2F35
:105950008570980F892F83709695969523E0CC0FCC
:10596000DD1F2A95E1F7980F8E01092B0E94572B16
:1059700000C068E0802F0E94B52B80E18A95F1F786
:1059800052985A9A4A9B1EC087E090E04A991CC0E0
:10599000FE01EF5FFE4F63816623F9F02091AA01BB
:1059A0003091AB0184819581820F931F0E94892BD6
:1059B000811113C0529A5A9A7894DF91CF911F9116
:1059C0000F91089500C0DECF019729F4529A5A9A98
:1059D000789480E0F2CF00C0D9CF0E944F2B80E2B4
:1059E0008A95F1F75A98529A80E18A95F1F7CF5F3C
:1059F000DE4F6881662351F02091AA013091AB01FE
:105A000089819A81820F931F0E94D62B0E94572B67
:105A1000789481E0D2CFAA1BBB1B51E107C0AA1F1B
:105A2000BB1FA617B70710F0A61BB70B881F991F3F
:105A30005A95A9F780959095BC01CD0108952F92B4
:105A40003F924F925F926F927F928F929F92AF920E
:105A5000BF92CF92DF92EF92FF920F931F93CF935B
:105A6000DF93CDB7DEB7CA1BDB0B0FB6F894DEBFF2
:105A70000FBECDBF09942A88398848885F846E8418
:105A80007D848C849B84AA84B984C884DF80EE8062
:105A9000FD800C811B81AA81B981CE0FD11D0FB66B
:105AA000F894DEBF0FBECDBFED010895991B79E0DC
:105AB00004C0991F961708F0961B881F7A95C9F79E
:105AC0008095089597FB072E16F4009407D077FD74
:105AD00009D00E940B2D07FC05D03EF490958195CE
