:100000000C942A080C9462080C9462080C942C2C12
:100010000C9462080C9462080C9462080C946208B8
:100020000C9462080C9462080C94F6280C94DE2957
:100030000C94A2180C9462080C9462080C94620848
:100040000C9462080C9462080C9462080C94620888
:100050000C9462080C94D2280C9462080C946208E8
:100060000C9462080C9462080C9462080C94620868
:100070000C9462080C9462080C9462080C94620858
:100080000C9462080C9462080C9462080C94620848
:100090000C9462080C9462080C9462080C94620838
:1000A0000C9462080C9462080C94620800AF00AED5
:1000B00007087F0807003E5B4F5B3E003E6B4F6BBF
:1000C0003E001C3E7C3E1C00183C7E3C18001C5729
:1000D0007D571C001C5E7F5E1C0000183C18000051
:1000E000FFE7C3E7FF00001824180000FFE7DBE785
:1000F000FF0030483A060E00262979292600407F65
:1001000005050700407F05253F005A3CE73C5A00A3
:100110007F3E1C1C0800081C1C3E7F0014227F220E
:1001200014005F5F005F5F0006097F017F000066CB
:1001300089956A0060606060600094A2FFA29400EC
:1001400008047E04080010207E20100008082A1CE5
:100150000800081C2A0808001E10101010000C1EB1
:100160000C1E0C0030383E383000060E3E0E0600E5
:1001700000000000000000005F0000000007000712
:100180000000147F147F1400242A7F2A12002313F6
:10019000086462003649562050000008070300003A
:1001A000001C224100000041221C00002A1C7F1C70
:1001B0002A0008083E080800008070300000080887
:1001C0000808080000006060000020100804020019
:1001D0003E5149453E0000427F4000007249494976
:1001E00046002141494D33001814127F1000274565
:1001F000454539003C4A4949310041211109070070
:10020000364949493600464949291E000000140074
:1002100000000040340000000008142241001414C3
:1002200014141400004122140800020159090600A8
:100230003E415D594E007C1211127C007F494949B4
:1002400036003E41414122007F4141413E007F490D
:10025000494941007F09090901003E4141517300AC
:100260007F0808087F0000417F4100002040413F97
:1002700001007F08142241007F40404040007F027F
:100280001C027F007F0408107F003E4141413E0078
:100290007F09090906003E4151215E007F091929A5
:1002A000460026494949320003017F0103003F40CF
:1002B00040403F001F2040201F003F4038403F008B
:1002C0006314081463000304780403006159494D62
:1002D0004300007F4141410002040810200000411A
:1002E00041417F00040201020400404040404000C0
:1002F0000003070800002054547840007F2844443D
:100300003800384444442800384444287F00385496
:100310005454180000087E09020018A4A49C780018
:100320007F080404780000447D4000002040403DE8
:1003300000007F102844000000417F4000007C0442
:10034000780478007C080404780038444444380079
:10035000FC182424180018242418FC007C08040429
:10036000080048545454240004043F4424003C40F2
:1003700040207C001C2040201C003C4030403C00C1
:100380004428102844004C9090907C004464544CC5
:1003900044000008364100000000770000000041E2
:1003A000360800000201020402003C2623263C001D
:1003B000000000000000404040F0F8F8FF38FFF86F
:1003C000F83FF8F8FF38FFF8F8F040404000000030
:1003D00000000080C0C0C0800000C0C080000000DD
:1003E00080C0C000C0C0000080C0C000000000008D
:1003F000C0C0C0C0C000C0C00000000000000000BD
:1004000000000000000000000000000000000000EC
:1004100000000000000000000000000000000000DC
:10042000000000000000000000000000000000C00C
:10043000F0F8FC3E1E06010000007F4141417F00B4
:100440007F4141417F000080C0E07E5B4F5BFEC08A
:100450000000C000DCD7DEDEDED7DC00C00000001C
:10046000000000000000000000000000000000008C
:10047000000000000000494949FFFFFFFFE0DFBF27
:10048000BF00BFBFDFE0FFFFFFFF49494900000099
:1004900000001F3F6060E0BF1F007F7F071E381E07
:1004A000077F7F007F7F0E1F3B7160000000000010
:1004B0007F7F0C0C0C007E7E007F7E0303007F7E1E
:1004C00003037E7E03037F7E000F3E703C063C707C
:1004D0003E0F00327B49493F7E007F7E0303001EB2
:1004E0003F69696F26000000000000000000000363
:1004F0000F1F3F3C7870600000007F4141417F004A
:100500007F4141417F00307B7F7830202030787FF1
:100510003B0003000F7F0F0F0F7F0F000300000051
:1005200000000000000000000000000000000000CB
:10053000000000000000010101070F0F7F0F7F0F77
:100540000F7E0F0F7F0F7F0F0F07010101000000CB
:100550000000000000000001010000000000000099
:10056000000000000000000000000000000000008B
:10057000000000000000000000000000000000007B
:10058000000000000000000000000000000000006B
:10059000000000000000000000000000000000005B
:1005A000000000000000000000000000000000004B
:1005B000000000000000000000000000000000003B
:1005C000000000000000000000000000000000002B
:1005D000000000000000000000000000000000001B
:1005E000000000000000000000000000000000000B
:1005F00005010980A101850319012AB7001501260B
:10060000B700950175108100C0050C0901A1018595
:100610000419012AA002150126A002950175108176
:1006200000C005010906A101050719E029E7150029
:10063000250195087501810295017508810105075D
:10064000190029FF150026FF009506750881000591
:1006500008190129051500250195057501910295D7
:100660000175039101C009023B00020100A0FA09D3
:1006700004000001030101000921110100012244CD
:1006800000070581030800010904010001030000BF
:100690000009211101000122320007058203200018
:1006A0000112010002000000081D8D9D9D00010146
:1006B00002000116034B00790072006900610020FE
:1006C00000720065007600320000001803730070AD
:1006D000006C00690074006B0062002E0063006F04
:1006E000006D000000040309040000000000000089
:1006F0000000000000008080C0E0F07078383C1CF2
:100700001E0E0E0E0707070707070707070707074D
:10071000070707070E0E0E1E1C3C387870F0E0C06D
:1007200080800000000000000000000000000000C9
:1007300000000000000000000000000000000000B9
:1007400000000000000000000000000000000000A9
:100750000000000000000000000000000000000099
:100760000000000000000000000000000000000089
:10077000C0E0F07C3E1F0F07030180C0E0F0783836
:100780003C1C1E0E0E070787E77F1FFFFF1F7FE73A
:100790008707070E0E1E1C3C3878F0E0C08001036E
:1007A000070F1F3E7CF0E0C00000000000000000CA
:1007B0000000000000000000000000000000000039
:1007C0000000000000000000000000000000000029
:1007D0000000000000000000000000000000000019
:1007E00000000000000000000000000000F0FCFF1E
:1007F0001F07010000C0F0FCFEFFF7F3B1B030307E
:10080000303030303078FE87010000FFFF000001FB
:1008100087FE7830303030303030B0B1F3F7FFFE43
:10082000FCF0C0000001071FFFFCF000000000000A
:1008300000000000000000000000000000000000B8
:1008400000000000000000000000000000000000A8
:100850000000000000000000000000000000000098
:10086000000000000000000000000000FFFFFF008B
:1008700000000000FEFFFF0101071E78E181838375
:1008800086868C8C9898B1B7FEF8E0FFFFE0F8FE02
:10089000B7B198988C8C8686838381E1781E070196
:1008A00001FFFFFE0000000000FFFFFF000000004E
:1008B000FFFF0000C0C030300000F0F0000000007A
:1008C0000000F0F00000F0F0C0C030303030C0C0A8
:1008D00000003030F3F30000000000003030303012
:1008E0003030C0C00000000000000000FFFFFF002B
:1008F000000000007FFFFF8080E0781E8781C1C17B
:100900006161313119198DED7F1F07FFFF071F7FCF
:10091000ED8D191931316161C1C181871E78E08087
:1009200080FFFF7F0000000000FFFFFF00000000CD
:100930003F3F03030C0C30300000000033333333EF
:1009400033330F0F00003F3F0000000000000000A5
:10095000000030303F3F303000000C0C3333333375
:1009600033333F3F0000000000000000000F3FFF56
:10097000F8E0800000030F3F7FFFEFCF8D0D0C0CE0
:100980000C0C0C0C0C1E7FE1800000FFFF000080AF
:10099000E17F1E0C0C0C0C0C0C0C0D8DCFEFFF7FAF
:1009A0003F0F03000080E0F8FF3F0F000000000051
:1009B0000000000000000000000000000000000037
:1009C0000000000000000000000000000000000027
:1009D0000000000000000000000000000000000017
:1009E0000000000000000000000000000000000007
:1009F00003070F3E7CF8F0E0C0800103070F1E1CC8
:100A00003C38787070E0E0E1E7FEF8FFFFF8FEE7C1
:100A1000E1E0E0707078383C1C1E0F07030180C0D5
:100A2000E0F0F87C3E0F070300000000000000002B
:100A300000000000000000000000000000000000B6
:100A400000000000000000000000000000000000A6
:100A50000000000000000000000000000000000096
:100A60000000000000000000000000000000000086
:100A7000000000000000010103070F0E1E1C3C389F
:100A800078707070E0E0E0E0E0E0E0E0E0E0E0E01E
:100A9000E0E0E0E070707078383C1C1E0E0F070339
:100AA0000101000000000000000000000000000044
:100AB0000000000000000000000000000000000036
:100AC0000000000000000000000000000000000026
:100AD0000000000000000000000000000000000016
:100AE0000000000000000000002020202020202026
:100AF000005343524C434B20002020202020202034
:100B0000004341504C434B20002020202020202037
:100B1000004E554D4C434B2000556E646566696E22
:100B200065640A0041646A7573740A0046756E63F1
:100B300074696F6E0A0053796D0A004E61760A007F
:100B4000436F6C656D616B2D44480A0044766F728B
:100B5000616B0A005157455254590A004C6179653E
:100B6000723A2000726576320A0A004B7972696126
:100B70002000808182838485868788898A8B8C8DFA
:100B80008E8F9091929394A0A1A2A3A4A5A6A7A8AA
:100B9000A9AAABACADAEAFB0B1B2B3B4C0C1C2C321
:100BA000C4C5C6C7C8C9CACBCCCDCECFD0D1D2D38D
:100BB000D400000101010101010101010202020250
:100BC00002020202020303030303030303040404F7
:100BD00004040404050505050506060606060707C0
:100BE00007070708080808090909090A0A0A0B0B78
:100BF0000B0C0C0C0D0D0D0E0E0E0F0F0F10101117
:100C0000111112121313141415151616171718189C
:100C100019191A1A1B1B1C1D1D1E1E1F2020212204
:100C200022232424252626272829292A2B2C2D2D4A
:100C30002E2F30313232333435363738393A3B3C67
:100C40003D3E3F404142434445464748494A4C4D5A
:100C50004E4F50515354555658595A5B5D5E5F6123
:100C60006264656668696B6C6D6F707273757778B6
:100C70007A7B7D7E8082838587888A8C8E8F919314
:100C80009596989A9C9EA0A2A3A5A7A9ABADAFB13B
:100C9000B3B5B7BABCBEC0C2C4C6C9CBCDCFD1D420
:100CA000D6D8DBDDDFE2E4E7E9EBEEF0F3F5F8FAC6
:100CB000FDFF00DA1281FFD9F1DB20A4A62EAF00E0
:100CC000A0C0D30000A1C8D30000AED580A83F408B
:100CD0008D142000000000000500130009001A0018
:100CE00014002800000000000A00174416221521F5
:100CF00004242D00000000001900074206001B001C
:100D00001D00E3002B462C4529004F000000500039
:100D100000000000000000000D000F0018001C0083
:100D200033002D02000000001000114308320C3186
:100D300012243400000000000E000B423600370081
:100D40003800E30028002A224C41520000005100E4
:100D5000000000000000000046004200410040008A
:100D6000450001000000000047003F003E003D003C
:100D7000440039000000000048003C003B003A00FD
:100D800043004900010001000100010000000100D2
:100D9000000000000000000001000100010001004F
:100DA0000100007C000000000100AE00AC00AB00C0
:100DB0000100027C000000000100A800AA00A900B8
:100DC000010001000100010001000100000001001C
:100DD000000000000000000001000100010001000F
:100DE00001000100000000000100010016140100D4
:100DF00014140100000000000100010001000100C6
:100E000001000100010001000100010000000100DB
:100E10000000000000000000010001001C1401009F
:100E20000100010000000000010001002214010087
:100E30001314010000000000010001000100010086
:100E4000010001000100010001000100000001009B
:100E50000000000000000000200226002500240001
:100E600022020100000000002502230022002100D0
:100E70002E000100000000002E0220001F001E00B6
:100E8000210201002B002C002700010000000100BE
:100E9000000000000000000001000100010001004E
:100EA0003302010000000000010001000100010008
:100EB000010001000000000001000100010001002C
:100EC000010001000100010001000100000001001B
:100ED000000000000000000001000100010001000E
:100EE00001000100000000000100010001000100FC
:100EF00001000100000000000100010001000100EC
:100F000001000100010001000100010000000100DA
:100F1000000000000000000031021F022F0230021A
:100F200023020100000000002402340226022702EE
:100F30001E02010000000000350235002F003000C5
:100F40003100010028002A004C00010000000100CF
:100F500000000000000000000501130109011A0152
:100F600014010100000000002C0017016A22692111
:100F700068240100000000001901070106011B019F
:100F80001D0101000100010001000100000001003D
:100F9000000000000000000001004A0052004D0067
:100FA00001000100000000000100500051004F004E
:100FB0000100010000000000010001004B004E0094
:100FC000010001000100010001000100000001001A
:100FD00000000000000000000503130309031A03CA
:100FE00014030100000000000A0317031603150391
:100FF00004030100000000001903070306031B039C
:101000001D030100010001000100010000000100BA
:1010100000000000000000000100010001000100CC
:1010200001000100000000000100010001000100BA
:1010300001000100000000000100010001000100AA
:101040000100010001000100010001000000010099
:101050000000000011241FBECFEFDAE0DEBFCDBFDD
:1010600004B603FE18C08091EB079091EC07A091A5
:10107000ED07B091EE078730904BA740B04B59F485
:101080001092EB071092EC071092ED071092EE070A
:10109000E0E0F8E3099512E0A0E0B1E0EEE0FDE564
:1010A00002C005900D92AE31B107D9F727E0AEE14D
:1010B000B2E001C01D92AB3EB207E1F70E948D2560
:1010C0000C94402E0C9400009C01FB019A95811514
:1010D0009F4120F5832F8170B32FB270AA27732F01
:1010E00074706627532F5870442734FF0DC08295C3
:1010F000807FAB2B09F08062672B09F08064452B61
:1011000009F0806809950895AB2B09F08260672B80
:1011100009F08460452BB1F38860F4CF80E0F2CF12
:101120009093A3078093A20708959093A5078093B7
:10113000A407089521E030E002C0220F331F8A95F2
:10114000E2F78091A4079091A507822B932BEDCF16
:1011500021E030E002C0220F331F8A95E2F720958C
:1011600030958091A4079091A50782239323DDCF2A
:10117000282F292B283068F528E0929FF0011124B0
:10118000E80FF11D877041E001C0440F8A95EAF72E
:1011900083E0F695E7958A95E1F7EE0FFF1FEE0FD6
:1011A000FF1FEE58F84F80E090E070E05191DF01B2
:1011B0009B01082E02C0369527950A94E2F721700C
:1011C00021952527242325272E93019684309105E8
:1011D00069F70895292F282B283060F528E0929F81
:1011E000F0011124E80FF11D982F977083E0F69518
:1011F000E7958A95E1F7EE0FFF1FEE0FFF1FEE5800
:10120000F84F40E050E080E0219130E0092E02C02C
:10121000369527950A94E2F721703327042E01C0F2
:10122000220F0A94EAF7822B4F5F5F4F443051053B
:1012300059F7089580E008958091710790E020E0CB
:10124000022E001C0008281709060CF008952F5FD5
:10125000F7CF8091AB079091AA07981301C008952A
:101260008F5F8770FACF9091A6078095892380932E
:10127000A607282F277021110CC0891751F09091D3
:10128000A80792FF06C086958695869561DF109225
:10129000A6070895982F909580919F0789238093A2
:1012A0009F070895962F972B9830B0F48730B8F4A5
:1012B00098E0899FF0011124E70FF11D83E0EE0F04
:1012C000FF1F8A95E1F7E60FF11DEE0FFF1FEC52AD
:1012D000F34F85919591089580E090E0089581E025
:1012E000FCCF803E9105D9F1C8F48133910509F412
:1012F00082C048F48932910509F472C08A3291059E
:1013000009F480C0089589339105E9F08238910588
:10131000D1F08533910509F45EC00895843E9105AE
:10132000D9F148F4823E910539F1833E910549F1A6
:1013300081EE90E00895863E9105C9F1873E9105C2
:1013400009F43EC008952091A7072370211164C0BD
:101350002091A80723FF14C089E290E0089520910E
:10136000A70720FD45C03091A80730FF09C024FD24
:1013700024C083EE90E008952091A70722FDF7CFC7
:1013800008952091A70722FD44C03091A80730FDA1
:1013900043C024FFF5CF11C02091A80721FFF0CF53
:1013A0008091A70784FD09C087EE90E00895209101
:1013B000A70723FFE5CF24FFF7CF80E090E0089553
:1013C0002091A70723FD2BC03091A80731FFE1CF63
:1013D00084EE90E008952091A70725FFD1CFBCCFE0
:1013E0002091A70725FD1EC02091A80723FFC8CF85
:1013F00089E390E008952091A70726FFC1CF8AE2F4
:1014000090E008952091A70726FFBACF81E390E0EE
:10141000089582EE90E0089580EE90E0089586EEC3
:1014200090E0089585E390E008959091A70792FFDA
:1014300010C041E0282F2471243009F040E031E051
:10144000282F2871283009F030E0431711F02CE0E4
:10145000822793FF10C041E0282F2471243109F026
:1014600040E031E0282F2871283109F030E043179F
:1014700011F02CE082273091A80730FF10C051E016
:10148000282F2171213009F050E041E0282F2871E8
:10149000283009F040E0541711F029E0822731FF8D
:1014A00010C041E0282F2171213109F040E031E0E6
:1014B000282F2871283109F030E0431711F029E076
:1014C000822794FD877E08951F93CF93DF9309DFD2
:1014D000EC01811522E5920708F052C0811540E524
:1014E000940708F0CDC0803E910520F58D3C910514
:1014F00008F0A1C0883A910570F4853A910508F08A
:1015000097C081309105B9F10497813A910598F11E
:10151000C0E0D0E030C0885A91094B97C8F7C85A4C
:10152000D0E0CC0FDD1FCA55DE4F0990D881C02D09
:10153000D46421C0811550E49507B0F4C11580E250
:10154000D80708F0B3C0C83ED105A8F0CE019A95DF
:1015500081159F41E8F68D2F68DF182FCE0199275E
:10156000C0DEEC01D12B07C09927BBDECC27DF7092
:10157000C82BD92BD06ACE01DF91CF911F9108954E
:10158000803842E59407C8F5803652E5950708F0A3
:101590005BC0C03482E5D807D0F4C03292E5D907E9
:1015A00008F04BC08C2F8695869520E2829FC00163
:1015B0001124C37021E030E0A90102C0440F551F7F
:1015C000CA95E2F7EA01C82BD92BDD68D4CF8C2F5E
:1015D00086958695877050E2859FC0011124C3705F
:1015E00021E030E0A90102C0440F551FCA95E2F77F
:1015F000EA01C82BD92BDC68BECF803C52E59507A9
:1016000058F48F71C03AD245A0F590E0982F882702
:10161000EC01C46FD06AAFCF805C9245809708F030
:1016200077CFDC2FCC27CC27DF71C06FD06AA3CF58
:10163000A497D064A0CFD0659ECFCF71D0E0DC2F2F
:10164000CC27C16FD06A97CF86958695877020E2A8
:10165000829FC0011124C37021E030E0A90102C0C3
:10166000440F551FCA95E2F7EA01C82BD92BDA6857
:1016700082CFDBDEC82FD0E0DC2FCC27D0627BCF3F
:101680008F71D3DE93E0CC0FDD1F9A95E1F7CC2765
:10169000DF70282F30E084FF05C050E1859F900166
:1016A00011243327C22BD32BD06965CF8D2F8F7197
:1016B000BCDE182FCE01992714DEEC01D12BDECF32
:1016C000A0E0B0E0E6E6FBE00C94582D8C01E09041
:1016D000A407F090A5078091A2079091A307E82A9C
:1016E000F92ACFE0D0E0CC24C394D12CC6010C2E33
:1016F00002C0880F991F0A94E2F78E219F21892B3F
:1017000049F4219798F7B12C8B2DCDB7DEB7E9E0DE
:101710000C94742DBC2EB8018C2FC4DDD5DE01973E
:1017200081F3F2CFCF93DF93D82FC92FC9DF6D2F6D
:101730007C2FB8DDC9DEDF91CF910895FC01848153
:10174000811599F080819181EDDF282F92959F700E
:10175000963099F060F4925F9F70923030F4203FA1
:10176000B1F038F481E0283E38F080E008959A5FC7
:10177000F3CF81E0243FC9F7089591E0213F09F0BC
:1017800090E081E0283E08F080E0892B089581E018
:10179000089580E00895F894E82FE295EF70F0E066
:1017A00041A18F7021E030E0B90102C0660F771FC0
:1017B0008A95E2F7CB01962F9095942391A392A15D
:1017C000892B82A37894089581E080931B07089564
:1017D000CF938091970780FF03C02CD3CF910895BA
:1017E000C0910D0180910E01C817B8F780910B01CF
:1017F0009C2F981B892F20E040E060E090E065D0AE
:10180000CF5FF0CF90910107292F30E07091020750
:10181000A9014F5F5F4F437055277417150689F074
:101820002150394F60FB87F9F90184839F5F9370E2
:10183000909301078091FF068F5F8093FF0681E000
:10184000089580E0089590E06115E9F0805F9E4F73
:10185000FC0180818F3FB1F0E82FE295EF70F0E05E
:1018600041A18F7021E030E0B90102C0660F771FFF
:101870008A95E2F7CB01962F9095942391A392A19C
:10188000892B82A308958F5E9E4FE2CF90E0611571
:10189000A9F0805F9E4FFC0120812F3F91F0E22F45
:1018A000E295EF70E05EF0E0808190E02F7002C082
:1018B000959587952A95E2F7817008958F5E9E4FE2
:1018C000EACF80E00895539A0895FC01EE0FFF1FC0
:1018D000E80FF91FEA5AFD4F618340832283089580
:1018E000FC01680F791F8FEF41E39191892728E070
:1018F00030E0982F990F87FF09C0892F8427215046
:101900003040B9F7E617F70781F70895892FF7CF29
:1019100080914F07811569F0E0915707F0915807C2
:10192000309739F00190F081E02D309711F0099552
:10193000089580E00895A3E0B0E0E1EAFCE00C94B3
:101940005F2D9C018091540290915502821793075C
:10195000B1F03093550220935402E0915707F09173
:101960005807309761F00084F185E02D309739F009
:1019700083E089833B832A83CE01019609952396D0
:10198000E2E00C947B2DA3E0B0E0E9ECFCE00C94E9
:101990005F2D9C0180915202909153028217930710
:1019A000B1F03093530220935202E0915707F09127
:1019B0005807309761F00084F185E02D309739F0B9
:1019C00084E089833B832A83CE010196099523967F
:1019D000E2E00C947B2D9C01FC0132968FEF90E0AD
:1019E0004191461751F08F3F19F4411101C0892FE1
:1019F0009F5F9630A9F78F3F09F40895280F311D96
:101A000087FD3A95F901628308959C01FC013296A5
:101A1000285F3F4F8191861302C0DF011E92E217BB
:101A2000F307C1F708958091080108952FB7F8943E
:101A300060914E0270914F0280915002909151023C
:101A40002FBF08950F931F9380914F07811521F0A9
:101A5000EDDF1F910F910895E9DF0091510710917B
:101A600052072091530730915407600F711F821F56
:101A7000931FEFCF08950895FC019B0180914402CC
:101A8000909145028617970740F0672B29F48091C3
:101A9000E8008E778093E800C90140E0009741F4A8
:101AA000411106C08091E80082FF2FC080E00895B8
:101AB0002091ED062115A9F12530A9F12091E8002A
:101AC00023FD2DC02091E80022FDECCF2091E800FD
:101AD00020FFE4CF3091F3002091F200009719F03D
:101AE0002830310558F041E02830310509F040E058
:101AF0002091E8002E772093E800D0CF41914093C9
:101B0000F10001972F5F3F4FE9CF8091ED068115DE
:101B100041F0853041F08091E80083FFC3CF81E040
:101B2000089582E0089583E0089580913E0287FF42
:101B300013C08091E80082FF06C08091E8008B7797
:101B40008093E80008958091ED068111F2CF089509
:101B50008091ED068115D9F38091E80080FFF8CFE0
:101B60008091E8008E77ECCF2091E4003091E50081
:101B700095E6A9012091EC00822F817020FF06C01C
:101B80008091E80080FF06C080E008952091E80081
:101B900022FD1AC08091ED06811589F0853089F00B
:101BA0008091EB0085FD0FC02091E4003091E500AD
:101BB00042175307F9F29A95E1F684E0089582E01E
:101BC000089583E0089581E00895E8EDF0E08081D4
:101BD0008E7F80831092E2001092DA001092E10072
:101BE000A0EEB0E08C9181608C9380818F778083B0
:101BF00019BCA7EDB0E08C918E7F8C9380818F7E95
:101C0000808310923D020895FC018091E8078130A5
:101C100059F48481813041F48091E507833030F0BC
:101C2000845092E5833018F081E008959CE481812E
:101C3000833048F0845022E58330B0F781E02913E7
:101C4000F4CF80E008952CE4F9CF982F9093E90029
:101C5000891771F07091EC002091ED005091F00027
:101C600021FD09C09F5F973089F78093E9000895AF
:101C7000762F242F50E03091EB003E7F3093EB0025
:101C80003091ED003D7F3093ED003091EB003160FD
:101C90003093EB007093EC002093ED005093F00034
:101CA0002091EE0027FDDECF0895A0E0B0E0EBE547
:101CB000FEE00C94592DC8EDD0E088818F7E88839A
:101CC000E7EDF0E080818160808384E082BF81E085
:101CD00080933D0288818E7F888302EE10E0F801B8
:101CE00010821092DA0081EEC82ED12CF6011082FB
:101CF00088818F77888388818068888388818F7DB9
:101D0000888319BC1092ED0610923C021092EC06EA
:101D100010923B0290EEE92EF12CF70180818B7F2F
:101D2000808388818160888342E060E080E08DDF8D
:101D3000F60180818E7F8083F801808181608083BD
:101D4000808188608083F70180818E7F8083888195
:101D500080618883CDB7DEB7E8E00C94752DE09103
:101D6000AB079091AA0727E0E91302C080E008952D
:101D7000AE2FB0E02E9FF0011124E455F84F3181D1
:101D8000361306C03081381303C03581341304C0C4
:101D9000FD013196E770E8CF81E008951F93CF935E
:101DA000DF93182FD92F611581F0411571F088DC70
:101DB000C82F682F812F9D2FDBD9612F7D2F8C2F6E
:101DC00071DADF91CF911F91089504DAC82FF5CF12
:101DD000FC01462F658180819181E0CF9C012231F9
:101DE00084E2380709F150F4263182E2380791F095
:101DF00024303442E1F48AEF90E008952B3082E4FD
:101E0000380741F050F4283082E3380719F02730C2
:101E1000324469F48FEA90E00895213183E4380771
:101E2000C9F327313444F5CF8CE291E0089588EC72
:101E300090E008953BB1377F2BB128604FB7F894FD
:101E400086E592E0FC010196508168E02BB9000024
:101E500000C057FF3BB9550F000000C000C000C0D4
:101E60003BB900C06A9591F752E08239950751F766
:101E70004FBF8FE594E00197F1F700C0000008958F
:101E80000F931F93CF93DF938B01EA019091ED069F
:101E9000943051F58093E9008FEF9091E80095FD23
:101EA00006C095ED9A95F1F700008A95B1F78091FB
:101EB000E80085FF19C058DE811111C08091E8004B
:101EC00085FD06C08091E8008E778093E800F3CF0F
:101ED000F80181918F018093F100219779F780912A
:101EE000E8008E778093E800DF91CF911F910F91EA
:101EF0000895CF93DF93D82FC92F48E050E0682F83
:101F0000792F81E0BDDF88E0ED2FFC2FA6E4B2E061
:101F100001900D928A95E1F7DF91CF910895BC0170
:101F200043E050E082E0ACCFA0E0B0E0EAE9FFE0BF
:101F30000C94572DF82EE92EB62EA72E8A018091EB
:101F400032029AE0C92ED12C8A3018F0CC24C394E6
:101F5000D12CC1E0D0E06B2D7A2D8F2D9E2DF80174
:101F60000995811116C02196CC16DD0694F0CC9F00
:101F7000C001CD9F900D900D112420E030E045E38D
:101F80004A95F1F700002F5F3F4F28173907B9F73F
:101F9000E2CFCDB7DEB7EAE00C94732D9091A8079D
:101FA00092FB222720F9281771F080FB92F9909379
:101FB000A8076091A7077091A80784E090E00E94AD
:101FC0002C2E82E050C9089580919F079091A90717
:101FD000892B4091A007411589F090E022E232E080
:101FE000F90150812F5F3F4F51119F5F52E028321E
:101FF0003507B1F791111092A007842B809320022E
:1020000048E050E069E577E080E292E00E94EA2D46
:10201000892BB9F088E0E0E2F2E0A9E5B7E00190B1
:102020000D928A95E1F7E0915707F09158073097A4
:1020300041F00280F381E02D309719F080E292E0C8
:102040000995089510929F07E2E2F2E086E0DF0131
:102050001D928A95E9F780E090E06DDC80E090E0E9
:1020600092DC1092A907B0CFEDDF2FEF84E39CE064
:10207000215080409040E1F700C0000088E19CE0E2
:102080000FB6F894A895809360000FBE90936000FF
:10209000FFCFCF93DF93D82FC92F2091710728301E
:1020A00010F0D0DF20E0E22FF0E0EE0FFF1FEF593D
:1020B000F84FD083C1832F5F20937107DF91CF91B9
:1020C0000895AAE2B0E0E7E6F0E10C945E2D8EE31D
:1020D00092E0FC0101962091F100208322E08634F9
:1020E0009207B9F780913F02893009F457C0C8F4CC
:1020F000823009F4B1C0833009F481C0813081F1AC
:102100008091E80083FFE5C080913E0290913F02FC
:102110009A3008F0DEC0E92FF0E0EE5BF14D0C9450
:10212000A52D8A3009F488C08B3051F780913E028A
:10213000813231F78091420290914302892B01F75D
:102140008091E800877F8093E800EFDC81E0909148
:102150004002911101C080E08093090173DFD0CF6C
:1021600080913E02813A61F68091E800877F8093FA
:10217000E8008091420290914302892B59F060E07F
:1021800080E090E070E078DC8091E8008B778093CD
:10219000E800B6CF68E086E492E0F4CF80913E029A
:1021A000813209F0ADCF80914202909143020297B3
:1021B00008F0A6CF8091E800877F8093E8008091A7
:1021C000E80082FF17C09091F3008091F20002971F
:1021D00031F48091F100813011F0863021F480914A
:1021E000F100809308018091E8008B778093E800EC
:1021F0009CDC86CF8091ED068111E1CF81CF80916B
:102200003E02813A09F07CCF8091420290914302D4
:10221000892B09F075CF8091E800877F8093E800D3
:102220008091E80080FFFCCF809109018093F1004C
:102230008091E8008E77DACF80913E02813209F0FA
:102240005FCF8091E800877F8093E8006EDC80910B
:1022500041028093070154CF80913E02813A09F0F8
:102260004FCF8091E800877F8093E8008091E8005D
:1022700080FFFCCF80910701D9CF803889F0823868
:1022800041F5809142028F70873018F58093E90004
:102290008091EB0085FB882780F91092E90006C049
:1022A0008091EC06880F90913B02892B9091E80079
:1022B000977F9093E8008093F1001092F100809155
:1022C000E8008E7723C0811116C0809140028130D2
:1022D00009F18091E80083FF0AC08091E800877FC0
:1022E0008093E8008091EB0080628093EB00AA96D7
:1022F000E3E00C947A2D823061F7809140028115E1
:1023000081F01092E9008091E800877F8093E800D7
:102310000CDCDFCF81E0933009F080E08093EC06A5
:10232000F0CF809142028F702FEF280F263088F671
:102330008093E9002091EB0020FFE3CF933031F44C
:102340008091EB0080628093EB00DBCF9091EB00FB
:1023500090619093EB0021E030E0A90102C0440FAE
:10236000551F8A95E2F74093EA001092EA008091A7
:10237000EB008860E8CF8111ACCF109140021F774D
:102380008091E3008078812B8093E3008091E800C6
:10239000877F8093E800C9DB8091E80080FFFCCF55
:1023A0008091E30080688093E30083E0111101C015
:1023B00082E08093ED068DCF8058823008F089CF7F
:1023C00020914002309141022C3D53E0350791F5B8
:1023D00083E08A838AE289834FB7F894DE011396FB
:1023E00020E03EE051E2E32FF0E05093570084916B
:1023F00020FF03C082958F703F5F8F708A30C0F0DE
:10240000895C90E08D939D932F5F243161F74FBFDE
:102410008091E800877F8093E8006AE270E0CE0157
:1024200001962ADB8091E8008B778093E80051CFFA
:10243000805DE7CF832F99278330910529F160F4E0
:102440008130910509F475C0029709F042CF8BE302
:1024500090E0E6E6F6E02CC0209142023091430283
:102460008132910509F459C0829709F032CF2115C4
:10247000310509F468C02130310509F02ACF82E323
:1024800090E0E0EFF5E014C0C90199272130A9F1EF
:1024900082309105D1F1892B09F01BCFE5EEF6E0F2
:1024A000E4918E2F90E0E5EEF6E0009709F411CF6D
:1024B0002091E800277F2093E8002091440230918A
:1024C00045028217930708F49C0140E0211531056D
:1024D00009F03EC041113CC08091E80082FDA2CFCE
:1024E0008091ED06811509F49DCF853009F49ACFCE
:1024F0008091E80083FFF0CF95CFEBECF6E0E4911C
:102500008E2F90E0EBECF6E0D0CFE3EBF6E0E49139
:102510008E2F90E0E3EBF6E0C8CF2115310571F086
:102520002130310509F0D5CE89E090E0E1E9F6E00F
:10253000BFCF82E190E0E1EAF6E0BACF89E090E037
:10254000E8E7F6E0B5CF84E490E0E2E2F6E0B0CF71
:102550008091ED06811509F465CF853009F462CFCD
:102560008091E80083FD5ECF8091E80082FDB4CFCA
:102570008091E80080FFAACF9091F3008091F20053
:102580002115310519F08830910550F041E0089788
:1025900009F040E08091E8008E778093E80096CFC4
:1025A00044914093F1003196215031090196E8CFD2
:1025B000803809F08ECE8091E800877F8093E80014
:1025C00080913C028093F1007ACE811182CE1091ED
:1025D0004002123008F07DCE8091E800877F809322
:1025E000E80010933C02A1DA111599F084E0809381
:1025F000ED0642E061EC81E028DB42E261EC82E042
:1026000024DB8091ED06843051F482E080930A014E
:1026100060CE8091E30087FDE9CF81E0E8CF81E0E3
:10262000F5CFCF93C82F811599F08CEF8C0F813A9D
:1026300088F4E2E2F2E088E292E02191C21791F19F
:102640008E179F07D1F76C2F80E292E0C4D9BCDCD3
:10265000CF91089580E28C0F883068F4C77021E034
:1026600030E001C0220FCA95EAF780919F07822BC4
:1026700080939F07ECCF8BE58C0F833030F42C2FA9
:102680002452330BC90157D9E3CFC85ACB3100F7D5
:10269000EC2FF0E0EE0FFF1FE452FE4F808191819E
:1026A00072D9D6CF6C2F80E292E0AFD98DDCCBCF40
:1026B000682F811511F18CEF860F813A20F480E2AA
:1026C00092E0A3D981CC80E2860F883048F467700D
:1026D00081E001C0880F6A95EAF70E944A09F2CFAB
:1026E0008BE5860F833018F480E090E024C9685AA7
:1026F0006B3118F480E090E046C908951F93CF93A2
:10270000DF93182FEB018DDF209731F4812FD0DF7D
:10271000DF91CF911F9108958FE99FE00197F1F725
:1027200000C000002197F0CF80E090910207209137
:102730000107291731F1E92FF0E0ED5FF84F8081B3
:1027400087FB222720F98F779F5F93709093020772
:10275000909100079F5F90930007811549F08130A9
:1027600071F460E070E08EE4211108C08BE406C0D3
:1027700060E070E089EA211101C08AEABFDF81E0F0
:10278000D4CF0895811531F090919F07892B8093C4
:102790009F071ACC0895811519F00E944A0914CC9C
:1027A0000895811531F09091A907892B8093A9078D
:1027B0000BCC0895811539F080959091A907892354
:1027C0008093A90701CC0895A0E0B0E0EAEEF3E120
:1027D0000C94592DFA0169017801C82F880FDD0B7F
:1027E0003097B9F0DE0193E0AA0FBB1F9A95E1F78D
:1027F000A75DBE4F11968D919C911297835D984F66
:102800002C91422F50E0E217F10508F4AF010E942D
:10281000F72DCE010E94CD2C182F8115D9F0E1148F
:10282000F104C1F083E0CC0FDD1F8A95E1F7FE01D2
:10283000E75DFE4F8381482F50E0E816F10408F46D
:10284000A701C75DDE4F6C817D81635D784FC60156
:102850000E94F72D812FCDB7DEB7E8E00C94752DDF
:10286000A1E0B0E0E6E3F4E10C944F2D762E4A01AE
:102870005901680101E010E09E012F5F3F4F40E0E9
:1028800050E060E070E0A0DF182F811599F1F401AD
:102890002080318042805380C9D8698062197309D1
:1028A00084099509643671058105910528F4B701FD
:1028B000C60116D88615F1F08701950140E050E079
:1028C00060E070E0872D80DF082FB701C60108D8CF
:1028D00010E086110AC0102F117000FF06C0A6D8A4
:1028E000F4016083718382839383812F2196E2E1D7
:1028F0000C946B2DA701B601C5010E94F72DF5CFF1
:10290000A4E0B0E0E6E8F4E10C94592D6B0184E01A
:10291000E82EF12C0EE217E09E012F5F3F4F49E2B7
:1029200057E061E080E09CDF811561F049815A81C8
:102930006B817C814093250750932607609327077E
:10294000709328074091250750912607609127072B
:1029500070912807F6014083518362837383249624
:10296000E8E00C94752D4F925F926F927F92AF9238
:10297000BF92CF92DF92EF92FF920F931F93CF936C
:10298000DF93F82EEB01A42ED22EE32EB02EC12E13
:10299000488059806A807B8049D864197509860906
:1029A0009709643671058105910510F4A11489F029
:1029B00000E010E020E030E04B2D5C2D6D2D7E2DF1
:1029C0008F2D02DF811531F031D8688379838A83B6
:1029D0009B8381E0DF91CF911F910F91FF90EF904A
:1029E000DF90CF90BF90AF907F906F905F904F90AF
:1029F00008950F931F93CF93DF93D82FC92F44E0EF
:102A000050E062E377E00E94EA2D41E0892B09F46F
:102A100040E004E010E02D2F3C2F61E277E082E0FF
:102A2000A2DFDF91CF911F910F910895ABE0B0E04D
:102A3000ECE1F5E10C945D2D28E0E7E9F7E0CE014B
:102A40000196DC0101900D922A95E1F730919407EF
:102A5000209195075091960739872A875B8741E037
:102A60009C01511101C040E00BE010E063E177E010
:102A700087E079DF8111109296072B96E4E00C94A1
:102A8000792DA1E0B0E0E7E4F5E10C945D2D8091B3
:102A90000E07898320914E0790E041E02817190620
:102AA00009F440E001E010E09E012F5F3F4F6FE02E
:102AB00077E088E058DF2196E4E00C94792DA8E0D7
:102AC000B0E0E5E6F5E10C945B2D88E0E82EF12C12
:102AD00007E317E09E012F5F3F4F4DE157E064E0B1
:102AE00083E0BEDE182F8115B9F1909136078091F1
:102AF0001C07981789F1F12C90913A0780913907BA
:102B0000891721F1E92FF0E0EF5CF84F828587FB10
:102B1000662760F99F5F937090933A07909138070A
:102B20009F5F909338078F770E94020CF82E8111D7
:102B3000E3CF00E010E020E030E040E050E060E073
:102B400070E085E041DE1F2D182302C0F110F1CFA7
:102B50008091360780931C07812F2896E6E00C941D
:102B6000772DA4E0B0E0E7EBF5E10C94592DC0908F
:102B70001707D0901807E0901907F0901A070E94E5
:102B8000160D6C197D098E099F0911E064367105D7
:102B90008105910518F10E94220DDC01CB010296FE
:102BA000A11DB11D89839A83AB83BC8300E010E033
:102BB00020E030E044E050E0BE016F5F7F4F86E0F0
:102BC00003DE182F811551F00E94160D6093170730
:102BD000709318078093190790931A07812F2496F2
:102BE000E8E00C94752D0F93CF93DF93C7E9D7E0FE
:102BF000488159816A817B8188E090E00E94242E7F
:102C0000288139814A815B816C817D818E819F81A0
:102C100000E20E94C62D622F83E290E00E94122EF5
:102C2000DF91CF910F910895E7E9F7E085E0808388
:102C300011828FEF828383831482E4E9F7E082813B
:102C40008360828387E997E0CECF80919B078330B2
:102C500018F48F5F80939B0787E997E0C4CF80913A
:102C60009B07811519F0815080939B0787E997E0B6
:102C7000BACFA0E0B0E0EFE3F6E10C94542D182FAA
:102C8000D62FA42E722EB0909707B0FE3EC0809132
:102C90009807811308C080919907861304C080911A
:102CA0009A07841729F0809196078260809396078F
:102CB000EB2DE695E695F0E0E657FE4F8081809398
:102CC00094078B2D8C7F8430A9F4EA2DF0E0EE542C
:102CD000F44FD1111FC0E491CE2F0E2F9E2EB0FEC7
:102CE00009C0F0900D0180910E01F81608F483C020
:102CF0000E94E80B10939807D0939907A0929A0727
:102D0000711419F087E997E06EDFCDB7DEB7EDE01B
:102D10000C94702DC12ED12C8D2E912CE491CE2FA0
:102D200026E0129F700111242FEF30E0C701B90196
:102D30000E943B2DCC0CDD1C45E5469FC001479F02
:102D4000900D1124C81AD90A8C2D880F8C0DA90159
:102D5000481959094A01E89DA001E99D500D112427
:102D6000052FD89FD0011124AB2FBB276901CA1AA8
:102D7000DB0AD601EA9F6001EB9FD00C1124D90138
:102D8000A81BB109CD01D89FD001D99FB00D112446
:102D9000AB2FBB27C9018A1B9B0BDC01EA9FC0013B
:102DA000EB9F900D1124992E63307105D1F0ACEF9B
:102DB000EA16A3E0FA0658F461307105B1F062300A
:102DC000710509F08CCFC52F092F9E2E88CF643056
:102DD000710571F06630710509F481CF952E0D2DC6
:102DE0007ECF9D2CC52F0E2F7ACF9E2ECD2D77CF47
:102DF000C92F952EF8CF80910B01BF2DB81B8B2FBB
:102E0000202F492D6C2F90E00E94650CF3946BCF1E
:102E10008091970780FF16C0837084608093970726
:102E200080919607816080939607611519F087E974
:102E300097E0D9DE20E040919A0760919907809150
:102E4000980717CF089580919707869586958A955C
:102E500009F481E061E0DCCFE7E9F7E0818121E07E
:102E600043816281885F05CFE7E9F7E0818121E056
:102E7000438162818850FDCEE7E9F7E0628121E17C
:102E8000620F08F46FEF21E043818181F2CEE7E920
:102E9000F7E0628121E1621B08F460E021E04381F8
:102EA0008181E7CEE7E9F7E0438121E1420F08F4B1
:102EB0004FEF21E062818181DCCEE7E9F7E04381D9
:102EC00021E1421B08F440E021E062818181D1CE02
:102ED000AB0124E630E0BC0188E70E94FC2A9C019B
:102EE00081E0232B09F080E008958091E3068115AD
:102EF00061F080910E07811541F062E070E08EEA8A
:102F000090E0E6DF811110920E0708958091E306AC
:102F10008115F1F00E94160DDC01CB01805A95411C
:102F2000AF4FBF4F8093E4069093E506A093E6066B
:102F3000B093E70680910E0781110AC062E070E04D
:102F40008CEA90E0C5DF811519F081E080930E07CF
:102F500008958F929F92AF92BF92CF92DF92EF929D
:102F6000FF920F93CF93DF9388E090E00E94082EAA
:102F70004B015C01C7E9D7E068839982AA82BB82D2
:102F80001C821D821E821F8283E290E00E94002E1E
:102F9000282F30E040E050E060E070E080E090E01A
:102FA00000E20E94AB2D282939294A295B29288370
:102FB00039834A835B836C837D838E839F83DF9118
:102FC000CF910F91FF90EF90DF90CF90BF90AF9097
:102FD0009F908F900895CF93DF93682F8091E002A8
:102FE0009091E1026A30B1F42091E806825E92404D
:102FF000622F70E00E943B2D281B822F66E00E940A
:10300000862DC82FC15018F4DF91CF91089580E22A
:10301000E2DFF8CF6D30D9F49C01225E324040915E
:10302000E806642F70E0C9010E943B2D481BC901CE
:10303000840F911D811524E0920710F080E090E04C
:103040008E519D4F9093E1028093E002DDCF26E008
:10305000FC01A5E3B2E001900D922A95E1F7603EF4
:1030600008F458C026E0FC0111922A95E9F7C091B6
:10307000E002D091E10246E050E0BE0185E392E03B
:103080000E94EA2D9E01225E3240892B41F1C90146
:1030900046E0969587954A95E1F741E050E0BA0100
:1030A00002C0660F771F8A95E2F7CB016091DE02BE
:1030B0007091DF02862B972BB9016B5F7F4FE6E0A3
:1030C00076956795EA95E1F702C0440F551F6A951A
:1030D000E2F7842B952B9093DF028093DE022A5F28
:1030E0003F4F4091E806642F70E0C9010E943B2DDC
:1030F000481B463010F4240F311D211574E03707AA
:1031000010F020E030E02E513D4F3093E10220934B
:10311000E0027ACFF6E06F9FB001112460557F4F37
:1031200046E050E00E94E12DA2CFCF93DF93EC0167
:10313000FE018491811103C0DF91CF9108954BDF8F
:103140002196F6CF1F921FB61F9211248F939F9343
:10315000AF93BF938091EB06811113C080914E0213
:1031600090914F02A0915002B09151024196A11D41
:10317000B11D80934E0290934F02A0935002B093E2
:103180005102BF91AF919F918F911F901FBE1F90D1
:1031900018952FB7F89480914E0290914F02A0910C
:1031A0005002B09151022FBF0895CF93DF93EC01ED
:1031B000F0DF8C1B9D0BDF91CF9108952F923F92F2
:1031C0005F926F927F928F929F92AF92BF92CF92B7
:1031D000DF92EF92FF920F931F93CF93DF93809133
:1031E000E306811509F493C0C091D202D091D302B5
:1031F000D0DF8C1B9D0BC29708F46AC0CADF909386
:10320000D3028093D20282EE92E09093E102809307
:10321000E00280914F07811509F49DC082E79BE091
:1032200084DF8BE69BE081DF84E69BE07EDF8CE53C
:103230009BE07BDF8091A4079091A5072091A207D6
:103240003091A307822B932BE92FFF27309719F595
:10325000FC0180E09F01C4E036952795CA95E1F70F
:103260002115310511F08C5FF9019F0136952795E5
:10327000369527952115310511F08E5FF901F695E8
:10328000E795E80F89E19BE0E73048F4F0E0E45B84
:10329000F14D0C94A52D88E0DDCF84E59BE045DF62
:1032A0000E94880CC82F81E19BE0C0FD02C089E02C
:1032B0009BE03BDF81E09BE0C1FD02C089EF9AE02B
:1032C00034DF81EF9AE0C2FD02C089EE9AE02DDF83
:1032D0008091DE029091DF02892B09F068C0809115
:1032E0000E078115A1F00E94160D0091E4061091C1
:1032F000E5062091E6063091E706601B710B820B14
:10330000930B6F3F7F4F8F4F9F4708F4EEDDDF91A8
:10331000CF911F910F91FF90EF90DF90CF90BF90D2
:10332000AF909F908F907F906F905F903F902F9085
:1033300008958CE49BE0B3CF80E49BE0B0CF8BE3B7
:103340009BE0ADCF86E39BE0AACF8CE29BE0A7CFCA
:1033500084E29BE0A4CF2091DE023091DF02A2EE56
:10336000B2E080E090E061E070E0FC01E751F94FED
:10337000E4914D91E41789F0ED01EA93AC01E6E0A8
:1033800056954795EA95E1F7EB0102C0CC0FDD1F9A
:103390004A95E2F7AE012C2B352B01968115D4E02E
:1033A0009D0719F73093DF022093DE0291CF8091C1
:1033B000E306811509F493CF8091E20681118FCF46
:1033C000A5DD2091DE023091DF022115310509F4DF
:1033D00086CF10E041E050E0812F90E01A01012EED
:1033E00002C0220C331C0A94E2F7B101622373235A
:1033F000672B11F41F5FF0CF2091E90620FF94C0E6
:10340000912F990F990F990F37E0390F80E027E03E
:1034100090930201809305013093030120930601EC
:1034200024E630E047E050E060E071E088E70E9489
:10343000B32A892B09F053CFE0E41E9FA001112489
:103440008091E90680FF79C0E2E9F2E080E4DF01E3
:103450001D928A95E9F7A2E8B1E00AE711E08AE84F
:10346000C82E81E0D82E97E0592E772473948D9141
:10347000E80129918E01240F352F311D2E513D4F2A
:10348000E82FF0E0EE56FD4F80E090E0652C681AE2
:10349000872C082E01C0880C0A94EAF77901A12C28
:1034A000E701B9907E01B820662D6A19677070E057
:1034B000DB2D062E01C0DD0F0A94EAF79D2E7195D3
:1034C000619571096770772701C0B6946A95EAF72C
:1034D0009B286081962A9082A39468E0A612E0CF90
:1034E000019631968830910589F6CA16DB0609F0F7
:1034F000BECF04E610E020E430E042E952E060E4B0
:1035000088E70E94472B892B09F0E9CEE101C0959D
:10351000D0958091DE029091DF028C239D239093C1
:10352000DF028093DE02DBCE96958795282F10FB75
:10353000992796F93FE3390F6BCF4E515D4F04E663
:1035400010E020E430E0DBCFA0E0B0E0EAEAFAE10E
:103550000C945A2D162FD72FC42FD22E811599F0E7
:103560004093920716DE9093340280933302C77023
:1035700081E001C0880FCA95EAF704D9CDB7DEB75C
:10358000E7E00C94762D90919207491335C0E090B6
:103590003302F0903402FDDD9C012E193F097901C0
:1035A000812F9D2F0E94EE0EE816F90628F5D0E235
:1035B000DD0DCD1591F0C77011E0812F01C0880F8E
:1035C000CA95EAF7E8D8D83040F48D2D877001C04D
:1035D000110F8A95EAF7812FD5D860E070E0802F2F
:1035E0008DD8D83058F62D2D277081E001C0880F76
:1035F0002A95EAF7D0D8C2CFC77081E001C0880F02
:10360000CA95EAF7F7CFA0E0B0E0E9E0FBE10C945F
:10361000592D7C01DC0114968C91811509F464C04C
:1036200061E0C7010E94E80EEC018836B4E29B0716
:1036300009F45FC08936E1E29E0709F45DC08A366D
:10364000924209F074C0E2E0F0E0D70115962C91A7
:103650001597211509F4A3C016962C91203108F472
:103660009EC0EE0FFF1FEE0FFF1FEE5EFD4FC281EB
:10367000D381C933D10509F442C06E01B0EECB1A33
:10368000D108E8E0CE16D10418F0209709F043C025
:1036900062EC73E1CE010E94640800E010E08C2F20
:1036A0000E94111301151105C9F58C2F01D898E05E
:1036B000C916D10420F06AED73E1209711F46BEC88
:1036C00073E1CE010E9464088091A607877081157E
:1036D00059F0F7018581811539F08091A80782FFA3
:1036E00003C082E00E943309CDB7DEB7E8E00C9456
:1036F000752DE0E0F0E0A9CFE1E0F0E0A6CF89E5AC
:10370000C82EDD24DA9400E510E061ED73E1CE010E
:103710000E946408C4CF00E010E0F7CF8FE99FE07B
:103720000197F1F700C0000001501109BBCFD7018C
:1037300015968C91FE01E851FC47E730F10578F5CC
:10374000ED5AF14D0C94A52D06E221EE41EE6AE111
:103750007CE7FADEB9CF07E225EE45EE6BE17CE7C8
:10376000F8CF06E221EE40EE68E17CE7F2CF07E217
:1037700025EE44EE69E17CE7ECCF06E221EE42EE75
:103780006CE17CE7E6CF07E225EE46EE6DE17CE7F3
:10379000E0CF08E221E045EE6EE17CE7DACFF70109
:1037A0008581811509F431C4109292079E0130572A
:1037B0002332310508F010C484E090E00E940D2E01
:1037C0009093A8078093A707FE01E150F047E232EB
:1037D000F10520F4E65AF14D0C94A52D8091A70730
:1037E00081608093A7076091A7077091A80784E084
:1037F00090E00E942C2E0E94221066CF8091A80794
:1038000088608093A807EFCF8091A7078260E9CFF7
:103810008091A7078460E5CF8091A7078860E1CFFA
:103820008091A8078160EDCF8091A8078260E9CFE1
:103830008091A7078061D5CF8091A7078062D1CF03
:103840008091A7078064CDCF0E9422108091A707A6
:103850008068C7CF8091A7078C60C3CF8091A807ED
:103860008360CFCF8091A7078E7FBBCF8091A807C1
:10387000877FC7CF8091A7078D7FB3CF8091A707A0
:103880008B7FAFCF8091A707877FABCF8091A807B1
:103890008E7FB7CF8091A8078D7FB3CF8091A70788
:1038A0008F7E9FCF8091A7078F7D9BCF8091A707A9
:1038B0008F7B97CF0E9422108091A7078F7791CF9F
:1038C0008091A707837F8DCF8091A8078C7F99CFA8
:1038D0008091A707992782FF939590FB82F990FB2F
:1038E00083F97FCF8091A807982F909590FB80F95E
:1038F00090FB81F986CF9091A707892F8F7B96FF48
:1039000080646FCF0E9422109091A707892F97FBA8
:1039100087F9805866CF61E08EE090E00E94122E19
:1039200062CF60E0F9CF9091A707892F8F7E94FF37
:10393000806157CF9091A707892F8E7F90FF81607C
:1039400050CF9091A807892F877F93FF886059CF28
:103950009272FE01E052F847EB30F10508F047C0E3
:10396000E458F14D0C94A52D8091970780FF0EC06F
:103970008E7F8093970787E997E035D980919607E6
:103980008160809396070E94E80B9ECE81608093B1
:10399000970761E0869586953BDA96CE911521F0E2
:1039A00052DA92CE9115E1F361E081E0F5CF911505
:1039B00021F05ADA89CE9115E1F34EDA85CE9115D0
:1039C00021F065DA81CE9115E1F356DA7DCE9115BD
:1039D00021F073DA79CE9115E1F364DA75CE9115A1
:1039E00021F03DD971CE9115E1F32FD96DCE9E0115
:1039F000205E324520323105A8F481112AC0CF71F2
:103A000081E090E09C0102C0220F331FCA95E2F7CB
:103A1000E901622F83E090E00E94122ECE010E9405
:103A2000900852CE811509F461C0CB353CE7D3072D
:103A300009F452C0CC359CE7D90709F442C0CA3515
:103A4000ACE7DA0709F446C0C130BCE7DB0709F48C
:103A50004BC0C330ECE7DE0709F440C0C115DC47BA
:103A600009F044C00E9422102FEF34E38CE0215073
:103A700030408040E1F700C0000081E08093E0002A
:103A800080E28093D8001092C900AFE1BEE41197A4
:103A9000F1F700C0000087E090EBDC018093EB07BA
:103AA0009093EC07A093ED07B093EE0788E19CE0BC
:103AB0000FB6F894A895809360000FBE90936000B5
:103AC000FFCF8091A807002482FF0394802D0E94DD
:103AD000CE0FFACD81E0FBCF80E0F9CF6FEF7FEF23
:103AE00080E090E00E942C2E0E943410D7010D91AE
:103AF0001C91811509F46FC0C8010E94600BC82F8A
:103B0000682FC8010E94B808B8018C2F0E94520982
:103B10000E94640AD82FC92FF701C580068102953B
:103B20000F708091A6078770811501F1DC2CC114FC
:103B3000F1F0892F807F803461F080E28D0F883032
:103B4000A8F0892F807E803221F4D23078F00115E0
:103B500069F08091A80782FF09C082E00E943309C2
:103B60008091A6078770DD24D3948111D12C8C2FEE
:103B700082958F70883009F41DC108F04DC08430E3
:103B800078F51C2F1F70823008F457C0C07FC032F8
:103B900011F01295107FD11509F485C0D13009F4C8
:103BA000CEC0C11409F4D8C0011509F49AC040E090
:103BB000D70115966C9115978D919C910E94CE0E10
:103BC0008A32924209F04EC0F701868180FF4AC0D6
:103BD0008F70868386C0C8010E94EA08C82F94CFE0
:103BE000843009F4CAC0D11409F41BC18091A6071E
:103BF00080FD17C1D70115961C92869586958695EE
:103C00000E949A08C701FFDC8091A60786958695D9
:103C100086950E94A80805C1893009F45BC18A5FB6
:103C20008F70823000F7D23F09F065C18C2F8F7101
:103C3000C1105EC10E949A08F2C0C03110F0129506
:103C4000107FC114B9F0111569F080E28D0F883032
:103C500010F0D11109C080919F07812B80939F079D
:103C60000E94E40F8D2F2FC08091A907812B809394
:103C7000A907F6CF8D2F0E945813111509F4B3CF61
:103C800080E28D0F883010F0D11104C0812F0E9486
:103C90004A0906C010958091A90781238093A9073E
:103CA0000E94E40FA0CF8091A80782FD16C0C11426
:103CB00069F0111539F080919F07812B80939F0740
:103CC0000E94E40F80E00E9411138DCF80E00E94DB
:103CD0005813111509F487CFD9CFC114A1F00111E0
:103CE00004C0812F0E94C2137ECF013009F07BCF28
:103CF0008091A007912F9823191709F474CF812B75
:103D00008093A00770CF01116ECF812F0E94CB133B
:103D10009091A007812F8923811529F0812F80950B
:103D200089238093A0078091A107912F9823911553
:103D300009F459CF109518231093A10754CFC1143B
:103D400021F0063008F04FCFCCCF053008F04BCF34
:103D5000812F0E94CB1347CF0115D1F3D93349F4FA
:103D6000FFEF27EE33E0F15020403040E1F700C094
:103D700000008D2F0E94581336CF8C2F8695869584
:103D80008370811569F0813009F02DCF8D2F9C2F24
:103D90009370C11002C080E090E00E94C30C23CF5A
:103DA0008D2F9C2F9370C11002C080E090E00E9484
:103DB0009B0C19CF8C2F8370811146C0C1102FC06E
:103DC0004D2F429546954770440F440F2D2F2F706D
:103DD00030E0042E02C0220F331F0A94E2F780E085
:103DE00090E0D4FF09C08FE090E002C0880F991FD7
:103DF0004A95E2F780959095C695C695C370C230F6
:103E0000D1F0C330A9F04091A2075091A307C1306F
:103E100069F0822B932B842395230E9490080E94A3
:103E2000880C60E0C7010E94E80E5ECC242B352B85
:103E3000822B932BF2CF822B932B2091A2073091D0
:103E4000A30782279327E9CFC11491F1C0FFE7CFE1
:103E50004D2F429546954770440F440F2D2F2F70DC
:103E600030E0042E02C0220F331F0A94E2F780E0F4
:103E700090E0D4FF09C08FE090E002C0880F991F46
:103E80004A95E2F780959095C695C695C370C23065
:103E9000C1F0C33099F04091A4075091A507C130FB
:103EA00059F0822B932B842395230E949508B7CF3A
:103EB000823008F4B4CFCCCF242B352B822B932B1C
:103EC000F4CF822B932B2091A4073091A507822752
:103ED0009327EBCFCF70C11439F08C2F0E949A0832
:103EE0008D2F0E94C2139BCF8D2F0E94CB138C2F3E
:103EF0000E94A80894CF70F4D03FC9F0D13F91F050
:103F0000C11409F455C0011509F44FC08D2F0E944A
:103F1000111385CFD33F19F1D43F91F79091A807A2
:103F200092FD2BC08C2F8F71C11411F383CEC1145D
:103F3000A1F0053008F073CFCF7181E090E0DC0193
:103F400002C0AA0FBB1FCA95E2F7ED018091A4073A
:103F50009091A5078A279D27A8CF0630EBCF80E058
:103F600090E0C11409F4A1CFCF7181E090E002C0CC
:103F7000880F991FCA95E2F798CFC11461F08C2F72
:103F80008F7192FF57CE982F990F990F990F9360C9
:103F90009093A6074FCE81E00E943309023008F4C7
:103FA0003ECF82E00E9433093ACF8C2F8F7142CEF0
:103FB000011579F0D93349F4BFEFE7EEF3E0B150E2
:103FC000E040F040E1F700C000008D2F0E94581340
:103FD00026CF8C2F8F718CCF90919F07C631BCE775
:103FE000DB0709F0B5CC9A7A81E0911101C080E03D
:103FF0008093930765E3911101C069E280E292E04A
:104000000E94EB0C0E94E40F5FCBC631ECE7DE07A9
:1040100009F0EDCC8091930765E3811101C069E25D
:1040200080E292E00E94050DEDCFA0E0B0E0EBE170
:10403000F0E20C945A2D8091EA07803108F048C0D4
:104040008091E907811509F443C0C091AB0787E06F
:10405000D82E8091AA078C17D9F1EC2EF12CDC9E7A
:10406000E0011124FE01E455F84F84818115A9F186
:1040700091818091E507981330C090818091E40789
:1040800098132BC08581811128C0028113818091F2
:10409000E6079091E707081B190B60E084EE97E0B4
:1040A0000E94E80E0E94EE0E08171907B0F48091E6
:1040B000EA078F7080618093EA07CE54D84F8881D9
:1040C0008F708061888384EE97E09DDA0E942909D1
:1040D000CDB7DEB7E7E00C94762DE7012196C770E7
:1040E000B8CFADE0B0E0E7E7F0E20C94502D8C01E2
:1040F00086E0F801DE01189601900D928A95E1F7AD
:10410000D8015C9011964C9011971296AD90BC908E
:10411000139714963C90149715966C9061100CC0F0
:1041200050917107252F30E0E0E08E2F0E2E000C0D
:10413000990B8217930744F124EEC22E27E0D22E6A
:104140008091E807811152C03114D9F0611409F44B
:1041500049C2C8010E949E0B811509F443C287E041
:10416000F801D60101900D928A95E1F78091E80758
:10417000813031F48091E4079091E5070E94920B21
:1041800054DFFF24F39471C0880F991F8F59984F03
:10419000DC0111964C911197441103C08C91581673
:1041A00011F0EF5FC2CFEF3F39F2D80116968C9134
:1041B00016978F70806116968C93E517A0F4AFEF79
:1041C000A50FA0937107EA1770F4F0E0EE0FFF1F40
:1041D000EF59F84FB0E0AA0FBB1FAF59B84F8D9100
:1041E0009C91918380830E941C09A6CF60E084EE9D
:1041F00097E00E94E80E7C017090E9078091E60745
:104200009091E7074501881A990A60E084EE97E0EB
:10421000711409F4C4C10E94E80E0E94EE0E8816C3
:10422000990608F099C1311409F4ABCF9091E507D4
:10423000F80121818091EA07803108F052C12913E9
:1042400019C02091E4079081291314C0611012C095
:104250008F7080618093EA0784EE97E0D4D98091D3
:10426000EA07D80116968C93F12C8F2D2D96E1E15B
:104270000C946C2DC70190528115904308F08AC0B0
:104280006110A9C040E0642D852D0E94AF0E811100
:1042900024C040E0642D852D0E94AF0E40E0642DC7
:1042A000852D0E94AF0EF82E8111DECF888599856D
:1042B0000E94920B292F22952F70903408F073C022
:1042C0009F70223008F477C0911509F479C0F80185
:1042D0009681903108F074C0C8CF60E0C8010E9498
:1042E000E80EC8010E94040E8111D3CF8091EA0725
:1042F0008F7080618093EA078091E4079091E507D1
:104300000E94491084EE97E07ED9E4EEF7E087E062
:10431000DF011D928A95E9F797E0F92E0091AB072E
:104320008091AA07081789F1F09E80011124F801F5
:10433000E455F84F6F018581811589F0CF010E9406
:104340009E0B811561F0F801EE54F84F80818F705B
:1043500080618083D6018D919C910E944910C60195
:1043600052D98091AB0790E001968770992780938E
:10437000AB07F801E455F84F81818411CFCF8081DC
:104380005812CCCF8581811549F20E941C090E94E8
:1043900029096ACF611409F47CCF8091EA07816012
:1043A0008093EA0761CF2A5F2F70223070F0C80136
:1043B0002AD9F72C5ACF911519F0811509F455CF48
:1043C000805E883008F451CFF2CF803F08F44DCFA3
:1043D000815F8330F7CF8091EA0781608093EA079D
:1043E00060E0C8010E94E80EC8010E94040E81111D
:1043F00023C08091EA078E7F8093EA07C8010E945C
:104400009E0B811131CF8091EA078F70806180937C
:10441000EA078091E4079091E5070E9449100E9405
:104420001C0984EE97E0EFD8E4EEF7E087E0DF01C7
:104430001D928A95E9F718CFBAE2EB16B2E2FB06B5
:1044400009F012CF84EE97E0DED80091AB0780919F
:10445000AA07081709F43DC0E02EF12CE7E00E9FF3
:10446000C00111249C012455384F6901C9010E94E3
:104470009E0B811571F187E0F601A4EEB7E0019083
:104480000D928A95E1F7C701019687709927082F49
:104490008093AB070E94290987E0F82E8091AA0734
:1044A000081709F474CFF09E800111240455184FA9
:1044B000C8010E949E0B81116ACFC801A4D88091C7
:1044C000AB0790E0019687709927082F8093AB0780
:1044D000E5CF87E0E4EEF7E0DF011D928A95E9F78A
:1044E000DBCF291313C02091E407908129130EC05C
:1044F00061100CC08683C80186D887E0F801A4EE5D
:10450000B7E001900D928A95E1F73BCEC8010E9479
:104510009E0B811509F466C0611409F463C0809193
:10452000EA07803280F02091E4073091E5073A8372
:104530002983BC82AB829091E8079D831E828F8382
:10454000CE01019660D887E0F801A4EEB7E00190B3
:104550000D928A95E1F714CE8091EA07803130F40C
:1045600084EE97E050D887E0D60162CF311409F489
:1045700008CE2091E507F80191812913C7CF20913A
:10458000E40790812913C2CF6110C0CF8683C80190
:104590003AD887E0D6011D928A95E9F7F2CD0E94BC
:1045A000E80E0E94EE0E88169906E8F6311409F41A
:1045B000E8CD6114B9F09091E507F8018181981375
:1045C00007C09091E4078081981302C087E097CFDD
:1045D000C8010E949E0B8111B6CF8091EA078160CD
:1045E0008093EA07C8010FD8CCCDABE1B0E0EBEF88
:1045F000F2E20C945D2D4E8B5F8B688F798F8A8FE2
:10460000192F9B8F91111092A9071D8A86E0FE0138
:104610007696DE011F9601900D928A95E1F70A8D3C
:10462000011561F00B8B1C8B61E0CE010F960E948F
:10463000E80E61E0CE010F960E94E80E0B8B1C8BFA
:1046400087E0FE013F96DE01189601900D928A9553
:10465000E1F7CE01089645DD811128C02091AA0717
:104660003091AB0787E0FE013896DE01119601908C
:104670000D928A95E1F78C858115C1F0822F90E02B
:1046800001968770992738171906D9F097E0929FFD
:10469000D0011124A455B84FFE01319601900D921E
:1046A0009A95E1F78093AA070E94290917E0809163
:1046B000AB079091AA07891312C06B96E4E00C94A3
:1046C000792D0E9422101092AA071092AB0787E062
:1046D000E4EEF7E0DF011D928A95E9F7E7CF189F36
:1046E000C00111248455984FFCDC811531F3809171
:1046F000AB0790E00196877099278093AB07D7CFDF
:10470000A6E0B0E0E6E8F3E20C945D2D0E94C91843
:104710008C0180915507909156078017910771F091
:1047200019821A820E94C918BC0149815A8180E00D
:1047300090E05BDF10935607009355072696E4E060
:104740000C94792DA3E1B0E0E8EAF3E20C94522D49
:10475000FE013C9688E0DF011D928A95E9F78AE127
:10476000E82E81E0F82E8F019EE1C92E91E0D92E2E
:104770003F01AA24A394B12C3AE1832E31E0932E79
:10478000F70181917F018F3F09F43EC0F894E82F33
:10479000E295EF70F0E021A18F70A50102C0440FF7
:1047A000551F8A95E2F7CA01922F982B91A392A1E7
:1047B0008095892382A3789400C0E2E1F1E031E0A2
:1047C000512C21912F3F79F0A22FA295AF70A05EBE
:1047D000B0E08C9190E02F7002C0959587952A9556
:1047E000E2F780FF98C080E0582A330F8E169F06AC
:1047F00041F7F70182918F3F11F00E94CB0B50EAF5
:104800005A95F1F7D8015C920F5F1F4FCE14DF0469
:1048100009F0B6CF48E050E0B30184ED92E00E9489
:10482000EA2D9C01892B41F088E0F301A4EDB2E070
:1048300001900D928A95E1F70091DD0210E002519E
:10484000194F232B09F469C081E0809331020E9443
:10485000C9189093300280932F0280914F07FE0178
:1048600031967F01811509F4B3C084E0DF011D9208
:104870008A95E9F7809132028A3008F072C040E8E8
:1048800054E1B701C8010E94940F811509F48EC04C
:1048900049EF54E1B701C8010E94940F811509F452
:1048A00085C04FE555E1B701C8010E94940F8115FD
:1048B00009F47CC041EB55E1B701C8010E94940F97
:1048C000811509F473C046E155E1B701C8010E94A2
:1048D000940F811509F46AC041E455E1B701C8019C
:1048E0000E94940F811509F461C0109232028091E8
:1048F000DC0290E044E050E0B7018251994F0E9401
:10490000EA2D21E020932E02892B09F041C0639605
:10491000EFE00C946E2D832F67CF809131028115CB
:1049200009F49BCFE0902F02F09030020E94C9184A
:104930008E199F09059708F490CF44E050E064ED8C
:1049400072E0C8010E94EA2D892B41F084E0E4ED79
:10495000F2E0D80101900D928A95E1F710923102B0
:104960007CCFC0902C02D0902D020E94C9188C19C7
:104970009D09843F914008F082CF80912E028115DD
:1049800031F284E0F70111928A95E9F710922E0234
:10499000E091DC02F0E0E251F94F89819A81AB812C
:1049A000BC8180839183A283B383B1CF8091320293
:1049B0008F3F39F40E94C91890932D0280932C02E6
:1049C000DCCF8F5F809332028A3008F490CFF2CF31
:1049D000C090DC02D12C96012251394F6901F801B7
:1049E00080819181A281B38180932E0790932F07BC
:1049F000A0933007B093310764E070E08EE297E057
:104A00000E94700C80932D0780913207909133079C
:104A1000A0913407B0913507F60180839183A2837A
:104A2000B38388E0EFEFF6E0A7E3B7E001900D92E3
:104A30008A95E1F768E070E087E397E00E94700CE8
:104A40008093360780903F0790904007A0904107E1
:104A5000B09042078091280290912902A0912A02E9
:104A6000B0912B0288169906AA06BB06B1F0809277
:104A7000280290922902A0922A02B0922B020E9450
:104A8000160D861A970AA80AB90A809251079092C1
:104A90005207A0925307B09254078BE0E3E4F7E08B
:104AA000D70101900D928A95E1F700914407F090AB
:104AB0004507E090460710914D0710924D071115DC
:104AC000B9F010FF0DC089819091970780FF17C042
:104AD00091609093970760E0869586950E940817ED
:104AE00011FF06C020E04E2D6F2D802F0E94391639
:104AF00080914E07811571F00E94861708CF9E7F26
:104B000090939707809196078160809396070E9403
:104B1000E80BE6CF0E947517FACECDB7DEB72A971D
:104B20000FB6F894DEBF0FBECDBF85B7806885BFD6
:104B300085B7806885BF84B7877F84BF0FB6F89438
:104B4000A895809160008861809360001092600059
:104B50000FBE80E890E00FB6F894809361009093C8
:104B600061000FBE81E080930A0189EC9BE0909385
:104B70001F0280931E020E94E50D0E94550E809137
:104B8000E20084608093E20078948091ED068115C4
:104B900099F08091E9001091EC008F701795112722
:104BA0001795182B1092E9008091E80083FD0E9470
:104BB00061101F701093E90082E084BD93E095BD01
:104BC0009AEF97BD80936E00109251071092520792
:104BD00010925307109254078091D80080618093FF
:104BE000D8002AE12A95F1F700C08091D900182F4A
:104BF000117080FD04C00E94E50D1092ED06109327
:104C00004F0723982B9A6E9A769835E03A95F1F7EC
:104C1000000083B16E98769A90EA9A95F1F783FB3B
:104C2000882780F98093500780931E018111CBC1A2
:104C30008AE080930B018AE080930C0180914F07FA
:104C40008111C6D5EFEFF6E088E0DF011D928A956D
:104C5000E9F780911E0191E08927809309078091EF
:104C60001E0190930C0780911E0180911E018111FD
:104C700006C085EF8093110184EF8093100160E0FE
:104C800080E00E94230C61E080E00E94230CEFE8AA
:104C9000F1E03197F1F700C0000010E080910C07BF
:104CA000181708F492C180911E0181111EC084E979
:104CB00080931A0186E680931B0187E980931C018B
:104CC00086EC80931D0188E0E1E7F1E0DE011196BA
:104CD00001900D928A95E1F788E0FE013196A2E1FC
:104CE000B1E001900D928A95E1F780911E0191E06B
:104CF0008927880F880F8093DD0294E0981B90939A
:104D0000DC020AE111E0D8018D918D018F3F11F095
:104D10000E94CB0BB1E00E311B07A9F702E111E0B5
:104D20005AE1E52E51E0F52EF80181918F018F3F78
:104D300011F00E94CB0BE016F106B1F788E0EEEE21
:104D4000F6E0DF01282F1D922A95E9F7E4EDF2E065
:104D5000DF011D928A95E9F780E090E05ED7833EFF
:104D60009E4F31F163EE7EEF80E090E075D760E01A
:104D700082E090E057D781E090E09093A307809382
:104D8000A20761E083E090E04DD760E074E184E049
:104D900090E062D70E94141640E050E0BA018FE024
:104DA00090E052D740E050E0BA0183E190E04CD768
:104DB00082E090E025D78093F60684E090E02DD73E
:104DC0009093A8078093A70783E090E019D790E01D
:104DD0000E94900882E08093E90680E88093E806CC
:104DE0008CD36BE070E089EC9CE00E946817811521
:104DF00009F43FC08091E90665E070E081FDF7C0ED
:104E000084EC9CE00E946817811599F16DE070E0D8
:104E100082EB9CE00E946817811559F10E94160DE3
:104E2000DC01CB01805A9541AF4FBF4F8093E40620
:104E30009093E506A093E606B093E706E2EEF2E073
:104E400080E094E0DF019C011D9221503040E1F7A9
:104E5000F093E102E093E0028FEF9FEF9093DF0287
:104E60008093DE0281E08093E30680930E07109228
:104E7000E2068091EA0681112DC087E997E00E9441
:104E8000A917809196078360809396078091970772
:104E9000843008F0AFC00E94141687E997E00E94A2
:104EA000A91780919707843008F0A4C080919707D4
:104EB00083708460809397070E94630C80919707AA
:104EC00080FF05C060E0869586950E94081781E006
:104ED0008093EA0680914F07811101C07CD48FE155
:104EE00091E090935807809357072FEFA22E26E06A
:104EF000B22E34E0632E712C48E1842E912C8091E7
:104F0000ED0610E102E1853009F4B0C01BDC07EFCB
:104F100016E08EEEC82E86E0D82E9CE8E92E91E0B1
:104F2000F92E9701B601F8019191DB018D91BD0138
:104F3000D9014D919D018423AE16BF0609F4A0C08E
:104F4000981791F3B0914F07BA87412CF601519011
:104F50006F01D7018D917D015822F80181918F0158
:104F6000851541F185258987312C22242394898553
:104F700082218115C1F0FA85F115A9F039824A82A2
:104F80000E94C9189C838B8321E02D8391E0852D9D
:104F90008221811101C090E09E8349815A816B81F9
:104FA0007C818D8122DB3394220C38E03312DFCFF9
:104FB000F8015292439488E04812C8CF0E94220D13
:104FC000DD24D39461C080E034CE60E0812F0E9464
:104FD000460C082F61E0812F0E94460CE12FF0E083
:104FE000E65FF84F880F802B80831F5F57CE8FEBD3
:104FF0009CE008CF80919707883008F057CF5CCFAE
:105000008091ED06843021F10E9475171092EB0615
:1050100030E40FB6F894A895809260000FBE3093EC
:10502000600083B7817F846083BF83B7816083BF63
:105030007894889583B78E7F83BF0FB6F894A89530
:1050400080916000886180936000109260000FBEC4
:1050500079DBEEEEF6E0ACE8B1E081919D91892339
:10506000811185C086E0E63FF807B9F78091ED062B
:10507000853009F4C5CF0E9422100E94880C46CFCB
:10508000981360CF3DDBD12CF0904F07F11419F04D
:105090000E949413F82E80911B07811551F01092F5
:1050A0001B0780910107809302078091FF06809380
:1050B0000007E12C38C061E08E2D0E94460C182FAD
:1050C00060E08E2D0E94460C110F812B0E2D10E0FA
:1050D000D801A65FB84FEC919E2F9370891711F1FC
:1050E000EE0FEE0FE82BEC93809109078E0DEF7019
:1050F000F0E0EC56FE4F095F184FC080D8019C913C
:10510000C90EB4E060E0CB1624F4EDEFCE161CF42B
:1051100061E00E94020C8C2DCC0C990BB30102D5DE
:10512000D8018C93E39480910C07E81620F28091CB
:105130004F07811519F00E949413F82AF11439F0E1
:105140000E94220D0E94DE180E94861704C00E9451
:10515000DE18D110F9CF0E94880C90910D078917A5
:1051600009F4CDCE80930D070E94160DC8CE809114
:10517000EC06811509F47ACF19BD09BD09B400FE0A
:10518000FDCF8091D8008F7D8093D8008091E00082
:1051900082608093E0008091E00081FDFCCF0E945E
:1051A000221064CF78941F921FB61F9211248F9300
:1051B0009F93AF93BF9380914E0290914F02A09125
:1051C0005002B09151020196A11DB11D80934E0273
:1051D00090934F02A0935002B0935102BF91AF91B0
:1051E0009F918F911F901FBE1F9018951F920F9235
:1051F0000FB60F9211242F933F934F935F936F93AA
:105200007F938F939F93AF93BF93EF93FF9380917F
:10521000E10082FF09C08091E20082FF05C0809119
:10522000E1008B7F8093E1008091DA0080FF24C051
:105230008091D80080FF20C08091DA008E7F80931B
:10524000DA008091D90080FFA9C080E189BD82E1A8
:1052500089BD09B400FEFDCF81E08093ED06809109
:105260003D02811109C00E94E50D0E94550E8091FA
:10527000E20084608093E2008091E10080FF1AC028
:105280008091E20080FF16C08091E2008E7F8093C3
:10529000E2008091E20080618093E2008091D8007A
:1052A00080628093D80019BC85E08093ED0683E08E
:1052B00080930A018091E10084FF2FC08091E20079
:1052C00084FF2BC080E189BD82E189BD09B400FE65
:1052D000FDCF8091D8008F7D8093D8008091E10030
:1052E0008F7E8093E1008091E2008F7E8093E200C8
:1052F0008091E20081608093E20080913C02811500
:1053000009F452C084E08093ED068091ED0684306C
:1053100009F052C082E080930A018091E10083FF8E
:105320002CC08091E20083FF28C08091E100877F3C
:105330008093E10082E08093ED0610923C02809120
:10534000E1008E7F8093E1008091E2008E7F809368
:10535000E2008091E20080618093E20042E060E040
:1053600080E00E94250E8091F00088608093F0001C
:1053700081E080930A0180930901FF91EF91BF9131
:10538000AF919F918F917F916F915F914F913F91DD
:105390002F910F900FBE0F901F90189519BC10926F
:1053A000ED0610923D0268CF8091E30087FF02C0B6
:1053B00083E0A9CF81E0A7CF81E0ADCF1F920F920C
:1053C0000FB60F921124EF92FF920F931F932F931A
:1053D0003F934F935F936F937F938F939F93AF937D
:1053E000BF93CF93EF93FF9309EE10E0F801808114
:1053F000C091EC008F70C795CC27C795C82B108241
:1054000080EFE82EF12CF7018081877F80837894EC
:105410000E946110F8011082F7018081886080830A
:10542000CF70F801C083FF91EF91CF91BF91AF9101
:105430009F918F917F916F915F914F913F912F91AC
:105440001F910F91FF90EF900F900FBE0F901F9044
:105450001895FF920F931F93CF93DF93182FEB01B3
:105460001092BC0084EA8093BC000E94C918082FE7
:10547000F92E8091BC0087FF28C08091B900887FF9
:10548000883029F08091B900887F803199F5109398
:10549000BB0084E88093BC000E94C918182F092F14
:1054A0008091BC0087FF1EC02091B900287F80E05A
:1054B00090E0283199F081E090E0203411F480E010
:1054C00090E091958195910909C0802F9F2D0E94B0
:1054D000D518C817D90768F68EEF9FEFCDB7DEB79E
:1054E000E5E006C3812F902F0E94D518C817D90771
:1054F000B8F6F2CF8FEF9FEFF1CF1092B9008CE0AA
:105500008093B80008950F931F93CF93DF93EB011F
:105510008093BB0084E88093BC000E94C918182FB8
:10552000092F8091BC0087FF11C02091B900287F0E
:1055300081E090E0283211F480E090E0919581952F
:105540009109DF91CF911F910F910895CF3FDC0713
:1055500041F3812F902F0E94D518C817D90708F75B
:105560008EEF9FEFEECFA0E0B0E0E8EBFAE29CC256
:10557000782EB62EA72E6A0189010E94C9184C0107
:105580000431110508F10F3F100711F1C80164E162
:1055900070E071D2F62EE72E6F2D7E2D872D59DF0C
:1055A000EC01892BC1F4EB2CFA2CCE0CDF1CEC1493
:1055B000FD0411F02097C9F084E98093BC00CE016E
:1055C000CDB7DEB7EDE08CC2FF24F394E12CE4CF3D
:1055D00085E0F82EFBCF0F3F1007F1F2C4010E94C7
:1055E000D51808171907C0F6DECFB801F701819169
:1055F0007F0189DFEC01DBCFA0E0B0E0E1E0FBE27E
:1056000053C2782EB62EA72E6A0189010E94C918AE
:105610004C010431110508F10F3F100711F1C801C9
:1056200064E170E028D2F62EE72E6F2D7E2D872DB7
:1056300010DFEC01892BC1F4EB2CFA2CCE0CDF1C13
:10564000EC14FD0411F02097C9F084E98093BC00AC
:10565000CE01CDB7DEB7EDE043C2FF24F394E12CD9
:10566000E4CF85E0F82EFBCF0F3F1007F1F2C40125
:105670000E94D51808171907C0F6DECFF7018491EC
:10568000B80141DFEC01FFEFEF1AFF0AD9CFA0E02C
:10569000B0E0ECE4FBE207C2682E962E5A016901E5
:1056A00078010E94C918782E892E0431110518F14D
:1056B0000F3F100719F1C80164E170E0DCD1162F2B
:1056C000072F612F702F862DC4DEEC01892BC1F0CE
:1056D000FFEFEF16FF06A9F3872D982D0E94D5182E
:1056E000E816F90670F784E98093BC00CE01CDB7C7
:1056F000DEB7EEE0F4C111E000E0E3CF15E0FCCF4F
:10570000B701892D00DFEC018501CA0CDB1C0C15EB
:105710001D0549F3209739F7B701F80181918F01F1
:10572000F2DEEC01F4CF8EE14A9B02C08A95E1F7EC
:105730004A9BFECF08955A9880E28A95F1F75A9ACB
:105740000895FC013BE03A95F1F798E020E080E015
:1057500031E040E14A95F1F7880F4A9B02C0816031
:10576000232742E04A95F1F7000040E14A95F1F71E
:105770009A9579F790E19A95F1F799B132E03A95D7
:10578000F1F7000040E14A95F1F792FB992790F973
:1057900092272081920F90830895A1E0B0E0E2ED7E
:1057A000FBE289C119828C017C01E60EF11CBBDF92
:1057B000CE010196C6DFF80181938F01EE15FF053A
:1057C000B1F781E09981911180E02196E6E08FC1E7
:1057D000529A5A9A089552985A9AEA9AE9E6F0E04B
:1057E00080818F7C808308956150770B91E001C0A8
:1057F000990F6A95EAF7692F90E021E0611108C0DE
:10580000911599F05A9A80E28A95F1F75A9808957D
:10581000362F3823311539F05A9A922730E23A95CB
:10582000F1F76695EBCF5A98F9CF5A98ECCFFF92E3
:105830000F931F93CF93DF93EC018C01060F111D83
:10584000F99079DF68E08F2DCFDFC017D107C1F75E
:10585000CDB7DEB7E5E04CC11F920F920FB60F92A5
:1058600011240F931F932F933F934F935F936F9345
:105870007F938F939F93AF93BF93EF93FF93CF93B8
:10588000DF930F92CDB7DEB719824DDFCE010196BF
:1058900058DF082F069506950695982F92959570D6
:1058A000202F2570920F292F237096959695920F91
:1058B000982797708981892B811509F058C00A3083
:1058C00008F055C080E18A95F1F75A9A529A82E021
:1058D0008A95F1F700C05A9888E0089F800111244A
:1058E000D801A75DBE4F1696ED91FC9117973097A2
:1058F000A9F06091A4017091A50114962D913C919D
:105900001597260F371F11968D919C911297680F4E
:10591000791F13964C9113978C910995F801E75DC7
:10592000FE4F6381611549F02091A4013091A501DA
:1059300084819581820F931F7ADFFDDE80E18A9555
:10594000F1F75A9852985A9A80E18A95F1F7F8013E
:10595000E75DFE4F6081611549F02091A40130910F
:10596000A50181819281820F931F17DFDCDE0F90EA
:10597000DF91CF91FF91EF91BF91AF919F918F9167
:105980007F916F915F914F913F912F911F910F9157
:105990000F900FBE0F901F9018950F931F93CF93EA
:1059A000DF938C010A970CF05EC0F894529A5A98D3
:1059B00085E08A95F1F70000C02FC695C570802F4D
:1059C0008570C80F8C2F8370C695C69593E0000F25
:1059D000111F9A95E1F7C80FC8018C2BEC01ABDEC3
:1059E00000C068E08C2F00DF90E19A95F1F75298A3
:1059F0005A9A4A9B31C087E090E04A992FC0F8013B
:105A0000E75DFE4F6381611559F02091A40130914B
:105A1000A50184819581820F931FBFDE811501F15D
:105A200082DE80E28A95F1F75A98529A90E19A952F
:105A3000F1F7F801E75DFE4F6081611549F02091B3
:105A4000A4013091A50181819281820F931FEFDE25
:105A500072DE789481E008C000C0CBCF019749F492
:105A6000529A5A9A789480E0DF91CF911F910F91CA
:105A7000089500C0C2CFAA1BBB1B51E107C0AA1FDB
:105A8000BB1FA617B70710F0A61BB70B881F991FDF
:105A90005A95A9F780959095BC01CD0108952F9254
:105AA0003F924F925F926F927F928F929F92AF92AE
:105AB000BF92CF92DF92EF92FF920F931F93CF93FB
:105AC000DF93CDB7DEB7CA1BDB0B0FB6F894DEBF92
:105AD0000FBECDBF09942A88398848885F846E84B8
